{
	"contracts/5.video.sol": {
		"Combined": {
			"abi": [
				{
					"inputs": [
						{
							"internalType": "string",
							"name": "_password",
							"type": "string"
						}
					],
					"stateMutability": "nonpayable",
					"type": "constructor"
				},
				{
					"inputs": [],
					"name": "getArr0",
					"outputs": [
						{
							"internalType": "uint256[15]",
							"name": "",
							"type": "uint256[15]"
						}
					],
					"stateMutability": "view",
					"type": "function"
				},
				{
					"inputs": [],
					"name": "listByFor",
					"outputs": [],
					"stateMutability": "nonpayable",
					"type": "function"
				},
				{
					"inputs": [],
					"name": "listByWhile",
					"outputs": [],
					"stateMutability": "nonpayable",
					"type": "function"
				},
				{
					"inputs": [
						{
							"internalType": "string",
							"name": "_password",
							"type": "string"
						}
					],
					"name": "login",
					"outputs": [
						{
							"internalType": "bool",
							"name": "",
							"type": "bool"
						}
					],
					"stateMutability": "nonpayable",
					"type": "function"
				},
				{
					"inputs": [],
					"name": "loginStatus",
					"outputs": [
						{
							"internalType": "uint256",
							"name": "",
							"type": "uint256"
						}
					],
					"stateMutability": "view",
					"type": "function"
				},
				{
					"inputs": [
						{
							"internalType": "uint256",
							"name": "",
							"type": "uint256"
						}
					],
					"name": "numbers0",
					"outputs": [
						{
							"internalType": "uint256",
							"name": "",
							"type": "uint256"
						}
					],
					"stateMutability": "view",
					"type": "function"
				},
				{
					"inputs": [
						{
							"internalType": "uint256",
							"name": "",
							"type": "uint256"
						}
					],
					"name": "numbers1",
					"outputs": [
						{
							"internalType": "uint256",
							"name": "",
							"type": "uint256"
						}
					],
					"stateMutability": "view",
					"type": "function"
				}
			],
			"devdoc": {
				"kind": "dev",
				"methods": {},
				"version": 1
			},
			"evm": {
				"assembly": "    /* \"contracts/5.video.sol\":108:2608  contract Combined {... */\n  mstore(0x40, 0x80)\n    /* \"contracts/5.video.sol\":637:768  constructor(string memory _password) {... */\n  callvalue\n  dup1\n  iszero\n  tag_1\n  jumpi\n  0x00\n  dup1\n  revert\ntag_1:\n  pop\n  mload(0x40)\n  sub(codesize, bytecodeSize)\n  dup1\n  bytecodeSize\n  dup4\n  codecopy\n  dup2\n  dup2\n  add\n  0x40\n  mstore\n  dup2\n  add\n  swap1\n  tag_2\n  swap2\n  swap1\n  tag_3\n  jump\t// in\ntag_2:\n    /* \"contracts/5.video.sol\":717:726  _password */\n  dup1\n    /* \"contracts/5.video.sol\":706:727  abi.encode(_password) */\n  add(0x20, mload(0x40))\n  tag_6\n  swap2\n  swap1\n  tag_7\n  jump\t// in\ntag_6:\n  mload(0x40)\n  0x20\n  dup2\n  dup4\n  sub\n  sub\n  dup2\n  mstore\n  swap1\n  0x40\n  mstore\n    /* \"contracts/5.video.sol\":696:728  keccak256(abi.encode(_password)) */\n  dup1\n  mload\n  swap1\n  0x20\n  add\n  keccak256\n    /* \"contracts/5.video.sol\":685:693  hashcode */\n  0x00\n    /* \"contracts/5.video.sol\":685:728  hashcode = keccak256(abi.encode(_password)) */\n  dup2\n  swap1\n  sstore\n  pop\n    /* \"contracts/5.video.sol\":637:768  constructor(string memory _password) {... */\n  pop\n    /* \"contracts/5.video.sol\":108:2608  contract Combined {... */\n  jump(tag_8)\n    /* \"#utility.yul\":7:82   */\ntag_9:\n    /* \"#utility.yul\":40:46   */\n  0x00\n    /* \"#utility.yul\":73:75   */\n  0x40\n    /* \"#utility.yul\":67:76   */\n  mload\n    /* \"#utility.yul\":57:76   */\n  swap1\n  pop\n    /* \"#utility.yul\":7:82   */\n  swap1\n  jump\t// out\n    /* \"#utility.yul\":88:205   */\ntag_10:\n    /* \"#utility.yul\":197:198   */\n  0x00\n    /* \"#utility.yul\":194:195   */\n  dup1\n    /* \"#utility.yul\":187:199   */\n  revert\n    /* \"#utility.yul\":211:328   */\ntag_11:\n    /* \"#utility.yul\":320:321   */\n  0x00\n    /* \"#utility.yul\":317:318   */\n  dup1\n    /* \"#utility.yul\":310:322   */\n  revert\n    /* \"#utility.yul\":334:451   */\ntag_12:\n    /* \"#utility.yul\":443:444   */\n  0x00\n    /* \"#utility.yul\":440:441   */\n  dup1\n    /* \"#utility.yul\":433:445   */\n  revert\n    /* \"#utility.yul\":457:574   */\ntag_13:\n    /* \"#utility.yul\":566:567   */\n  0x00\n    /* \"#utility.yul\":563:564   */\n  dup1\n    /* \"#utility.yul\":556:568   */\n  revert\n    /* \"#utility.yul\":580:682   */\ntag_14:\n    /* \"#utility.yul\":621:627   */\n  0x00\n    /* \"#utility.yul\":672:674   */\n  0x1f\n    /* \"#utility.yul\":668:675   */\n  not\n    /* \"#utility.yul\":663:665   */\n  0x1f\n    /* \"#utility.yul\":656:661   */\n  dup4\n    /* \"#utility.yul\":652:666   */\n  add\n    /* \"#utility.yul\":648:676   */\n  and\n    /* \"#utility.yul\":638:676   */\n  swap1\n  pop\n    /* \"#utility.yul\":580:682   */\n  swap2\n  swap1\n  pop\n  jump\t// out\n    /* \"#utility.yul\":688:868   */\ntag_15:\n    /* \"#utility.yul\":736:813   */\n  0x4e487b7100000000000000000000000000000000000000000000000000000000\n    /* \"#utility.yul\":733:734   */\n  0x00\n    /* \"#utility.yul\":726:814   */\n  mstore\n    /* \"#utility.yul\":833:837   */\n  0x41\n    /* \"#utility.yul\":830:831   */\n  0x04\n    /* \"#utility.yul\":823:838   */\n  mstore\n    /* \"#utility.yul\":857:861   */\n  0x24\n    /* \"#utility.yul\":854:855   */\n  0x00\n    /* \"#utility.yul\":847:862   */\n  revert\n    /* \"#utility.yul\":874:1155   */\ntag_16:\n    /* \"#utility.yul\":957:984   */\n  tag_34\n    /* \"#utility.yul\":979:983   */\n  dup3\n    /* \"#utility.yul\":957:984   */\n  tag_14\n  jump\t// in\ntag_34:\n    /* \"#utility.yul\":949:955   */\n  dup2\n    /* \"#utility.yul\":945:985   */\n  add\n    /* \"#utility.yul\":1087:1093   */\n  dup2\n    /* \"#utility.yul\":1075:1085   */\n  dup2\n    /* \"#utility.yul\":1072:1094   */\n  lt\n    /* \"#utility.yul\":1051:1069   */\n  0xffffffffffffffff\n    /* \"#utility.yul\":1039:1049   */\n  dup3\n    /* \"#utility.yul\":1036:1070   */\n  gt\n    /* \"#utility.yul\":1033:1095   */\n  or\n    /* \"#utility.yul\":1030:1118   */\n  iszero\n  tag_35\n  jumpi\n    /* \"#utility.yul\":1098:1116   */\n  tag_36\n  tag_15\n  jump\t// in\ntag_36:\n    /* \"#utility.yul\":1030:1118   */\ntag_35:\n    /* \"#utility.yul\":1138:1148   */\n  dup1\n    /* \"#utility.yul\":1134:1136   */\n  0x40\n    /* \"#utility.yul\":1127:1149   */\n  mstore\n    /* \"#utility.yul\":917:1155   */\n  pop\n    /* \"#utility.yul\":874:1155   */\n  pop\n  pop\n  jump\t// out\n    /* \"#utility.yul\":1161:1290   */\ntag_17:\n    /* \"#utility.yul\":1195:1201   */\n  0x00\n    /* \"#utility.yul\":1222:1242   */\n  tag_38\n  tag_9\n  jump\t// in\ntag_38:\n    /* \"#utility.yul\":1212:1242   */\n  swap1\n  pop\n    /* \"#utility.yul\":1251:1284   */\n  tag_39\n    /* \"#utility.yul\":1279:1283   */\n  dup3\n    /* \"#utility.yul\":1271:1277   */\n  dup3\n    /* \"#utility.yul\":1251:1284   */\n  tag_16\n  jump\t// in\ntag_39:\n    /* \"#utility.yul\":1161:1290   */\n  swap2\n  swap1\n  pop\n  jump\t// out\n    /* \"#utility.yul\":1296:1604   */\ntag_18:\n    /* \"#utility.yul\":1358:1362   */\n  0x00\n    /* \"#utility.yul\":1448:1466   */\n  0xffffffffffffffff\n    /* \"#utility.yul\":1440:1446   */\n  dup3\n    /* \"#utility.yul\":1437:1467   */\n  gt\n    /* \"#utility.yul\":1434:1490   */\n  iszero\n  tag_41\n  jumpi\n    /* \"#utility.yul\":1470:1488   */\n  tag_42\n  tag_15\n  jump\t// in\ntag_42:\n    /* \"#utility.yul\":1434:1490   */\ntag_41:\n    /* \"#utility.yul\":1508:1537   */\n  tag_43\n    /* \"#utility.yul\":1530:1536   */\n  dup3\n    /* \"#utility.yul\":1508:1537   */\n  tag_14\n  jump\t// in\ntag_43:\n    /* \"#utility.yul\":1500:1537   */\n  swap1\n  pop\n    /* \"#utility.yul\":1592:1596   */\n  0x20\n    /* \"#utility.yul\":1586:1590   */\n  dup2\n    /* \"#utility.yul\":1582:1597   */\n  add\n    /* \"#utility.yul\":1574:1597   */\n  swap1\n  pop\n    /* \"#utility.yul\":1296:1604   */\n  swap2\n  swap1\n  pop\n  jump\t// out\n    /* \"#utility.yul\":1610:1749   */\ntag_19:\n    /* \"#utility.yul\":1699:1705   */\n  dup3\n    /* \"#utility.yul\":1694:1697   */\n  dup2\n    /* \"#utility.yul\":1689:1692   */\n  dup4\n    /* \"#utility.yul\":1683:1706   */\n  mcopy\n    /* \"#utility.yul\":1740:1741   */\n  0x00\n    /* \"#utility.yul\":1731:1737   */\n  dup4\n    /* \"#utility.yul\":1726:1729   */\n  dup4\n    /* \"#utility.yul\":1722:1738   */\n  add\n    /* \"#utility.yul\":1715:1742   */\n  mstore\n    /* \"#utility.yul\":1610:1749   */\n  pop\n  pop\n  pop\n  jump\t// out\n    /* \"#utility.yul\":1755:2189   */\ntag_20:\n    /* \"#utility.yul\":1844:1849   */\n  0x00\n    /* \"#utility.yul\":1869:1935   */\n  tag_46\n    /* \"#utility.yul\":1885:1934   */\n  tag_47\n    /* \"#utility.yul\":1927:1933   */\n  dup5\n    /* \"#utility.yul\":1885:1934   */\n  tag_18\n  jump\t// in\ntag_47:\n    /* \"#utility.yul\":1869:1935   */\n  tag_17\n  jump\t// in\ntag_46:\n    /* \"#utility.yul\":1860:1935   */\n  swap1\n  pop\n    /* \"#utility.yul\":1958:1964   */\n  dup3\n    /* \"#utility.yul\":1951:1956   */\n  dup2\n    /* \"#utility.yul\":1944:1965   */\n  mstore\n    /* \"#utility.yul\":1996:2000   */\n  0x20\n    /* \"#utility.yul\":1989:1994   */\n  dup2\n    /* \"#utility.yul\":1985:2001   */\n  add\n    /* \"#utility.yul\":2034:2037   */\n  dup5\n    /* \"#utility.yul\":2025:2031   */\n  dup5\n    /* \"#utility.yul\":2020:2023   */\n  dup5\n    /* \"#utility.yul\":2016:2032   */\n  add\n    /* \"#utility.yul\":2013:2038   */\n  gt\n    /* \"#utility.yul\":2010:2122   */\n  iszero\n  tag_48\n  jumpi\n    /* \"#utility.yul\":2041:2120   */\n  tag_49\n  tag_13\n  jump\t// in\ntag_49:\n    /* \"#utility.yul\":2010:2122   */\ntag_48:\n    /* \"#utility.yul\":2131:2183   */\n  tag_50\n    /* \"#utility.yul\":2176:2182   */\n  dup5\n    /* \"#utility.yul\":2171:2174   */\n  dup3\n    /* \"#utility.yul\":2166:2169   */\n  dup6\n    /* \"#utility.yul\":2131:2183   */\n  tag_19\n  jump\t// in\ntag_50:\n    /* \"#utility.yul\":1850:2189   */\n  pop\n    /* \"#utility.yul\":1755:2189   */\n  swap4\n  swap3\n  pop\n  pop\n  pop\n  jump\t// out\n    /* \"#utility.yul\":2209:2564   */\ntag_21:\n    /* \"#utility.yul\":2276:2281   */\n  0x00\n    /* \"#utility.yul\":2325:2328   */\n  dup3\n    /* \"#utility.yul\":2318:2322   */\n  0x1f\n    /* \"#utility.yul\":2310:2316   */\n  dup4\n    /* \"#utility.yul\":2306:2323   */\n  add\n    /* \"#utility.yul\":2302:2329   */\n  slt\n    /* \"#utility.yul\":2292:2414   */\n  tag_52\n  jumpi\n    /* \"#utility.yul\":2333:2412   */\n  tag_53\n  tag_12\n  jump\t// in\ntag_53:\n    /* \"#utility.yul\":2292:2414   */\ntag_52:\n    /* \"#utility.yul\":2443:2449   */\n  dup2\n    /* \"#utility.yul\":2437:2450   */\n  mload\n    /* \"#utility.yul\":2468:2558   */\n  tag_54\n    /* \"#utility.yul\":2554:2557   */\n  dup5\n    /* \"#utility.yul\":2546:2552   */\n  dup3\n    /* \"#utility.yul\":2539:2543   */\n  0x20\n    /* \"#utility.yul\":2531:2537   */\n  dup7\n    /* \"#utility.yul\":2527:2544   */\n  add\n    /* \"#utility.yul\":2468:2558   */\n  tag_20\n  jump\t// in\ntag_54:\n    /* \"#utility.yul\":2459:2558   */\n  swap2\n  pop\n    /* \"#utility.yul\":2282:2564   */\n  pop\n    /* \"#utility.yul\":2209:2564   */\n  swap3\n  swap2\n  pop\n  pop\n  jump\t// out\n    /* \"#utility.yul\":2570:3094   */\ntag_3:\n    /* \"#utility.yul\":2650:2656   */\n  0x00\n    /* \"#utility.yul\":2699:2701   */\n  0x20\n    /* \"#utility.yul\":2687:2696   */\n  dup3\n    /* \"#utility.yul\":2678:2685   */\n  dup5\n    /* \"#utility.yul\":2674:2697   */\n  sub\n    /* \"#utility.yul\":2670:2702   */\n  slt\n    /* \"#utility.yul\":2667:2786   */\n  iszero\n  tag_56\n  jumpi\n    /* \"#utility.yul\":2705:2784   */\n  tag_57\n  tag_10\n  jump\t// in\ntag_57:\n    /* \"#utility.yul\":2667:2786   */\ntag_56:\n    /* \"#utility.yul\":2846:2847   */\n  0x00\n    /* \"#utility.yul\":2835:2844   */\n  dup3\n    /* \"#utility.yul\":2831:2848   */\n  add\n    /* \"#utility.yul\":2825:2849   */\n  mload\n    /* \"#utility.yul\":2876:2894   */\n  0xffffffffffffffff\n    /* \"#utility.yul\":2868:2874   */\n  dup2\n    /* \"#utility.yul\":2865:2895   */\n  gt\n    /* \"#utility.yul\":2862:2979   */\n  iszero\n  tag_58\n  jumpi\n    /* \"#utility.yul\":2898:2977   */\n  tag_59\n  tag_11\n  jump\t// in\ntag_59:\n    /* \"#utility.yul\":2862:2979   */\ntag_58:\n    /* \"#utility.yul\":3003:3077   */\n  tag_60\n    /* \"#utility.yul\":3069:3076   */\n  dup5\n    /* \"#utility.yul\":3060:3066   */\n  dup3\n    /* \"#utility.yul\":3049:3058   */\n  dup6\n    /* \"#utility.yul\":3045:3067   */\n  add\n    /* \"#utility.yul\":3003:3077   */\n  tag_21\n  jump\t// in\ntag_60:\n    /* \"#utility.yul\":2993:3077   */\n  swap2\n  pop\n    /* \"#utility.yul\":2796:3087   */\n  pop\n    /* \"#utility.yul\":2570:3094   */\n  swap3\n  swap2\n  pop\n  pop\n  jump\t// out\n    /* \"#utility.yul\":3100:3199   */\ntag_22:\n    /* \"#utility.yul\":3152:3158   */\n  0x00\n    /* \"#utility.yul\":3186:3191   */\n  dup2\n    /* \"#utility.yul\":3180:3192   */\n  mload\n    /* \"#utility.yul\":3170:3192   */\n  swap1\n  pop\n    /* \"#utility.yul\":3100:3199   */\n  swap2\n  swap1\n  pop\n  jump\t// out\n    /* \"#utility.yul\":3205:3374   */\ntag_23:\n    /* \"#utility.yul\":3289:3300   */\n  0x00\n    /* \"#utility.yul\":3323:3329   */\n  dup3\n    /* \"#utility.yul\":3318:3321   */\n  dup3\n    /* \"#utility.yul\":3311:3330   */\n  mstore\n    /* \"#utility.yul\":3363:3367   */\n  0x20\n    /* \"#utility.yul\":3358:3361   */\n  dup3\n    /* \"#utility.yul\":3354:3368   */\n  add\n    /* \"#utility.yul\":3339:3368   */\n  swap1\n  pop\n    /* \"#utility.yul\":3205:3374   */\n  swap3\n  swap2\n  pop\n  pop\n  jump\t// out\n    /* \"#utility.yul\":3380:3757   */\ntag_24:\n    /* \"#utility.yul\":3468:3471   */\n  0x00\n    /* \"#utility.yul\":3496:3535   */\n  tag_64\n    /* \"#utility.yul\":3529:3534   */\n  dup3\n    /* \"#utility.yul\":3496:3535   */\n  tag_22\n  jump\t// in\ntag_64:\n    /* \"#utility.yul\":3551:3622   */\n  tag_65\n    /* \"#utility.yul\":3615:3621   */\n  dup2\n    /* \"#utility.yul\":3610:3613   */\n  dup6\n    /* \"#utility.yul\":3551:3622   */\n  tag_23\n  jump\t// in\ntag_65:\n    /* \"#utility.yul\":3544:3622   */\n  swap4\n  pop\n    /* \"#utility.yul\":3631:3696   */\n  tag_66\n    /* \"#utility.yul\":3689:3695   */\n  dup2\n    /* \"#utility.yul\":3684:3687   */\n  dup6\n    /* \"#utility.yul\":3677:3681   */\n  0x20\n    /* \"#utility.yul\":3670:3675   */\n  dup7\n    /* \"#utility.yul\":3666:3682   */\n  add\n    /* \"#utility.yul\":3631:3696   */\n  tag_19\n  jump\t// in\ntag_66:\n    /* \"#utility.yul\":3721:3750   */\n  tag_67\n    /* \"#utility.yul\":3743:3749   */\n  dup2\n    /* \"#utility.yul\":3721:3750   */\n  tag_14\n  jump\t// in\ntag_67:\n    /* \"#utility.yul\":3716:3719   */\n  dup5\n    /* \"#utility.yul\":3712:3751   */\n  add\n    /* \"#utility.yul\":3705:3751   */\n  swap2\n  pop\n    /* \"#utility.yul\":3472:3757   */\n  pop\n    /* \"#utility.yul\":3380:3757   */\n  swap3\n  swap2\n  pop\n  pop\n  jump\t// out\n    /* \"#utility.yul\":3763:4076   */\ntag_7:\n    /* \"#utility.yul\":3876:3880   */\n  0x00\n    /* \"#utility.yul\":3914:3916   */\n  0x20\n    /* \"#utility.yul\":3903:3912   */\n  dup3\n    /* \"#utility.yul\":3899:3917   */\n  add\n    /* \"#utility.yul\":3891:3917   */\n  swap1\n  pop\n    /* \"#utility.yul\":3963:3972   */\n  dup2\n    /* \"#utility.yul\":3957:3961   */\n  dup2\n    /* \"#utility.yul\":3953:3973   */\n  sub\n    /* \"#utility.yul\":3949:3950   */\n  0x00\n    /* \"#utility.yul\":3938:3947   */\n  dup4\n    /* \"#utility.yul\":3934:3951   */\n  add\n    /* \"#utility.yul\":3927:3974   */\n  mstore\n    /* \"#utility.yul\":3991:4069   */\n  tag_69\n    /* \"#utility.yul\":4064:4068   */\n  dup2\n    /* \"#utility.yul\":4055:4061   */\n  dup5\n    /* \"#utility.yul\":3991:4069   */\n  tag_24\n  jump\t// in\ntag_69:\n    /* \"#utility.yul\":3983:4069   */\n  swap1\n  pop\n    /* \"#utility.yul\":3763:4076   */\n  swap3\n  swap2\n  pop\n  pop\n  jump\t// out\n    /* \"contracts/5.video.sol\":108:2608  contract Combined {... */\ntag_8:\n  dataSize(sub_0)\n  dup1\n  dataOffset(sub_0)\n  0x00\n  codecopy\n  0x00\n  return\nstop\n\nsub_0: assembly {\n        /* \"contracts/5.video.sol\":108:2608  contract Combined {... */\n      mstore(0x40, 0x80)\n      callvalue\n      dup1\n      iszero\n      tag_1\n      jumpi\n      0x00\n      dup1\n      revert\n    tag_1:\n      pop\n      jumpi(tag_2, lt(calldatasize, 0x04))\n      shr(0xe0, calldataload(0x00))\n      dup1\n      0x62b44ce1\n      gt\n      tag_10\n      jumpi\n      dup1\n      0x62b44ce1\n      eq\n      tag_6\n      jumpi\n      dup1\n      0xa8d798ff\n      eq\n      tag_7\n      jumpi\n      dup1\n      0xc84c7205\n      eq\n      tag_8\n      jumpi\n      dup1\n      0xd9f0d049\n      eq\n      tag_9\n      jumpi\n      jump(tag_2)\n    tag_10:\n      dup1\n      0x0cf8d617\n      eq\n      tag_3\n      jumpi\n      dup1\n      0x2f41fc65\n      eq\n      tag_4\n      jumpi\n      dup1\n      0x3a7d280c\n      eq\n      tag_5\n      jumpi\n    tag_2:\n      0x00\n      dup1\n      revert\n        /* \"contracts/5.video.sol\":2338:2605  function listByWhile() public {... */\n    tag_3:\n      tag_11\n      tag_12\n      jump\t// in\n    tag_11:\n      stop\n        /* \"contracts/5.video.sol\":1284:1720  function loginStatus() public view returns (uint256) {... */\n    tag_4:\n      tag_13\n      tag_14\n      jump\t// in\n    tag_13:\n      mload(0x40)\n      tag_15\n      swap2\n      swap1\n      tag_16\n      jump\t// in\n    tag_15:\n      mload(0x40)\n      dup1\n      swap2\n      sub\n      swap1\n      return\n        /* \"contracts/5.video.sol\":839:1231  function login(string memory _password) public returns (bool) {... */\n    tag_5:\n      tag_17\n      0x04\n      dup1\n      calldatasize\n      sub\n      dup2\n      add\n      swap1\n      tag_18\n      swap2\n      swap1\n      tag_19\n      jump\t// in\n    tag_18:\n      tag_20\n      jump\t// in\n    tag_17:\n      mload(0x40)\n      tag_21\n      swap2\n      swap1\n      tag_22\n      jump\t// in\n    tag_21:\n      mload(0x40)\n      dup1\n      swap2\n      sub\n      swap1\n      return\n        /* \"contracts/5.video.sol\":489:516  uint256[15] public numbers1 */\n    tag_6:\n      tag_23\n      0x04\n      dup1\n      calldatasize\n      sub\n      dup2\n      add\n      swap1\n      tag_24\n      swap2\n      swap1\n      tag_25\n      jump\t// in\n    tag_24:\n      tag_26\n      jump\t// in\n    tag_23:\n      mload(0x40)\n      tag_27\n      swap2\n      swap1\n      tag_16\n      jump\t// in\n    tag_27:\n      mload(0x40)\n      dup1\n      swap2\n      sub\n      swap1\n      return\n        /* \"contracts/5.video.sol\":1783:2099  function listByFor() public {... */\n    tag_7:\n      tag_28\n      tag_29\n      jump\t// in\n    tag_28:\n      stop\n        /* \"contracts/5.video.sol\":414:441  uint256[15] public numbers0 */\n    tag_8:\n      tag_30\n      0x04\n      dup1\n      calldatasize\n      sub\n      dup2\n      add\n      swap1\n      tag_31\n      swap2\n      swap1\n      tag_25\n      jump\t// in\n    tag_31:\n      tag_32\n      jump\t// in\n    tag_30:\n      mload(0x40)\n      tag_33\n      swap2\n      swap1\n      tag_16\n      jump\t// in\n    tag_33:\n      mload(0x40)\n      dup1\n      swap2\n      sub\n      swap1\n      return\n        /* \"contracts/5.video.sol\":2156:2273  function getArr0() public view returns (uint256[15] memory) {... */\n    tag_9:\n      tag_34\n      tag_35\n      jump\t// in\n    tag_34:\n      mload(0x40)\n      tag_36\n      swap2\n      swap1\n      tag_37\n      jump\t// in\n    tag_36:\n      mload(0x40)\n      dup1\n      swap2\n      sub\n      swap1\n      return\n        /* \"contracts/5.video.sol\":2338:2605  function listByWhile() public {... */\n    tag_12:\n        /* \"contracts/5.video.sol\":2379:2388  uint256 i */\n      0x00\n        /* \"contracts/5.video.sol\":2436:2598  while (i < numbers1.length) {... */\n    tag_39:\n        /* \"contracts/5.video.sol\":2447:2462  numbers1.length */\n      0x0f\n        /* \"contracts/5.video.sol\":2443:2444  i */\n      dup2\n        /* \"contracts/5.video.sol\":2443:2462  i < numbers1.length */\n      lt\n        /* \"contracts/5.video.sol\":2436:2598  while (i < numbers1.length) {... */\n      iszero\n      tag_40\n      jumpi\n        /* \"contracts/5.video.sol\":2493:2494  i */\n      dup1\n        /* \"contracts/5.video.sol\":2479:2487  numbers1 */\n      0x11\n        /* \"contracts/5.video.sol\":2488:2489  i */\n      dup3\n        /* \"contracts/5.video.sol\":2479:2490  numbers1[i] */\n      0x0f\n      dup2\n      lt\n      tag_41\n      jumpi\n      tag_42\n      tag_43\n      jump\t// in\n    tag_42:\n    tag_41:\n      add\n        /* \"contracts/5.video.sol\":2479:2494  numbers1[i] = i */\n      dup2\n      swap1\n      sstore\n      pop\n        /* \"contracts/5.video.sol\":2556:2559  i++ */\n      dup1\n      dup1\n      tag_45\n      swap1\n      tag_46\n      jump\t// in\n    tag_45:\n      swap2\n      pop\n      pop\n        /* \"contracts/5.video.sol\":2436:2598  while (i < numbers1.length) {... */\n      jump(tag_39)\n    tag_40:\n        /* \"contracts/5.video.sol\":2368:2605  {... */\n      pop\n        /* \"contracts/5.video.sol\":2338:2605  function listByWhile() public {... */\n      jump\t// out\n        /* \"contracts/5.video.sol\":1284:1720  function loginStatus() public view returns (uint256) {... */\n    tag_14:\n        /* \"contracts/5.video.sol\":1328:1335  uint256 */\n      0x00\n        /* \"contracts/5.video.sol\":1366:1367  0 */\n      dup1\n        /* \"contracts/5.video.sol\":1352:1362  logincount */\n      sload(0x01)\n        /* \"contracts/5.video.sol\":1352:1367  logincount == 0 */\n      sub\n        /* \"contracts/5.video.sol\":1348:1713  if (logincount == 0) {... */\n      tag_48\n      jumpi\n        /* \"contracts/5.video.sol\":1391:1392  0 */\n      0x00\n        /* \"contracts/5.video.sol\":1384:1392  return 0 */\n      swap1\n      pop\n      jump(tag_47)\n        /* \"contracts/5.video.sol\":1348:1713  if (logincount == 0) {... */\n    tag_48:\n        /* \"contracts/5.video.sol\":1457:1458  0 */\n      0x00\n        /* \"contracts/5.video.sol\":1444:1454  logincount */\n      sload(0x01)\n        /* \"contracts/5.video.sol\":1444:1458  logincount > 0 */\n      gt\n        /* \"contracts/5.video.sol\":1444:1477  logincount > 0 && logincount != 1 */\n      dup1\n      iszero\n      tag_50\n      jumpi\n      pop\n        /* \"contracts/5.video.sol\":1476:1477  1 */\n      0x01\n        /* \"contracts/5.video.sol\":1462:1472  logincount */\n      dup1\n      sload\n        /* \"contracts/5.video.sol\":1462:1477  logincount != 1 */\n      eq\n      iszero\n        /* \"contracts/5.video.sol\":1444:1477  logincount > 0 && logincount != 1 */\n    tag_50:\n        /* \"contracts/5.video.sol\":1440:1713  if (logincount > 0 && logincount != 1) {... */\n      iszero\n      tag_51\n      jumpi\n        /* \"contracts/5.video.sol\":1501:1502  1 */\n      0x01\n        /* \"contracts/5.video.sol\":1494:1502  return 1 */\n      swap1\n      pop\n      jump(tag_47)\n        /* \"contracts/5.video.sol\":1440:1713  if (logincount > 0 && logincount != 1) {... */\n    tag_51:\n        /* \"contracts/5.video.sol\":1574:1575  1 */\n      0x01\n        /* \"contracts/5.video.sol\":1560:1570  logincount */\n      dup1\n      sload\n        /* \"contracts/5.video.sol\":1560:1575  logincount == 1 */\n      sub\n        /* \"contracts/5.video.sol\":1556:1713  if (logincount == 1) {... */\n      tag_53\n      jumpi\n        /* \"contracts/5.video.sol\":1599:1600  2 */\n      0x02\n        /* \"contracts/5.video.sol\":1592:1600  return 2 */\n      swap1\n      pop\n      jump(tag_47)\n        /* \"contracts/5.video.sol\":1556:1713  if (logincount == 1) {... */\n    tag_53:\n        /* \"contracts/5.video.sol\":1678:1679  0 */\n      0x00\n        /* \"contracts/5.video.sol\":1671:1679  return 0 */\n      swap1\n      pop\n        /* \"contracts/5.video.sol\":1284:1720  function loginStatus() public view returns (uint256) {... */\n    tag_47:\n      swap1\n      jump\t// out\n        /* \"contracts/5.video.sol\":839:1231  function login(string memory _password) public returns (bool) {... */\n    tag_20:\n        /* \"contracts/5.video.sol\":895:899  bool */\n      0x00\n        /* \"contracts/5.video.sol\":1005:1014  _password */\n      dup2\n        /* \"contracts/5.video.sol\":994:1015  abi.encode(_password) */\n      add(0x20, mload(0x40))\n      tag_56\n      swap2\n      swap1\n      tag_57\n      jump\t// in\n    tag_56:\n      mload(0x40)\n      0x20\n      dup2\n      dup4\n      sub\n      sub\n      dup2\n      mstore\n      swap1\n      0x40\n      mstore\n        /* \"contracts/5.video.sol\":984:1016  keccak256(abi.encode(_password)) */\n      dup1\n      mload\n      swap1\n      0x20\n      add\n      keccak256\n        /* \"contracts/5.video.sol\":972:980  hashcode */\n      sload(0x00)\n        /* \"contracts/5.video.sol\":972:1016  hashcode == keccak256(abi.encode(_password)) */\n      sub\n        /* \"contracts/5.video.sol\":968:1224  if (hashcode == keccak256(abi.encode(_password))) {... */\n      tag_58\n      jumpi\n        /* \"contracts/5.video.sol\":1033:1043  logincount */\n      0x01\n      0x00\n        /* \"contracts/5.video.sol\":1033:1045  logincount++ */\n      dup2\n      sload\n      dup1\n      swap3\n      swap2\n      swap1\n      tag_59\n      swap1\n      tag_46\n      jump\t// in\n    tag_59:\n      swap2\n      swap1\n      pop\n      sstore\n      pop\n        /* \"contracts/5.video.sol\":1115:1119  true */\n      0x01\n        /* \"contracts/5.video.sol\":1108:1119  return true */\n      swap1\n      pop\n      jump(tag_55)\n        /* \"contracts/5.video.sol\":968:1224  if (hashcode == keccak256(abi.encode(_password))) {... */\n    tag_58:\n        /* \"contracts/5.video.sol\":1183:1188  false */\n      0x00\n        /* \"contracts/5.video.sol\":1176:1188  return false */\n      swap1\n      pop\n        /* \"contracts/5.video.sol\":839:1231  function login(string memory _password) public returns (bool) {... */\n    tag_55:\n      swap2\n      swap1\n      pop\n      jump\t// out\n        /* \"contracts/5.video.sol\":489:516  uint256[15] public numbers1 */\n    tag_26:\n      0x11\n      dup2\n      0x0f\n      dup2\n      lt\n      tag_61\n      jumpi\n      0x00\n      dup1\n      revert\n    tag_61:\n      add\n      0x00\n      swap2\n      pop\n      swap1\n      pop\n      sload\n      dup2\n      jump\t// out\n        /* \"contracts/5.video.sol\":1783:2099  function listByFor() public {... */\n    tag_29:\n        /* \"contracts/5.video.sol\":1822:1845  uint256[15] memory nums */\n      0x00\n        /* \"contracts/5.video.sol\":1848:1856  numbers0 */\n      0x02\n        /* \"contracts/5.video.sol\":1822:1856  uint256[15] memory nums = numbers0 */\n      0x0f\n      dup1\n      0x20\n      mul\n      mload(0x40)\n      swap1\n      dup2\n      add\n      0x40\n      mstore\n      dup1\n      swap3\n      swap2\n      swap1\n      dup3\n      0x0f\n      dup1\n      iszero\n      tag_64\n      jumpi\n      0x20\n      mul\n      dup3\n      add\n      swap2\n    tag_65:\n      dup2\n      sload\n      dup2\n      mstore\n      0x20\n      add\n      swap1\n      0x01\n      add\n      swap1\n      dup1\n      dup4\n      gt\n      tag_65\n      jumpi\n    tag_64:\n      pop\n      pop\n      pop\n      pop\n      pop\n      swap1\n      pop\n        /* \"contracts/5.video.sol\":1902:1911  uint256 i */\n      0x00\n        /* \"contracts/5.video.sol\":1897:2020  for (uint256 i = 0; i < nums.length; i++) {... */\n    tag_66:\n        /* \"contracts/5.video.sol\":1921:1932  nums.length */\n      0x0f\n        /* \"contracts/5.video.sol\":1917:1918  i */\n      dup2\n        /* \"contracts/5.video.sol\":1917:1932  i < nums.length */\n      lt\n        /* \"contracts/5.video.sol\":1897:2020  for (uint256 i = 0; i < nums.length; i++) {... */\n      iszero\n      tag_67\n      jumpi\n        /* \"contracts/5.video.sol\":1968:1969  2 */\n      0x02\n        /* \"contracts/5.video.sol\":1964:1965  i */\n      dup2\n        /* \"contracts/5.video.sol\":1964:1969  i * 2 */\n      tag_69\n      swap2\n      swap1\n      tag_70\n      jump\t// in\n    tag_69:\n        /* \"contracts/5.video.sol\":1954:1958  nums */\n      dup3\n        /* \"contracts/5.video.sol\":1959:1960  i */\n      dup3\n        /* \"contracts/5.video.sol\":1954:1961  nums[i] */\n      0x0f\n      dup2\n      lt\n      tag_71\n      jumpi\n      tag_72\n      tag_43\n      jump\t// in\n    tag_72:\n    tag_71:\n      0x20\n      mul\n      add\n        /* \"contracts/5.video.sol\":1954:1969  nums[i] = i * 2 */\n      dup2\n      dup2\n      mstore\n      pop\n      pop\n        /* \"contracts/5.video.sol\":1934:1937  i++ */\n      dup1\n      dup1\n      0x01\n      add\n      swap2\n      pop\n      pop\n        /* \"contracts/5.video.sol\":1897:2020  for (uint256 i = 0; i < nums.length; i++) {... */\n      jump(tag_66)\n    tag_67:\n      pop\n        /* \"contracts/5.video.sol\":2041:2045  nums */\n      dup1\n        /* \"contracts/5.video.sol\":2030:2038  numbers0 */\n      0x02\n        /* \"contracts/5.video.sol\":2030:2045  numbers0 = nums */\n      swap1\n      0x0f\n      tag_73\n      swap3\n      swap2\n      swap1\n      tag_74\n      jump\t// in\n    tag_73:\n      pop\n        /* \"contracts/5.video.sol\":1811:2099  {... */\n      pop\n        /* \"contracts/5.video.sol\":1783:2099  function listByFor() public {... */\n      jump\t// out\n        /* \"contracts/5.video.sol\":414:441  uint256[15] public numbers0 */\n    tag_32:\n      0x02\n      dup2\n      0x0f\n      dup2\n      lt\n      tag_75\n      jumpi\n      0x00\n      dup1\n      revert\n    tag_75:\n      add\n      0x00\n      swap2\n      pop\n      swap1\n      pop\n      sload\n      dup2\n      jump\t// out\n        /* \"contracts/5.video.sol\":2156:2273  function getArr0() public view returns (uint256[15] memory) {... */\n    tag_35:\n        /* \"contracts/5.video.sol\":2196:2214  uint256[15] memory */\n      tag_77\n      tag_78\n      jump\t// in\n    tag_77:\n        /* \"contracts/5.video.sol\":2234:2242  numbers0 */\n      0x02\n        /* \"contracts/5.video.sol\":2227:2242  return numbers0 */\n      0x0f\n      dup1\n      0x20\n      mul\n      mload(0x40)\n      swap1\n      dup2\n      add\n      0x40\n      mstore\n      dup1\n      swap3\n      swap2\n      swap1\n      dup3\n      0x0f\n      dup1\n      iszero\n      tag_80\n      jumpi\n      0x20\n      mul\n      dup3\n      add\n      swap2\n    tag_81:\n      dup2\n      sload\n      dup2\n      mstore\n      0x20\n      add\n      swap1\n      0x01\n      add\n      swap1\n      dup1\n      dup4\n      gt\n      tag_81\n      jumpi\n    tag_80:\n      pop\n      pop\n      pop\n      pop\n      pop\n      swap1\n      pop\n        /* \"contracts/5.video.sol\":2156:2273  function getArr0() public view returns (uint256[15] memory) {... */\n      swap1\n      jump\t// out\n    tag_74:\n      dup3\n      0x0f\n      dup2\n      add\n      swap3\n      dup3\n      iszero\n      tag_82\n      jumpi\n      swap2\n      0x20\n      mul\n      dup3\n      add\n    tag_83:\n      dup3\n      dup2\n      gt\n      iszero\n      tag_84\n      jumpi\n      dup3\n      mload\n      dup3\n      sstore\n      swap2\n      0x20\n      add\n      swap2\n      swap1\n      0x01\n      add\n      swap1\n      jump(tag_83)\n    tag_84:\n    tag_82:\n      pop\n      swap1\n      pop\n      tag_85\n      swap2\n      swap1\n      tag_86\n      jump\t// in\n    tag_85:\n      pop\n      swap1\n      jump\t// out\n    tag_78:\n      mload(0x40)\n      dup1\n      0x01e0\n      add\n      0x40\n      mstore\n      dup1\n      0x0f\n      swap1\n      0x20\n      dup3\n      mul\n      dup1\n      calldatasize\n      dup4\n      calldatacopy\n      dup1\n      dup3\n      add\n      swap2\n      pop\n      pop\n      swap1\n      pop\n      pop\n      swap1\n      jump\t// out\n    tag_86:\n    tag_87:\n      dup1\n      dup3\n      gt\n      iszero\n      tag_88\n      jumpi\n      0x00\n      dup2\n      0x00\n      swap1\n      sstore\n      pop\n      0x01\n      add\n      jump(tag_87)\n    tag_88:\n      pop\n      swap1\n      jump\t// out\n        /* \"#utility.yul\":7:84   */\n    tag_89:\n        /* \"#utility.yul\":44:51   */\n      0x00\n        /* \"#utility.yul\":73:78   */\n      dup2\n        /* \"#utility.yul\":62:78   */\n      swap1\n      pop\n        /* \"#utility.yul\":7:84   */\n      swap2\n      swap1\n      pop\n      jump\t// out\n        /* \"#utility.yul\":90:208   */\n    tag_90:\n        /* \"#utility.yul\":177:201   */\n      tag_123\n        /* \"#utility.yul\":195:200   */\n      dup2\n        /* \"#utility.yul\":177:201   */\n      tag_89\n      jump\t// in\n    tag_123:\n        /* \"#utility.yul\":172:175   */\n      dup3\n        /* \"#utility.yul\":165:202   */\n      mstore\n        /* \"#utility.yul\":90:208   */\n      pop\n      pop\n      jump\t// out\n        /* \"#utility.yul\":214:436   */\n    tag_16:\n        /* \"#utility.yul\":307:311   */\n      0x00\n        /* \"#utility.yul\":345:347   */\n      0x20\n        /* \"#utility.yul\":334:343   */\n      dup3\n        /* \"#utility.yul\":330:348   */\n      add\n        /* \"#utility.yul\":322:348   */\n      swap1\n      pop\n        /* \"#utility.yul\":358:429   */\n      tag_125\n        /* \"#utility.yul\":426:427   */\n      0x00\n        /* \"#utility.yul\":415:424   */\n      dup4\n        /* \"#utility.yul\":411:428   */\n      add\n        /* \"#utility.yul\":402:408   */\n      dup5\n        /* \"#utility.yul\":358:429   */\n      tag_90\n      jump\t// in\n    tag_125:\n        /* \"#utility.yul\":214:436   */\n      swap3\n      swap2\n      pop\n      pop\n      jump\t// out\n        /* \"#utility.yul\":442:517   */\n    tag_91:\n        /* \"#utility.yul\":475:481   */\n      0x00\n        /* \"#utility.yul\":508:510   */\n      0x40\n        /* \"#utility.yul\":502:511   */\n      mload\n        /* \"#utility.yul\":492:511   */\n      swap1\n      pop\n        /* \"#utility.yul\":442:517   */\n      swap1\n      jump\t// out\n        /* \"#utility.yul\":523:640   */\n    tag_92:\n        /* \"#utility.yul\":632:633   */\n      0x00\n        /* \"#utility.yul\":629:630   */\n      dup1\n        /* \"#utility.yul\":622:634   */\n      revert\n        /* \"#utility.yul\":646:763   */\n    tag_93:\n        /* \"#utility.yul\":755:756   */\n      0x00\n        /* \"#utility.yul\":752:753   */\n      dup1\n        /* \"#utility.yul\":745:757   */\n      revert\n        /* \"#utility.yul\":769:886   */\n    tag_94:\n        /* \"#utility.yul\":878:879   */\n      0x00\n        /* \"#utility.yul\":875:876   */\n      dup1\n        /* \"#utility.yul\":868:880   */\n      revert\n        /* \"#utility.yul\":892:1009   */\n    tag_95:\n        /* \"#utility.yul\":1001:1002   */\n      0x00\n        /* \"#utility.yul\":998:999   */\n      dup1\n        /* \"#utility.yul\":991:1003   */\n      revert\n        /* \"#utility.yul\":1015:1117   */\n    tag_96:\n        /* \"#utility.yul\":1056:1062   */\n      0x00\n        /* \"#utility.yul\":1107:1109   */\n      0x1f\n        /* \"#utility.yul\":1103:1110   */\n      not\n        /* \"#utility.yul\":1098:1100   */\n      0x1f\n        /* \"#utility.yul\":1091:1096   */\n      dup4\n        /* \"#utility.yul\":1087:1101   */\n      add\n        /* \"#utility.yul\":1083:1111   */\n      and\n        /* \"#utility.yul\":1073:1111   */\n      swap1\n      pop\n        /* \"#utility.yul\":1015:1117   */\n      swap2\n      swap1\n      pop\n      jump\t// out\n        /* \"#utility.yul\":1123:1303   */\n    tag_97:\n        /* \"#utility.yul\":1171:1248   */\n      0x4e487b7100000000000000000000000000000000000000000000000000000000\n        /* \"#utility.yul\":1168:1169   */\n      0x00\n        /* \"#utility.yul\":1161:1249   */\n      mstore\n        /* \"#utility.yul\":1268:1272   */\n      0x41\n        /* \"#utility.yul\":1265:1266   */\n      0x04\n        /* \"#utility.yul\":1258:1273   */\n      mstore\n        /* \"#utility.yul\":1292:1296   */\n      0x24\n        /* \"#utility.yul\":1289:1290   */\n      0x00\n        /* \"#utility.yul\":1282:1297   */\n      revert\n        /* \"#utility.yul\":1309:1590   */\n    tag_98:\n        /* \"#utility.yul\":1392:1419   */\n      tag_134\n        /* \"#utility.yul\":1414:1418   */\n      dup3\n        /* \"#utility.yul\":1392:1419   */\n      tag_96\n      jump\t// in\n    tag_134:\n        /* \"#utility.yul\":1384:1390   */\n      dup2\n        /* \"#utility.yul\":1380:1420   */\n      add\n        /* \"#utility.yul\":1522:1528   */\n      dup2\n        /* \"#utility.yul\":1510:1520   */\n      dup2\n        /* \"#utility.yul\":1507:1529   */\n      lt\n        /* \"#utility.yul\":1486:1504   */\n      0xffffffffffffffff\n        /* \"#utility.yul\":1474:1484   */\n      dup3\n        /* \"#utility.yul\":1471:1505   */\n      gt\n        /* \"#utility.yul\":1468:1530   */\n      or\n        /* \"#utility.yul\":1465:1553   */\n      iszero\n      tag_135\n      jumpi\n        /* \"#utility.yul\":1533:1551   */\n      tag_136\n      tag_97\n      jump\t// in\n    tag_136:\n        /* \"#utility.yul\":1465:1553   */\n    tag_135:\n        /* \"#utility.yul\":1573:1583   */\n      dup1\n        /* \"#utility.yul\":1569:1571   */\n      0x40\n        /* \"#utility.yul\":1562:1584   */\n      mstore\n        /* \"#utility.yul\":1352:1590   */\n      pop\n        /* \"#utility.yul\":1309:1590   */\n      pop\n      pop\n      jump\t// out\n        /* \"#utility.yul\":1596:1725   */\n    tag_99:\n        /* \"#utility.yul\":1630:1636   */\n      0x00\n        /* \"#utility.yul\":1657:1677   */\n      tag_138\n      tag_91\n      jump\t// in\n    tag_138:\n        /* \"#utility.yul\":1647:1677   */\n      swap1\n      pop\n        /* \"#utility.yul\":1686:1719   */\n      tag_139\n        /* \"#utility.yul\":1714:1718   */\n      dup3\n        /* \"#utility.yul\":1706:1712   */\n      dup3\n        /* \"#utility.yul\":1686:1719   */\n      tag_98\n      jump\t// in\n    tag_139:\n        /* \"#utility.yul\":1596:1725   */\n      swap2\n      swap1\n      pop\n      jump\t// out\n        /* \"#utility.yul\":1731:2039   */\n    tag_100:\n        /* \"#utility.yul\":1793:1797   */\n      0x00\n        /* \"#utility.yul\":1883:1901   */\n      0xffffffffffffffff\n        /* \"#utility.yul\":1875:1881   */\n      dup3\n        /* \"#utility.yul\":1872:1902   */\n      gt\n        /* \"#utility.yul\":1869:1925   */\n      iszero\n      tag_141\n      jumpi\n        /* \"#utility.yul\":1905:1923   */\n      tag_142\n      tag_97\n      jump\t// in\n    tag_142:\n        /* \"#utility.yul\":1869:1925   */\n    tag_141:\n        /* \"#utility.yul\":1943:1972   */\n      tag_143\n        /* \"#utility.yul\":1965:1971   */\n      dup3\n        /* \"#utility.yul\":1943:1972   */\n      tag_96\n      jump\t// in\n    tag_143:\n        /* \"#utility.yul\":1935:1972   */\n      swap1\n      pop\n        /* \"#utility.yul\":2027:2031   */\n      0x20\n        /* \"#utility.yul\":2021:2025   */\n      dup2\n        /* \"#utility.yul\":2017:2032   */\n      add\n        /* \"#utility.yul\":2009:2032   */\n      swap1\n      pop\n        /* \"#utility.yul\":1731:2039   */\n      swap2\n      swap1\n      pop\n      jump\t// out\n        /* \"#utility.yul\":2045:2193   */\n    tag_101:\n        /* \"#utility.yul\":2143:2149   */\n      dup3\n        /* \"#utility.yul\":2138:2141   */\n      dup2\n        /* \"#utility.yul\":2133:2136   */\n      dup4\n        /* \"#utility.yul\":2120:2150   */\n      calldatacopy\n        /* \"#utility.yul\":2184:2185   */\n      0x00\n        /* \"#utility.yul\":2175:2181   */\n      dup4\n        /* \"#utility.yul\":2170:2173   */\n      dup4\n        /* \"#utility.yul\":2166:2182   */\n      add\n        /* \"#utility.yul\":2159:2186   */\n      mstore\n        /* \"#utility.yul\":2045:2193   */\n      pop\n      pop\n      pop\n      jump\t// out\n        /* \"#utility.yul\":2199:2624   */\n    tag_102:\n        /* \"#utility.yul\":2277:2282   */\n      0x00\n        /* \"#utility.yul\":2302:2368   */\n      tag_146\n        /* \"#utility.yul\":2318:2367   */\n      tag_147\n        /* \"#utility.yul\":2360:2366   */\n      dup5\n        /* \"#utility.yul\":2318:2367   */\n      tag_100\n      jump\t// in\n    tag_147:\n        /* \"#utility.yul\":2302:2368   */\n      tag_99\n      jump\t// in\n    tag_146:\n        /* \"#utility.yul\":2293:2368   */\n      swap1\n      pop\n        /* \"#utility.yul\":2391:2397   */\n      dup3\n        /* \"#utility.yul\":2384:2389   */\n      dup2\n        /* \"#utility.yul\":2377:2398   */\n      mstore\n        /* \"#utility.yul\":2429:2433   */\n      0x20\n        /* \"#utility.yul\":2422:2427   */\n      dup2\n        /* \"#utility.yul\":2418:2434   */\n      add\n        /* \"#utility.yul\":2467:2470   */\n      dup5\n        /* \"#utility.yul\":2458:2464   */\n      dup5\n        /* \"#utility.yul\":2453:2456   */\n      dup5\n        /* \"#utility.yul\":2449:2465   */\n      add\n        /* \"#utility.yul\":2446:2471   */\n      gt\n        /* \"#utility.yul\":2443:2555   */\n      iszero\n      tag_148\n      jumpi\n        /* \"#utility.yul\":2474:2553   */\n      tag_149\n      tag_95\n      jump\t// in\n    tag_149:\n        /* \"#utility.yul\":2443:2555   */\n    tag_148:\n        /* \"#utility.yul\":2564:2618   */\n      tag_150\n        /* \"#utility.yul\":2611:2617   */\n      dup5\n        /* \"#utility.yul\":2606:2609   */\n      dup3\n        /* \"#utility.yul\":2601:2604   */\n      dup6\n        /* \"#utility.yul\":2564:2618   */\n      tag_101\n      jump\t// in\n    tag_150:\n        /* \"#utility.yul\":2283:2624   */\n      pop\n        /* \"#utility.yul\":2199:2624   */\n      swap4\n      swap3\n      pop\n      pop\n      pop\n      jump\t// out\n        /* \"#utility.yul\":2644:2984   */\n    tag_103:\n        /* \"#utility.yul\":2700:2705   */\n      0x00\n        /* \"#utility.yul\":2749:2752   */\n      dup3\n        /* \"#utility.yul\":2742:2746   */\n      0x1f\n        /* \"#utility.yul\":2734:2740   */\n      dup4\n        /* \"#utility.yul\":2730:2747   */\n      add\n        /* \"#utility.yul\":2726:2753   */\n      slt\n        /* \"#utility.yul\":2716:2838   */\n      tag_152\n      jumpi\n        /* \"#utility.yul\":2757:2836   */\n      tag_153\n      tag_94\n      jump\t// in\n    tag_153:\n        /* \"#utility.yul\":2716:2838   */\n    tag_152:\n        /* \"#utility.yul\":2874:2880   */\n      dup2\n        /* \"#utility.yul\":2861:2881   */\n      calldataload\n        /* \"#utility.yul\":2899:2978   */\n      tag_154\n        /* \"#utility.yul\":2974:2977   */\n      dup5\n        /* \"#utility.yul\":2966:2972   */\n      dup3\n        /* \"#utility.yul\":2959:2963   */\n      0x20\n        /* \"#utility.yul\":2951:2957   */\n      dup7\n        /* \"#utility.yul\":2947:2964   */\n      add\n        /* \"#utility.yul\":2899:2978   */\n      tag_102\n      jump\t// in\n    tag_154:\n        /* \"#utility.yul\":2890:2978   */\n      swap2\n      pop\n        /* \"#utility.yul\":2706:2984   */\n      pop\n        /* \"#utility.yul\":2644:2984   */\n      swap3\n      swap2\n      pop\n      pop\n      jump\t// out\n        /* \"#utility.yul\":2990:3499   */\n    tag_19:\n        /* \"#utility.yul\":3059:3065   */\n      0x00\n        /* \"#utility.yul\":3108:3110   */\n      0x20\n        /* \"#utility.yul\":3096:3105   */\n      dup3\n        /* \"#utility.yul\":3087:3094   */\n      dup5\n        /* \"#utility.yul\":3083:3106   */\n      sub\n        /* \"#utility.yul\":3079:3111   */\n      slt\n        /* \"#utility.yul\":3076:3195   */\n      iszero\n      tag_156\n      jumpi\n        /* \"#utility.yul\":3114:3193   */\n      tag_157\n      tag_92\n      jump\t// in\n    tag_157:\n        /* \"#utility.yul\":3076:3195   */\n    tag_156:\n        /* \"#utility.yul\":3262:3263   */\n      0x00\n        /* \"#utility.yul\":3251:3260   */\n      dup3\n        /* \"#utility.yul\":3247:3264   */\n      add\n        /* \"#utility.yul\":3234:3265   */\n      calldataload\n        /* \"#utility.yul\":3292:3310   */\n      0xffffffffffffffff\n        /* \"#utility.yul\":3284:3290   */\n      dup2\n        /* \"#utility.yul\":3281:3311   */\n      gt\n        /* \"#utility.yul\":3278:3395   */\n      iszero\n      tag_158\n      jumpi\n        /* \"#utility.yul\":3314:3393   */\n      tag_159\n      tag_93\n      jump\t// in\n    tag_159:\n        /* \"#utility.yul\":3278:3395   */\n    tag_158:\n        /* \"#utility.yul\":3419:3482   */\n      tag_160\n        /* \"#utility.yul\":3474:3481   */\n      dup5\n        /* \"#utility.yul\":3465:3471   */\n      dup3\n        /* \"#utility.yul\":3454:3463   */\n      dup6\n        /* \"#utility.yul\":3450:3472   */\n      add\n        /* \"#utility.yul\":3419:3482   */\n      tag_103\n      jump\t// in\n    tag_160:\n        /* \"#utility.yul\":3409:3482   */\n      swap2\n      pop\n        /* \"#utility.yul\":3205:3492   */\n      pop\n        /* \"#utility.yul\":2990:3499   */\n      swap3\n      swap2\n      pop\n      pop\n      jump\t// out\n        /* \"#utility.yul\":3505:3595   */\n    tag_104:\n        /* \"#utility.yul\":3539:3546   */\n      0x00\n        /* \"#utility.yul\":3582:3587   */\n      dup2\n        /* \"#utility.yul\":3575:3588   */\n      iszero\n        /* \"#utility.yul\":3568:3589   */\n      iszero\n        /* \"#utility.yul\":3557:3589   */\n      swap1\n      pop\n        /* \"#utility.yul\":3505:3595   */\n      swap2\n      swap1\n      pop\n      jump\t// out\n        /* \"#utility.yul\":3601:3710   */\n    tag_105:\n        /* \"#utility.yul\":3682:3703   */\n      tag_163\n        /* \"#utility.yul\":3697:3702   */\n      dup2\n        /* \"#utility.yul\":3682:3703   */\n      tag_104\n      jump\t// in\n    tag_163:\n        /* \"#utility.yul\":3677:3680   */\n      dup3\n        /* \"#utility.yul\":3670:3704   */\n      mstore\n        /* \"#utility.yul\":3601:3710   */\n      pop\n      pop\n      jump\t// out\n        /* \"#utility.yul\":3716:3926   */\n    tag_22:\n        /* \"#utility.yul\":3803:3807   */\n      0x00\n        /* \"#utility.yul\":3841:3843   */\n      0x20\n        /* \"#utility.yul\":3830:3839   */\n      dup3\n        /* \"#utility.yul\":3826:3844   */\n      add\n        /* \"#utility.yul\":3818:3844   */\n      swap1\n      pop\n        /* \"#utility.yul\":3854:3919   */\n      tag_165\n        /* \"#utility.yul\":3916:3917   */\n      0x00\n        /* \"#utility.yul\":3905:3914   */\n      dup4\n        /* \"#utility.yul\":3901:3918   */\n      add\n        /* \"#utility.yul\":3892:3898   */\n      dup5\n        /* \"#utility.yul\":3854:3919   */\n      tag_105\n      jump\t// in\n    tag_165:\n        /* \"#utility.yul\":3716:3926   */\n      swap3\n      swap2\n      pop\n      pop\n      jump\t// out\n        /* \"#utility.yul\":3932:4054   */\n    tag_106:\n        /* \"#utility.yul\":4005:4029   */\n      tag_167\n        /* \"#utility.yul\":4023:4028   */\n      dup2\n        /* \"#utility.yul\":4005:4029   */\n      tag_89\n      jump\t// in\n    tag_167:\n        /* \"#utility.yul\":3998:4003   */\n      dup2\n        /* \"#utility.yul\":3995:4030   */\n      eq\n        /* \"#utility.yul\":3985:4048   */\n      tag_168\n      jumpi\n        /* \"#utility.yul\":4044:4045   */\n      0x00\n        /* \"#utility.yul\":4041:4042   */\n      dup1\n        /* \"#utility.yul\":4034:4046   */\n      revert\n        /* \"#utility.yul\":3985:4048   */\n    tag_168:\n        /* \"#utility.yul\":3932:4054   */\n      pop\n      jump\t// out\n        /* \"#utility.yul\":4060:4199   */\n    tag_107:\n        /* \"#utility.yul\":4106:4111   */\n      0x00\n        /* \"#utility.yul\":4144:4150   */\n      dup2\n        /* \"#utility.yul\":4131:4151   */\n      calldataload\n        /* \"#utility.yul\":4122:4151   */\n      swap1\n      pop\n        /* \"#utility.yul\":4160:4193   */\n      tag_170\n        /* \"#utility.yul\":4187:4192   */\n      dup2\n        /* \"#utility.yul\":4160:4193   */\n      tag_106\n      jump\t// in\n    tag_170:\n        /* \"#utility.yul\":4060:4199   */\n      swap3\n      swap2\n      pop\n      pop\n      jump\t// out\n        /* \"#utility.yul\":4205:4534   */\n    tag_25:\n        /* \"#utility.yul\":4264:4270   */\n      0x00\n        /* \"#utility.yul\":4313:4315   */\n      0x20\n        /* \"#utility.yul\":4301:4310   */\n      dup3\n        /* \"#utility.yul\":4292:4299   */\n      dup5\n        /* \"#utility.yul\":4288:4311   */\n      sub\n        /* \"#utility.yul\":4284:4316   */\n      slt\n        /* \"#utility.yul\":4281:4400   */\n      iszero\n      tag_172\n      jumpi\n        /* \"#utility.yul\":4319:4398   */\n      tag_173\n      tag_92\n      jump\t// in\n    tag_173:\n        /* \"#utility.yul\":4281:4400   */\n    tag_172:\n        /* \"#utility.yul\":4439:4440   */\n      0x00\n        /* \"#utility.yul\":4464:4517   */\n      tag_174\n        /* \"#utility.yul\":4509:4516   */\n      dup5\n        /* \"#utility.yul\":4500:4506   */\n      dup3\n        /* \"#utility.yul\":4489:4498   */\n      dup6\n        /* \"#utility.yul\":4485:4507   */\n      add\n        /* \"#utility.yul\":4464:4517   */\n      tag_107\n      jump\t// in\n    tag_174:\n        /* \"#utility.yul\":4454:4517   */\n      swap2\n      pop\n        /* \"#utility.yul\":4410:4527   */\n      pop\n        /* \"#utility.yul\":4205:4534   */\n      swap3\n      swap2\n      pop\n      pop\n      jump\t// out\n        /* \"#utility.yul\":4540:4645   */\n    tag_108:\n        /* \"#utility.yul\":4606:4612   */\n      0x00\n        /* \"#utility.yul\":4634:4638   */\n      0x0f\n        /* \"#utility.yul\":4624:4638   */\n      swap1\n      pop\n        /* \"#utility.yul\":4540:4645   */\n      swap2\n      swap1\n      pop\n      jump\t// out\n        /* \"#utility.yul\":4651:4795   */\n    tag_109:\n        /* \"#utility.yul\":4749:4760   */\n      0x00\n        /* \"#utility.yul\":4786:4789   */\n      dup2\n        /* \"#utility.yul\":4771:4789   */\n      swap1\n      pop\n        /* \"#utility.yul\":4651:4795   */\n      swap3\n      swap2\n      pop\n      pop\n      jump\t// out\n        /* \"#utility.yul\":4801:4900   */\n    tag_110:\n        /* \"#utility.yul\":4867:4871   */\n      0x00\n        /* \"#utility.yul\":4890:4893   */\n      dup2\n        /* \"#utility.yul\":4882:4893   */\n      swap1\n      pop\n        /* \"#utility.yul\":4801:4900   */\n      swap2\n      swap1\n      pop\n      jump\t// out\n        /* \"#utility.yul\":4906:5014   */\n    tag_111:\n        /* \"#utility.yul\":4983:5007   */\n      tag_179\n        /* \"#utility.yul\":5001:5006   */\n      dup2\n        /* \"#utility.yul\":4983:5007   */\n      tag_89\n      jump\t// in\n    tag_179:\n        /* \"#utility.yul\":4978:4981   */\n      dup3\n        /* \"#utility.yul\":4971:5008   */\n      mstore\n        /* \"#utility.yul\":4906:5014   */\n      pop\n      pop\n      jump\t// out\n        /* \"#utility.yul\":5020:5199   */\n    tag_112:\n        /* \"#utility.yul\":5089:5099   */\n      0x00\n        /* \"#utility.yul\":5110:5156   */\n      tag_181\n        /* \"#utility.yul\":5152:5155   */\n      dup4\n        /* \"#utility.yul\":5144:5150   */\n      dup4\n        /* \"#utility.yul\":5110:5156   */\n      tag_111\n      jump\t// in\n    tag_181:\n        /* \"#utility.yul\":5188:5192   */\n      0x20\n        /* \"#utility.yul\":5183:5186   */\n      dup4\n        /* \"#utility.yul\":5179:5193   */\n      add\n        /* \"#utility.yul\":5165:5193   */\n      swap1\n      pop\n        /* \"#utility.yul\":5020:5199   */\n      swap3\n      swap2\n      pop\n      pop\n      jump\t// out\n        /* \"#utility.yul\":5205:5317   */\n    tag_113:\n        /* \"#utility.yul\":5274:5278   */\n      0x00\n        /* \"#utility.yul\":5306:5310   */\n      0x20\n        /* \"#utility.yul\":5301:5304   */\n      dup3\n        /* \"#utility.yul\":5297:5311   */\n      add\n        /* \"#utility.yul\":5289:5311   */\n      swap1\n      pop\n        /* \"#utility.yul\":5205:5317   */\n      swap2\n      swap1\n      pop\n      jump\t// out\n        /* \"#utility.yul\":5357:6057   */\n    tag_114:\n        /* \"#utility.yul\":5495:5548   */\n      tag_184\n        /* \"#utility.yul\":5542:5547   */\n      dup2\n        /* \"#utility.yul\":5495:5548   */\n      tag_108\n      jump\t// in\n    tag_184:\n        /* \"#utility.yul\":5564:5649   */\n      tag_185\n        /* \"#utility.yul\":5642:5648   */\n      dup2\n        /* \"#utility.yul\":5637:5640   */\n      dup5\n        /* \"#utility.yul\":5564:5649   */\n      tag_109\n      jump\t// in\n    tag_185:\n        /* \"#utility.yul\":5557:5649   */\n      swap3\n      pop\n        /* \"#utility.yul\":5673:5728   */\n      tag_186\n        /* \"#utility.yul\":5722:5727   */\n      dup3\n        /* \"#utility.yul\":5673:5728   */\n      tag_110\n      jump\t// in\n    tag_186:\n        /* \"#utility.yul\":5751:5758   */\n      dup1\n        /* \"#utility.yul\":5782:5783   */\n      0x00\n        /* \"#utility.yul\":5767:6050   */\n    tag_187:\n        /* \"#utility.yul\":5792:5798   */\n      dup4\n        /* \"#utility.yul\":5789:5790   */\n      dup2\n        /* \"#utility.yul\":5786:5799   */\n      lt\n        /* \"#utility.yul\":5767:6050   */\n      iszero\n      tag_189\n      jumpi\n        /* \"#utility.yul\":5868:5874   */\n      dup2\n        /* \"#utility.yul\":5862:5875   */\n      mload\n        /* \"#utility.yul\":5895:5958   */\n      tag_190\n        /* \"#utility.yul\":5954:5957   */\n      dup8\n        /* \"#utility.yul\":5939:5952   */\n      dup3\n        /* \"#utility.yul\":5895:5958   */\n      tag_112\n      jump\t// in\n    tag_190:\n        /* \"#utility.yul\":5888:5958   */\n      swap7\n      pop\n        /* \"#utility.yul\":5981:6040   */\n      tag_191\n        /* \"#utility.yul\":6033:6039   */\n      dup4\n        /* \"#utility.yul\":5981:6040   */\n      tag_113\n      jump\t// in\n    tag_191:\n        /* \"#utility.yul\":5971:6040   */\n      swap3\n      pop\n        /* \"#utility.yul\":5827:6050   */\n      pop\n        /* \"#utility.yul\":5814:5815   */\n      0x01\n        /* \"#utility.yul\":5811:5812   */\n      dup2\n        /* \"#utility.yul\":5807:5816   */\n      add\n        /* \"#utility.yul\":5802:5816   */\n      swap1\n      pop\n        /* \"#utility.yul\":5767:6050   */\n      jump(tag_187)\n    tag_189:\n        /* \"#utility.yul\":5771:5785   */\n      pop\n        /* \"#utility.yul\":5471:6057   */\n      pop\n      pop\n      pop\n        /* \"#utility.yul\":5357:6057   */\n      pop\n      pop\n      jump\t// out\n        /* \"#utility.yul\":6063:6382   */\n    tag_37:\n        /* \"#utility.yul\":6204:6208   */\n      0x00\n        /* \"#utility.yul\":6242:6245   */\n      0x01e0\n        /* \"#utility.yul\":6231:6240   */\n      dup3\n        /* \"#utility.yul\":6227:6246   */\n      add\n        /* \"#utility.yul\":6219:6246   */\n      swap1\n      pop\n        /* \"#utility.yul\":6256:6375   */\n      tag_193\n        /* \"#utility.yul\":6372:6373   */\n      0x00\n        /* \"#utility.yul\":6361:6370   */\n      dup4\n        /* \"#utility.yul\":6357:6374   */\n      add\n        /* \"#utility.yul\":6348:6354   */\n      dup5\n        /* \"#utility.yul\":6256:6375   */\n      tag_114\n      jump\t// in\n    tag_193:\n        /* \"#utility.yul\":6063:6382   */\n      swap3\n      swap2\n      pop\n      pop\n      jump\t// out\n        /* \"#utility.yul\":6388:6568   */\n    tag_43:\n        /* \"#utility.yul\":6436:6513   */\n      0x4e487b7100000000000000000000000000000000000000000000000000000000\n        /* \"#utility.yul\":6433:6434   */\n      0x00\n        /* \"#utility.yul\":6426:6514   */\n      mstore\n        /* \"#utility.yul\":6533:6537   */\n      0x32\n        /* \"#utility.yul\":6530:6531   */\n      0x04\n        /* \"#utility.yul\":6523:6538   */\n      mstore\n        /* \"#utility.yul\":6557:6561   */\n      0x24\n        /* \"#utility.yul\":6554:6555   */\n      0x00\n        /* \"#utility.yul\":6547:6562   */\n      revert\n        /* \"#utility.yul\":6574:6754   */\n    tag_115:\n        /* \"#utility.yul\":6622:6699   */\n      0x4e487b7100000000000000000000000000000000000000000000000000000000\n        /* \"#utility.yul\":6619:6620   */\n      0x00\n        /* \"#utility.yul\":6612:6700   */\n      mstore\n        /* \"#utility.yul\":6719:6723   */\n      0x11\n        /* \"#utility.yul\":6716:6717   */\n      0x04\n        /* \"#utility.yul\":6709:6724   */\n      mstore\n        /* \"#utility.yul\":6743:6747   */\n      0x24\n        /* \"#utility.yul\":6740:6741   */\n      0x00\n        /* \"#utility.yul\":6733:6748   */\n      revert\n        /* \"#utility.yul\":6760:6993   */\n    tag_46:\n        /* \"#utility.yul\":6799:6802   */\n      0x00\n        /* \"#utility.yul\":6822:6846   */\n      tag_197\n        /* \"#utility.yul\":6840:6845   */\n      dup3\n        /* \"#utility.yul\":6822:6846   */\n      tag_89\n      jump\t// in\n    tag_197:\n        /* \"#utility.yul\":6813:6846   */\n      swap2\n      pop\n        /* \"#utility.yul\":6868:6934   */\n      0xffffffffffffffffffffffffffffffffffffffffffffffffffffffffffffffff\n        /* \"#utility.yul\":6861:6866   */\n      dup3\n        /* \"#utility.yul\":6858:6935   */\n      sub\n        /* \"#utility.yul\":6855:6958   */\n      tag_198\n      jumpi\n        /* \"#utility.yul\":6938:6956   */\n      tag_199\n      tag_115\n      jump\t// in\n    tag_199:\n        /* \"#utility.yul\":6855:6958   */\n    tag_198:\n        /* \"#utility.yul\":6985:6986   */\n      0x01\n        /* \"#utility.yul\":6978:6983   */\n      dup3\n        /* \"#utility.yul\":6974:6987   */\n      add\n        /* \"#utility.yul\":6967:6987   */\n      swap1\n      pop\n        /* \"#utility.yul\":6760:6993   */\n      swap2\n      swap1\n      pop\n      jump\t// out\n        /* \"#utility.yul\":6999:7098   */\n    tag_116:\n        /* \"#utility.yul\":7051:7057   */\n      0x00\n        /* \"#utility.yul\":7085:7090   */\n      dup2\n        /* \"#utility.yul\":7079:7091   */\n      mload\n        /* \"#utility.yul\":7069:7091   */\n      swap1\n      pop\n        /* \"#utility.yul\":6999:7098   */\n      swap2\n      swap1\n      pop\n      jump\t// out\n        /* \"#utility.yul\":7104:7273   */\n    tag_117:\n        /* \"#utility.yul\":7188:7199   */\n      0x00\n        /* \"#utility.yul\":7222:7228   */\n      dup3\n        /* \"#utility.yul\":7217:7220   */\n      dup3\n        /* \"#utility.yul\":7210:7229   */\n      mstore\n        /* \"#utility.yul\":7262:7266   */\n      0x20\n        /* \"#utility.yul\":7257:7260   */\n      dup3\n        /* \"#utility.yul\":7253:7267   */\n      add\n        /* \"#utility.yul\":7238:7267   */\n      swap1\n      pop\n        /* \"#utility.yul\":7104:7273   */\n      swap3\n      swap2\n      pop\n      pop\n      jump\t// out\n        /* \"#utility.yul\":7279:7418   */\n    tag_118:\n        /* \"#utility.yul\":7368:7374   */\n      dup3\n        /* \"#utility.yul\":7363:7366   */\n      dup2\n        /* \"#utility.yul\":7358:7361   */\n      dup4\n        /* \"#utility.yul\":7352:7375   */\n      mcopy\n        /* \"#utility.yul\":7409:7410   */\n      0x00\n        /* \"#utility.yul\":7400:7406   */\n      dup4\n        /* \"#utility.yul\":7395:7398   */\n      dup4\n        /* \"#utility.yul\":7391:7407   */\n      add\n        /* \"#utility.yul\":7384:7411   */\n      mstore\n        /* \"#utility.yul\":7279:7418   */\n      pop\n      pop\n      pop\n      jump\t// out\n        /* \"#utility.yul\":7424:7801   */\n    tag_119:\n        /* \"#utility.yul\":7512:7515   */\n      0x00\n        /* \"#utility.yul\":7540:7579   */\n      tag_204\n        /* \"#utility.yul\":7573:7578   */\n      dup3\n        /* \"#utility.yul\":7540:7579   */\n      tag_116\n      jump\t// in\n    tag_204:\n        /* \"#utility.yul\":7595:7666   */\n      tag_205\n        /* \"#utility.yul\":7659:7665   */\n      dup2\n        /* \"#utility.yul\":7654:7657   */\n      dup6\n        /* \"#utility.yul\":7595:7666   */\n      tag_117\n      jump\t// in\n    tag_205:\n        /* \"#utility.yul\":7588:7666   */\n      swap4\n      pop\n        /* \"#utility.yul\":7675:7740   */\n      tag_206\n        /* \"#utility.yul\":7733:7739   */\n      dup2\n        /* \"#utility.yul\":7728:7731   */\n      dup6\n        /* \"#utility.yul\":7721:7725   */\n      0x20\n        /* \"#utility.yul\":7714:7719   */\n      dup7\n        /* \"#utility.yul\":7710:7726   */\n      add\n        /* \"#utility.yul\":7675:7740   */\n      tag_118\n      jump\t// in\n    tag_206:\n        /* \"#utility.yul\":7765:7794   */\n      tag_207\n        /* \"#utility.yul\":7787:7793   */\n      dup2\n        /* \"#utility.yul\":7765:7794   */\n      tag_96\n      jump\t// in\n    tag_207:\n        /* \"#utility.yul\":7760:7763   */\n      dup5\n        /* \"#utility.yul\":7756:7795   */\n      add\n        /* \"#utility.yul\":7749:7795   */\n      swap2\n      pop\n        /* \"#utility.yul\":7516:7801   */\n      pop\n        /* \"#utility.yul\":7424:7801   */\n      swap3\n      swap2\n      pop\n      pop\n      jump\t// out\n        /* \"#utility.yul\":7807:8120   */\n    tag_57:\n        /* \"#utility.yul\":7920:7924   */\n      0x00\n        /* \"#utility.yul\":7958:7960   */\n      0x20\n        /* \"#utility.yul\":7947:7956   */\n      dup3\n        /* \"#utility.yul\":7943:7961   */\n      add\n        /* \"#utility.yul\":7935:7961   */\n      swap1\n      pop\n        /* \"#utility.yul\":8007:8016   */\n      dup2\n        /* \"#utility.yul\":8001:8005   */\n      dup2\n        /* \"#utility.yul\":7997:8017   */\n      sub\n        /* \"#utility.yul\":7993:7994   */\n      0x00\n        /* \"#utility.yul\":7982:7991   */\n      dup4\n        /* \"#utility.yul\":7978:7995   */\n      add\n        /* \"#utility.yul\":7971:8018   */\n      mstore\n        /* \"#utility.yul\":8035:8113   */\n      tag_209\n        /* \"#utility.yul\":8108:8112   */\n      dup2\n        /* \"#utility.yul\":8099:8105   */\n      dup5\n        /* \"#utility.yul\":8035:8113   */\n      tag_119\n      jump\t// in\n    tag_209:\n        /* \"#utility.yul\":8027:8113   */\n      swap1\n      pop\n        /* \"#utility.yul\":7807:8120   */\n      swap3\n      swap2\n      pop\n      pop\n      jump\t// out\n        /* \"#utility.yul\":8126:8536   */\n    tag_70:\n        /* \"#utility.yul\":8166:8173   */\n      0x00\n        /* \"#utility.yul\":8189:8209   */\n      tag_211\n        /* \"#utility.yul\":8207:8208   */\n      dup3\n        /* \"#utility.yul\":8189:8209   */\n      tag_89\n      jump\t// in\n    tag_211:\n        /* \"#utility.yul\":8184:8209   */\n      swap2\n      pop\n        /* \"#utility.yul\":8223:8243   */\n      tag_212\n        /* \"#utility.yul\":8241:8242   */\n      dup4\n        /* \"#utility.yul\":8223:8243   */\n      tag_89\n      jump\t// in\n    tag_212:\n        /* \"#utility.yul\":8218:8243   */\n      swap3\n      pop\n        /* \"#utility.yul\":8278:8279   */\n      dup3\n        /* \"#utility.yul\":8275:8276   */\n      dup3\n        /* \"#utility.yul\":8271:8280   */\n      mul\n        /* \"#utility.yul\":8300:8330   */\n      tag_213\n        /* \"#utility.yul\":8318:8329   */\n      dup2\n        /* \"#utility.yul\":8300:8330   */\n      tag_89\n      jump\t// in\n    tag_213:\n        /* \"#utility.yul\":8289:8330   */\n      swap2\n      pop\n        /* \"#utility.yul\":8479:8480   */\n      dup3\n        /* \"#utility.yul\":8470:8477   */\n      dup3\n        /* \"#utility.yul\":8466:8481   */\n      div\n        /* \"#utility.yul\":8463:8464   */\n      dup5\n        /* \"#utility.yul\":8460:8482   */\n      eq\n        /* \"#utility.yul\":8440:8441   */\n      dup4\n        /* \"#utility.yul\":8433:8442   */\n      iszero\n        /* \"#utility.yul\":8413:8496   */\n      or\n        /* \"#utility.yul\":8390:8529   */\n      tag_214\n      jumpi\n        /* \"#utility.yul\":8509:8527   */\n      tag_215\n      tag_115\n      jump\t// in\n    tag_215:\n        /* \"#utility.yul\":8390:8529   */\n    tag_214:\n        /* \"#utility.yul\":8174:8536   */\n      pop\n        /* \"#utility.yul\":8126:8536   */\n      swap3\n      swap2\n      pop\n      pop\n      jump\t// out\n\n    auxdata: 0xa2646970667358221220d98ea3ec0321b5898c4dec5b44646f34e543fe2d49a63a2a2524f9502b4e0e2e64736f6c634300081a0033\n}\n",
				"bytecode": {
					"linkReferences": {},
					"object": "608060405234801561000f575f80fd5b50604051610aeb380380610aeb833981810160405281019061003191906101b0565b806040516020016100429190610249565b604051602081830303815290604052805190602001205f8190555050610269565b5f604051905090565b5f80fd5b5f80fd5b5f80fd5b5f80fd5b5f601f19601f8301169050919050565b7f4e487b71000000000000000000000000000000000000000000000000000000005f52604160045260245ffd5b6100c28261007c565b810181811067ffffffffffffffff821117156100e1576100e061008c565b5b80604052505050565b5f6100f3610063565b90506100ff82826100b9565b919050565b5f67ffffffffffffffff82111561011e5761011d61008c565b5b6101278261007c565b9050602081019050919050565b8281835e5f83830152505050565b5f61015461014f84610104565b6100ea565b9050828152602081018484840111156101705761016f610078565b5b61017b848285610134565b509392505050565b5f82601f83011261019757610196610074565b5b81516101a7848260208601610142565b91505092915050565b5f602082840312156101c5576101c461006c565b5b5f82015167ffffffffffffffff8111156101e2576101e1610070565b5b6101ee84828501610183565b91505092915050565b5f81519050919050565b5f82825260208201905092915050565b5f61021b826101f7565b6102258185610201565b9350610235818560208601610134565b61023e8161007c565b840191505092915050565b5f6020820190508181035f8301526102618184610211565b905092915050565b610875806102765f395ff3fe608060405234801561000f575f80fd5b506004361061007b575f3560e01c806362b44ce11161005957806362b44ce1146100d7578063a8d798ff14610107578063c84c720514610111578063d9f0d049146101415761007b565b80630cf8d6171461007f5780632f41fc65146100895780633a7d280c146100a7575b5f80fd5b61008761015f565b005b61009161019a565b60405161009e91906103e9565b60405180910390f35b6100c160048036038101906100bc919061054f565b6101e6565b6040516100ce91906105b0565b60405180910390f35b6100f160048036038101906100ec91906105f3565b61023e565b6040516100fe91906103e9565b60405180910390f35b61010f610257565b005b61012b600480360381019061012691906105f3565b6102ef565b60405161013891906103e9565b60405180910390f35b610149610308565b60405161015691906106c3565b60405180910390f35b5f5b600f8110156101975780601182600f811061017f5761017e6106dd565b5b0181905550808061018f90610737565b915050610161565b50565b5f80600154036101ac575f90506101e3565b5f6001541180156101bf57506001805414155b156101cd57600190506101e3565b60018054036101df57600290506101e3565b5f90505b90565b5f816040516020016101f891906107de565b604051602081830303815290604052805190602001205f54036102355760015f81548092919061022790610737565b919050555060019050610239565b5f90505b919050565b601181600f811061024d575f80fd5b015f915090505481565b5f6002600f806020026040519081016040528092919082600f8015610291576020028201915b81548152602001906001019080831161027d575b505050505090505f5b600f8110156102d9576002816102b091906107fe565b8282600f81106102c3576102c26106dd565b5b602002018181525050808060010191505061029a565b5080600290600f6102eb929190610353565b5050565b600281600f81106102fe575f80fd5b015f915090505481565b610310610393565b6002600f806020026040519081016040528092919082600f8015610349576020028201915b815481526020019060010190808311610335575b5050505050905090565b82600f8101928215610382579160200282015b82811115610381578251825591602001919060010190610366565b5b50905061038f91906103b6565b5090565b604051806101e00160405280600f90602082028036833780820191505090505090565b5b808211156103cd575f815f9055506001016103b7565b5090565b5f819050919050565b6103e3816103d1565b82525050565b5f6020820190506103fc5f8301846103da565b92915050565b5f604051905090565b5f80fd5b5f80fd5b5f80fd5b5f80fd5b5f601f19601f8301169050919050565b7f4e487b71000000000000000000000000000000000000000000000000000000005f52604160045260245ffd5b6104618261041b565b810181811067ffffffffffffffff821117156104805761047f61042b565b5b80604052505050565b5f610492610402565b905061049e8282610458565b919050565b5f67ffffffffffffffff8211156104bd576104bc61042b565b5b6104c68261041b565b9050602081019050919050565b828183375f83830152505050565b5f6104f36104ee846104a3565b610489565b90508281526020810184848401111561050f5761050e610417565b5b61051a8482856104d3565b509392505050565b5f82601f83011261053657610535610413565b5b81356105468482602086016104e1565b91505092915050565b5f602082840312156105645761056361040b565b5b5f82013567ffffffffffffffff8111156105815761058061040f565b5b61058d84828501610522565b91505092915050565b5f8115159050919050565b6105aa81610596565b82525050565b5f6020820190506105c35f8301846105a1565b92915050565b6105d2816103d1565b81146105dc575f80fd5b50565b5f813590506105ed816105c9565b92915050565b5f602082840312156106085761060761040b565b5b5f610615848285016105df565b91505092915050565b5f600f9050919050565b5f81905092915050565b5f819050919050565b610644816103d1565b82525050565b5f610655838361063b565b60208301905092915050565b5f602082019050919050565b6106768161061e565b6106808184610628565b925061068b82610632565b805f5b838110156106bb5781516106a2878261064a565b96506106ad83610661565b92505060018101905061068e565b505050505050565b5f6101e0820190506106d75f83018461066d565b92915050565b7f4e487b71000000000000000000000000000000000000000000000000000000005f52603260045260245ffd5b7f4e487b71000000000000000000000000000000000000000000000000000000005f52601160045260245ffd5b5f610741826103d1565b91507fffffffffffffffffffffffffffffffffffffffffffffffffffffffffffffffff82036107735761077261070a565b5b600182019050919050565b5f81519050919050565b5f82825260208201905092915050565b8281835e5f83830152505050565b5f6107b08261077e565b6107ba8185610788565b93506107ca818560208601610798565b6107d38161041b565b840191505092915050565b5f6020820190508181035f8301526107f681846107a6565b905092915050565b5f610808826103d1565b9150610813836103d1565b9250828202610821816103d1565b915082820484148315176108385761083761070a565b5b509291505056fea2646970667358221220d98ea3ec0321b5898c4dec5b44646f34e543fe2d49a63a2a2524f9502b4e0e2e64736f6c634300081a0033",
					"opcodes": "PUSH1 0x80 PUSH1 0x40 MSTORE CALLVALUE DUP1 ISZERO PUSH2 0xF JUMPI PUSH0 DUP1 REVERT JUMPDEST POP PUSH1 0x40 MLOAD PUSH2 0xAEB CODESIZE SUB DUP1 PUSH2 0xAEB DUP4 CODECOPY DUP2 DUP2 ADD PUSH1 0x40 MSTORE DUP2 ADD SWAP1 PUSH2 0x31 SWAP2 SWAP1 PUSH2 0x1B0 JUMP JUMPDEST DUP1 PUSH1 0x40 MLOAD PUSH1 0x20 ADD PUSH2 0x42 SWAP2 SWAP1 PUSH2 0x249 JUMP JUMPDEST PUSH1 0x40 MLOAD PUSH1 0x20 DUP2 DUP4 SUB SUB DUP2 MSTORE SWAP1 PUSH1 0x40 MSTORE DUP1 MLOAD SWAP1 PUSH1 0x20 ADD KECCAK256 PUSH0 DUP2 SWAP1 SSTORE POP POP PUSH2 0x269 JUMP JUMPDEST PUSH0 PUSH1 0x40 MLOAD SWAP1 POP SWAP1 JUMP JUMPDEST PUSH0 DUP1 REVERT JUMPDEST PUSH0 DUP1 REVERT JUMPDEST PUSH0 DUP1 REVERT JUMPDEST PUSH0 DUP1 REVERT JUMPDEST PUSH0 PUSH1 0x1F NOT PUSH1 0x1F DUP4 ADD AND SWAP1 POP SWAP2 SWAP1 POP JUMP JUMPDEST PUSH32 0x4E487B7100000000000000000000000000000000000000000000000000000000 PUSH0 MSTORE PUSH1 0x41 PUSH1 0x4 MSTORE PUSH1 0x24 PUSH0 REVERT JUMPDEST PUSH2 0xC2 DUP3 PUSH2 0x7C JUMP JUMPDEST DUP2 ADD DUP2 DUP2 LT PUSH8 0xFFFFFFFFFFFFFFFF DUP3 GT OR ISZERO PUSH2 0xE1 JUMPI PUSH2 0xE0 PUSH2 0x8C JUMP JUMPDEST JUMPDEST DUP1 PUSH1 0x40 MSTORE POP POP POP JUMP JUMPDEST PUSH0 PUSH2 0xF3 PUSH2 0x63 JUMP JUMPDEST SWAP1 POP PUSH2 0xFF DUP3 DUP3 PUSH2 0xB9 JUMP JUMPDEST SWAP2 SWAP1 POP JUMP JUMPDEST PUSH0 PUSH8 0xFFFFFFFFFFFFFFFF DUP3 GT ISZERO PUSH2 0x11E JUMPI PUSH2 0x11D PUSH2 0x8C JUMP JUMPDEST JUMPDEST PUSH2 0x127 DUP3 PUSH2 0x7C JUMP JUMPDEST SWAP1 POP PUSH1 0x20 DUP2 ADD SWAP1 POP SWAP2 SWAP1 POP JUMP JUMPDEST DUP3 DUP2 DUP4 MCOPY PUSH0 DUP4 DUP4 ADD MSTORE POP POP POP JUMP JUMPDEST PUSH0 PUSH2 0x154 PUSH2 0x14F DUP5 PUSH2 0x104 JUMP JUMPDEST PUSH2 0xEA JUMP JUMPDEST SWAP1 POP DUP3 DUP2 MSTORE PUSH1 0x20 DUP2 ADD DUP5 DUP5 DUP5 ADD GT ISZERO PUSH2 0x170 JUMPI PUSH2 0x16F PUSH2 0x78 JUMP JUMPDEST JUMPDEST PUSH2 0x17B DUP5 DUP3 DUP6 PUSH2 0x134 JUMP JUMPDEST POP SWAP4 SWAP3 POP POP POP JUMP JUMPDEST PUSH0 DUP3 PUSH1 0x1F DUP4 ADD SLT PUSH2 0x197 JUMPI PUSH2 0x196 PUSH2 0x74 JUMP JUMPDEST JUMPDEST DUP2 MLOAD PUSH2 0x1A7 DUP5 DUP3 PUSH1 0x20 DUP7 ADD PUSH2 0x142 JUMP JUMPDEST SWAP2 POP POP SWAP3 SWAP2 POP POP JUMP JUMPDEST PUSH0 PUSH1 0x20 DUP3 DUP5 SUB SLT ISZERO PUSH2 0x1C5 JUMPI PUSH2 0x1C4 PUSH2 0x6C JUMP JUMPDEST JUMPDEST PUSH0 DUP3 ADD MLOAD PUSH8 0xFFFFFFFFFFFFFFFF DUP2 GT ISZERO PUSH2 0x1E2 JUMPI PUSH2 0x1E1 PUSH2 0x70 JUMP JUMPDEST JUMPDEST PUSH2 0x1EE DUP5 DUP3 DUP6 ADD PUSH2 0x183 JUMP JUMPDEST SWAP2 POP POP SWAP3 SWAP2 POP POP JUMP JUMPDEST PUSH0 DUP2 MLOAD SWAP1 POP SWAP2 SWAP1 POP JUMP JUMPDEST PUSH0 DUP3 DUP3 MSTORE PUSH1 0x20 DUP3 ADD SWAP1 POP SWAP3 SWAP2 POP POP JUMP JUMPDEST PUSH0 PUSH2 0x21B DUP3 PUSH2 0x1F7 JUMP JUMPDEST PUSH2 0x225 DUP2 DUP6 PUSH2 0x201 JUMP JUMPDEST SWAP4 POP PUSH2 0x235 DUP2 DUP6 PUSH1 0x20 DUP7 ADD PUSH2 0x134 JUMP JUMPDEST PUSH2 0x23E DUP2 PUSH2 0x7C JUMP JUMPDEST DUP5 ADD SWAP2 POP POP SWAP3 SWAP2 POP POP JUMP JUMPDEST PUSH0 PUSH1 0x20 DUP3 ADD SWAP1 POP DUP2 DUP2 SUB PUSH0 DUP4 ADD MSTORE PUSH2 0x261 DUP2 DUP5 PUSH2 0x211 JUMP JUMPDEST SWAP1 POP SWAP3 SWAP2 POP POP JUMP JUMPDEST PUSH2 0x875 DUP1 PUSH2 0x276 PUSH0 CODECOPY PUSH0 RETURN INVALID PUSH1 0x80 PUSH1 0x40 MSTORE CALLVALUE DUP1 ISZERO PUSH2 0xF JUMPI PUSH0 DUP1 REVERT JUMPDEST POP PUSH1 0x4 CALLDATASIZE LT PUSH2 0x7B JUMPI PUSH0 CALLDATALOAD PUSH1 0xE0 SHR DUP1 PUSH4 0x62B44CE1 GT PUSH2 0x59 JUMPI DUP1 PUSH4 0x62B44CE1 EQ PUSH2 0xD7 JUMPI DUP1 PUSH4 0xA8D798FF EQ PUSH2 0x107 JUMPI DUP1 PUSH4 0xC84C7205 EQ PUSH2 0x111 JUMPI DUP1 PUSH4 0xD9F0D049 EQ PUSH2 0x141 JUMPI PUSH2 0x7B JUMP JUMPDEST DUP1 PUSH4 0xCF8D617 EQ PUSH2 0x7F JUMPI DUP1 PUSH4 0x2F41FC65 EQ PUSH2 0x89 JUMPI DUP1 PUSH4 0x3A7D280C EQ PUSH2 0xA7 JUMPI JUMPDEST PUSH0 DUP1 REVERT JUMPDEST PUSH2 0x87 PUSH2 0x15F JUMP JUMPDEST STOP JUMPDEST PUSH2 0x91 PUSH2 0x19A JUMP JUMPDEST PUSH1 0x40 MLOAD PUSH2 0x9E SWAP2 SWAP1 PUSH2 0x3E9 JUMP JUMPDEST PUSH1 0x40 MLOAD DUP1 SWAP2 SUB SWAP1 RETURN JUMPDEST PUSH2 0xC1 PUSH1 0x4 DUP1 CALLDATASIZE SUB DUP2 ADD SWAP1 PUSH2 0xBC SWAP2 SWAP1 PUSH2 0x54F JUMP JUMPDEST PUSH2 0x1E6 JUMP JUMPDEST PUSH1 0x40 MLOAD PUSH2 0xCE SWAP2 SWAP1 PUSH2 0x5B0 JUMP JUMPDEST PUSH1 0x40 MLOAD DUP1 SWAP2 SUB SWAP1 RETURN JUMPDEST PUSH2 0xF1 PUSH1 0x4 DUP1 CALLDATASIZE SUB DUP2 ADD SWAP1 PUSH2 0xEC SWAP2 SWAP1 PUSH2 0x5F3 JUMP JUMPDEST PUSH2 0x23E JUMP JUMPDEST PUSH1 0x40 MLOAD PUSH2 0xFE SWAP2 SWAP1 PUSH2 0x3E9 JUMP JUMPDEST PUSH1 0x40 MLOAD DUP1 SWAP2 SUB SWAP1 RETURN JUMPDEST PUSH2 0x10F PUSH2 0x257 JUMP JUMPDEST STOP JUMPDEST PUSH2 0x12B PUSH1 0x4 DUP1 CALLDATASIZE SUB DUP2 ADD SWAP1 PUSH2 0x126 SWAP2 SWAP1 PUSH2 0x5F3 JUMP JUMPDEST PUSH2 0x2EF JUMP JUMPDEST PUSH1 0x40 MLOAD PUSH2 0x138 SWAP2 SWAP1 PUSH2 0x3E9 JUMP JUMPDEST PUSH1 0x40 MLOAD DUP1 SWAP2 SUB SWAP1 RETURN JUMPDEST PUSH2 0x149 PUSH2 0x308 JUMP JUMPDEST PUSH1 0x40 MLOAD PUSH2 0x156 SWAP2 SWAP1 PUSH2 0x6C3 JUMP JUMPDEST PUSH1 0x40 MLOAD DUP1 SWAP2 SUB SWAP1 RETURN JUMPDEST PUSH0 JUMPDEST PUSH1 0xF DUP2 LT ISZERO PUSH2 0x197 JUMPI DUP1 PUSH1 0x11 DUP3 PUSH1 0xF DUP2 LT PUSH2 0x17F JUMPI PUSH2 0x17E PUSH2 0x6DD JUMP JUMPDEST JUMPDEST ADD DUP2 SWAP1 SSTORE POP DUP1 DUP1 PUSH2 0x18F SWAP1 PUSH2 0x737 JUMP JUMPDEST SWAP2 POP POP PUSH2 0x161 JUMP JUMPDEST POP JUMP JUMPDEST PUSH0 DUP1 PUSH1 0x1 SLOAD SUB PUSH2 0x1AC JUMPI PUSH0 SWAP1 POP PUSH2 0x1E3 JUMP JUMPDEST PUSH0 PUSH1 0x1 SLOAD GT DUP1 ISZERO PUSH2 0x1BF JUMPI POP PUSH1 0x1 DUP1 SLOAD EQ ISZERO JUMPDEST ISZERO PUSH2 0x1CD JUMPI PUSH1 0x1 SWAP1 POP PUSH2 0x1E3 JUMP JUMPDEST PUSH1 0x1 DUP1 SLOAD SUB PUSH2 0x1DF JUMPI PUSH1 0x2 SWAP1 POP PUSH2 0x1E3 JUMP JUMPDEST PUSH0 SWAP1 POP JUMPDEST SWAP1 JUMP JUMPDEST PUSH0 DUP2 PUSH1 0x40 MLOAD PUSH1 0x20 ADD PUSH2 0x1F8 SWAP2 SWAP1 PUSH2 0x7DE JUMP JUMPDEST PUSH1 0x40 MLOAD PUSH1 0x20 DUP2 DUP4 SUB SUB DUP2 MSTORE SWAP1 PUSH1 0x40 MSTORE DUP1 MLOAD SWAP1 PUSH1 0x20 ADD KECCAK256 PUSH0 SLOAD SUB PUSH2 0x235 JUMPI PUSH1 0x1 PUSH0 DUP2 SLOAD DUP1 SWAP3 SWAP2 SWAP1 PUSH2 0x227 SWAP1 PUSH2 0x737 JUMP JUMPDEST SWAP2 SWAP1 POP SSTORE POP PUSH1 0x1 SWAP1 POP PUSH2 0x239 JUMP JUMPDEST PUSH0 SWAP1 POP JUMPDEST SWAP2 SWAP1 POP JUMP JUMPDEST PUSH1 0x11 DUP2 PUSH1 0xF DUP2 LT PUSH2 0x24D JUMPI PUSH0 DUP1 REVERT JUMPDEST ADD PUSH0 SWAP2 POP SWAP1 POP SLOAD DUP2 JUMP JUMPDEST PUSH0 PUSH1 0x2 PUSH1 0xF DUP1 PUSH1 0x20 MUL PUSH1 0x40 MLOAD SWAP1 DUP2 ADD PUSH1 0x40 MSTORE DUP1 SWAP3 SWAP2 SWAP1 DUP3 PUSH1 0xF DUP1 ISZERO PUSH2 0x291 JUMPI PUSH1 0x20 MUL DUP3 ADD SWAP2 JUMPDEST DUP2 SLOAD DUP2 MSTORE PUSH1 0x20 ADD SWAP1 PUSH1 0x1 ADD SWAP1 DUP1 DUP4 GT PUSH2 0x27D JUMPI JUMPDEST POP POP POP POP POP SWAP1 POP PUSH0 JUMPDEST PUSH1 0xF DUP2 LT ISZERO PUSH2 0x2D9 JUMPI PUSH1 0x2 DUP2 PUSH2 0x2B0 SWAP2 SWAP1 PUSH2 0x7FE JUMP JUMPDEST DUP3 DUP3 PUSH1 0xF DUP2 LT PUSH2 0x2C3 JUMPI PUSH2 0x2C2 PUSH2 0x6DD JUMP JUMPDEST JUMPDEST PUSH1 0x20 MUL ADD DUP2 DUP2 MSTORE POP POP DUP1 DUP1 PUSH1 0x1 ADD SWAP2 POP POP PUSH2 0x29A JUMP JUMPDEST POP DUP1 PUSH1 0x2 SWAP1 PUSH1 0xF PUSH2 0x2EB SWAP3 SWAP2 SWAP1 PUSH2 0x353 JUMP JUMPDEST POP POP JUMP JUMPDEST PUSH1 0x2 DUP2 PUSH1 0xF DUP2 LT PUSH2 0x2FE JUMPI PUSH0 DUP1 REVERT JUMPDEST ADD PUSH0 SWAP2 POP SWAP1 POP SLOAD DUP2 JUMP JUMPDEST PUSH2 0x310 PUSH2 0x393 JUMP JUMPDEST PUSH1 0x2 PUSH1 0xF DUP1 PUSH1 0x20 MUL PUSH1 0x40 MLOAD SWAP1 DUP2 ADD PUSH1 0x40 MSTORE DUP1 SWAP3 SWAP2 SWAP1 DUP3 PUSH1 0xF DUP1 ISZERO PUSH2 0x349 JUMPI PUSH1 0x20 MUL DUP3 ADD SWAP2 JUMPDEST DUP2 SLOAD DUP2 MSTORE PUSH1 0x20 ADD SWAP1 PUSH1 0x1 ADD SWAP1 DUP1 DUP4 GT PUSH2 0x335 JUMPI JUMPDEST POP POP POP POP POP SWAP1 POP SWAP1 JUMP JUMPDEST DUP3 PUSH1 0xF DUP2 ADD SWAP3 DUP3 ISZERO PUSH2 0x382 JUMPI SWAP2 PUSH1 0x20 MUL DUP3 ADD JUMPDEST DUP3 DUP2 GT ISZERO PUSH2 0x381 JUMPI DUP3 MLOAD DUP3 SSTORE SWAP2 PUSH1 0x20 ADD SWAP2 SWAP1 PUSH1 0x1 ADD SWAP1 PUSH2 0x366 JUMP JUMPDEST JUMPDEST POP SWAP1 POP PUSH2 0x38F SWAP2 SWAP1 PUSH2 0x3B6 JUMP JUMPDEST POP SWAP1 JUMP JUMPDEST PUSH1 0x40 MLOAD DUP1 PUSH2 0x1E0 ADD PUSH1 0x40 MSTORE DUP1 PUSH1 0xF SWAP1 PUSH1 0x20 DUP3 MUL DUP1 CALLDATASIZE DUP4 CALLDATACOPY DUP1 DUP3 ADD SWAP2 POP POP SWAP1 POP POP SWAP1 JUMP JUMPDEST JUMPDEST DUP1 DUP3 GT ISZERO PUSH2 0x3CD JUMPI PUSH0 DUP2 PUSH0 SWAP1 SSTORE POP PUSH1 0x1 ADD PUSH2 0x3B7 JUMP JUMPDEST POP SWAP1 JUMP JUMPDEST PUSH0 DUP2 SWAP1 POP SWAP2 SWAP1 POP JUMP JUMPDEST PUSH2 0x3E3 DUP2 PUSH2 0x3D1 JUMP JUMPDEST DUP3 MSTORE POP POP JUMP JUMPDEST PUSH0 PUSH1 0x20 DUP3 ADD SWAP1 POP PUSH2 0x3FC PUSH0 DUP4 ADD DUP5 PUSH2 0x3DA JUMP JUMPDEST SWAP3 SWAP2 POP POP JUMP JUMPDEST PUSH0 PUSH1 0x40 MLOAD SWAP1 POP SWAP1 JUMP JUMPDEST PUSH0 DUP1 REVERT JUMPDEST PUSH0 DUP1 REVERT JUMPDEST PUSH0 DUP1 REVERT JUMPDEST PUSH0 DUP1 REVERT JUMPDEST PUSH0 PUSH1 0x1F NOT PUSH1 0x1F DUP4 ADD AND SWAP1 POP SWAP2 SWAP1 POP JUMP JUMPDEST PUSH32 0x4E487B7100000000000000000000000000000000000000000000000000000000 PUSH0 MSTORE PUSH1 0x41 PUSH1 0x4 MSTORE PUSH1 0x24 PUSH0 REVERT JUMPDEST PUSH2 0x461 DUP3 PUSH2 0x41B JUMP JUMPDEST DUP2 ADD DUP2 DUP2 LT PUSH8 0xFFFFFFFFFFFFFFFF DUP3 GT OR ISZERO PUSH2 0x480 JUMPI PUSH2 0x47F PUSH2 0x42B JUMP JUMPDEST JUMPDEST DUP1 PUSH1 0x40 MSTORE POP POP POP JUMP JUMPDEST PUSH0 PUSH2 0x492 PUSH2 0x402 JUMP JUMPDEST SWAP1 POP PUSH2 0x49E DUP3 DUP3 PUSH2 0x458 JUMP JUMPDEST SWAP2 SWAP1 POP JUMP JUMPDEST PUSH0 PUSH8 0xFFFFFFFFFFFFFFFF DUP3 GT ISZERO PUSH2 0x4BD JUMPI PUSH2 0x4BC PUSH2 0x42B JUMP JUMPDEST JUMPDEST PUSH2 0x4C6 DUP3 PUSH2 0x41B JUMP JUMPDEST SWAP1 POP PUSH1 0x20 DUP2 ADD SWAP1 POP SWAP2 SWAP1 POP JUMP JUMPDEST DUP3 DUP2 DUP4 CALLDATACOPY PUSH0 DUP4 DUP4 ADD MSTORE POP POP POP JUMP JUMPDEST PUSH0 PUSH2 0x4F3 PUSH2 0x4EE DUP5 PUSH2 0x4A3 JUMP JUMPDEST PUSH2 0x489 JUMP JUMPDEST SWAP1 POP DUP3 DUP2 MSTORE PUSH1 0x20 DUP2 ADD DUP5 DUP5 DUP5 ADD GT ISZERO PUSH2 0x50F JUMPI PUSH2 0x50E PUSH2 0x417 JUMP JUMPDEST JUMPDEST PUSH2 0x51A DUP5 DUP3 DUP6 PUSH2 0x4D3 JUMP JUMPDEST POP SWAP4 SWAP3 POP POP POP JUMP JUMPDEST PUSH0 DUP3 PUSH1 0x1F DUP4 ADD SLT PUSH2 0x536 JUMPI PUSH2 0x535 PUSH2 0x413 JUMP JUMPDEST JUMPDEST DUP2 CALLDATALOAD PUSH2 0x546 DUP5 DUP3 PUSH1 0x20 DUP7 ADD PUSH2 0x4E1 JUMP JUMPDEST SWAP2 POP POP SWAP3 SWAP2 POP POP JUMP JUMPDEST PUSH0 PUSH1 0x20 DUP3 DUP5 SUB SLT ISZERO PUSH2 0x564 JUMPI PUSH2 0x563 PUSH2 0x40B JUMP JUMPDEST JUMPDEST PUSH0 DUP3 ADD CALLDATALOAD PUSH8 0xFFFFFFFFFFFFFFFF DUP2 GT ISZERO PUSH2 0x581 JUMPI PUSH2 0x580 PUSH2 0x40F JUMP JUMPDEST JUMPDEST PUSH2 0x58D DUP5 DUP3 DUP6 ADD PUSH2 0x522 JUMP JUMPDEST SWAP2 POP POP SWAP3 SWAP2 POP POP JUMP JUMPDEST PUSH0 DUP2 ISZERO ISZERO SWAP1 POP SWAP2 SWAP1 POP JUMP JUMPDEST PUSH2 0x5AA DUP2 PUSH2 0x596 JUMP JUMPDEST DUP3 MSTORE POP POP JUMP JUMPDEST PUSH0 PUSH1 0x20 DUP3 ADD SWAP1 POP PUSH2 0x5C3 PUSH0 DUP4 ADD DUP5 PUSH2 0x5A1 JUMP JUMPDEST SWAP3 SWAP2 POP POP JUMP JUMPDEST PUSH2 0x5D2 DUP2 PUSH2 0x3D1 JUMP JUMPDEST DUP2 EQ PUSH2 0x5DC JUMPI PUSH0 DUP1 REVERT JUMPDEST POP JUMP JUMPDEST PUSH0 DUP2 CALLDATALOAD SWAP1 POP PUSH2 0x5ED DUP2 PUSH2 0x5C9 JUMP JUMPDEST SWAP3 SWAP2 POP POP JUMP JUMPDEST PUSH0 PUSH1 0x20 DUP3 DUP5 SUB SLT ISZERO PUSH2 0x608 JUMPI PUSH2 0x607 PUSH2 0x40B JUMP JUMPDEST JUMPDEST PUSH0 PUSH2 0x615 DUP5 DUP3 DUP6 ADD PUSH2 0x5DF JUMP JUMPDEST SWAP2 POP POP SWAP3 SWAP2 POP POP JUMP JUMPDEST PUSH0 PUSH1 0xF SWAP1 POP SWAP2 SWAP1 POP JUMP JUMPDEST PUSH0 DUP2 SWAP1 POP SWAP3 SWAP2 POP POP JUMP JUMPDEST PUSH0 DUP2 SWAP1 POP SWAP2 SWAP1 POP JUMP JUMPDEST PUSH2 0x644 DUP2 PUSH2 0x3D1 JUMP JUMPDEST DUP3 MSTORE POP POP JUMP JUMPDEST PUSH0 PUSH2 0x655 DUP4 DUP4 PUSH2 0x63B JUMP JUMPDEST PUSH1 0x20 DUP4 ADD SWAP1 POP SWAP3 SWAP2 POP POP JUMP JUMPDEST PUSH0 PUSH1 0x20 DUP3 ADD SWAP1 POP SWAP2 SWAP1 POP JUMP JUMPDEST PUSH2 0x676 DUP2 PUSH2 0x61E JUMP JUMPDEST PUSH2 0x680 DUP2 DUP5 PUSH2 0x628 JUMP JUMPDEST SWAP3 POP PUSH2 0x68B DUP3 PUSH2 0x632 JUMP JUMPDEST DUP1 PUSH0 JUMPDEST DUP4 DUP2 LT ISZERO PUSH2 0x6BB JUMPI DUP2 MLOAD PUSH2 0x6A2 DUP8 DUP3 PUSH2 0x64A JUMP JUMPDEST SWAP7 POP PUSH2 0x6AD DUP4 PUSH2 0x661 JUMP JUMPDEST SWAP3 POP POP PUSH1 0x1 DUP2 ADD SWAP1 POP PUSH2 0x68E JUMP JUMPDEST POP POP POP POP POP POP JUMP JUMPDEST PUSH0 PUSH2 0x1E0 DUP3 ADD SWAP1 POP PUSH2 0x6D7 PUSH0 DUP4 ADD DUP5 PUSH2 0x66D JUMP JUMPDEST SWAP3 SWAP2 POP POP JUMP JUMPDEST PUSH32 0x4E487B7100000000000000000000000000000000000000000000000000000000 PUSH0 MSTORE PUSH1 0x32 PUSH1 0x4 MSTORE PUSH1 0x24 PUSH0 REVERT JUMPDEST PUSH32 0x4E487B7100000000000000000000000000000000000000000000000000000000 PUSH0 MSTORE PUSH1 0x11 PUSH1 0x4 MSTORE PUSH1 0x24 PUSH0 REVERT JUMPDEST PUSH0 PUSH2 0x741 DUP3 PUSH2 0x3D1 JUMP JUMPDEST SWAP2 POP PUSH32 0xFFFFFFFFFFFFFFFFFFFFFFFFFFFFFFFFFFFFFFFFFFFFFFFFFFFFFFFFFFFFFFFF DUP3 SUB PUSH2 0x773 JUMPI PUSH2 0x772 PUSH2 0x70A JUMP JUMPDEST JUMPDEST PUSH1 0x1 DUP3 ADD SWAP1 POP SWAP2 SWAP1 POP JUMP JUMPDEST PUSH0 DUP2 MLOAD SWAP1 POP SWAP2 SWAP1 POP JUMP JUMPDEST PUSH0 DUP3 DUP3 MSTORE PUSH1 0x20 DUP3 ADD SWAP1 POP SWAP3 SWAP2 POP POP JUMP JUMPDEST DUP3 DUP2 DUP4 MCOPY PUSH0 DUP4 DUP4 ADD MSTORE POP POP POP JUMP JUMPDEST PUSH0 PUSH2 0x7B0 DUP3 PUSH2 0x77E JUMP JUMPDEST PUSH2 0x7BA DUP2 DUP6 PUSH2 0x788 JUMP JUMPDEST SWAP4 POP PUSH2 0x7CA DUP2 DUP6 PUSH1 0x20 DUP7 ADD PUSH2 0x798 JUMP JUMPDEST PUSH2 0x7D3 DUP2 PUSH2 0x41B JUMP JUMPDEST DUP5 ADD SWAP2 POP POP SWAP3 SWAP2 POP POP JUMP JUMPDEST PUSH0 PUSH1 0x20 DUP3 ADD SWAP1 POP DUP2 DUP2 SUB PUSH0 DUP4 ADD MSTORE PUSH2 0x7F6 DUP2 DUP5 PUSH2 0x7A6 JUMP JUMPDEST SWAP1 POP SWAP3 SWAP2 POP POP JUMP JUMPDEST PUSH0 PUSH2 0x808 DUP3 PUSH2 0x3D1 JUMP JUMPDEST SWAP2 POP PUSH2 0x813 DUP4 PUSH2 0x3D1 JUMP JUMPDEST SWAP3 POP DUP3 DUP3 MUL PUSH2 0x821 DUP2 PUSH2 0x3D1 JUMP JUMPDEST SWAP2 POP DUP3 DUP3 DIV DUP5 EQ DUP4 ISZERO OR PUSH2 0x838 JUMPI PUSH2 0x837 PUSH2 0x70A JUMP JUMPDEST JUMPDEST POP SWAP3 SWAP2 POP POP JUMP INVALID LOG2 PUSH5 0x6970667358 0x22 SLT KECCAK256 0xD9 DUP15 LOG3 0xEC SUB 0x21 0xB5 DUP10 DUP13 0x4D 0xEC JUMPDEST PREVRANDAO PUSH5 0x6F34E543FE 0x2D BLOBHASH 0xA6 GASPRICE 0x2A 0x25 0x24 0xF9 POP 0x2B 0x4E 0xE 0x2E PUSH5 0x736F6C6343 STOP ADDMOD BYTE STOP CALLER "
				},
				"gasEstimates": {
					"creation": {
						"codeDepositCost": "433000",
						"executionCost": "infinite",
						"totalCost": "infinite"
					},
					"external": {
						"getArr0()": "infinite",
						"listByFor()": "infinite",
						"listByWhile()": "infinite",
						"login(string)": "infinite",
						"loginStatus()": "8871",
						"numbers0(uint256)": "infinite",
						"numbers1(uint256)": "infinite"
					}
				},
				"methodIdentifiers": {
					"getArr0()": "d9f0d049",
					"listByFor()": "a8d798ff",
					"listByWhile()": "0cf8d617",
					"login(string)": "3a7d280c",
					"loginStatus()": "2f41fc65",
					"numbers0(uint256)": "c84c7205",
					"numbers1(uint256)": "62b44ce1"
				}
			},
			"storageLayout": {
				"storage": [
					{
						"astId": 3,
						"contract": "contracts/5.video.sol:Combined",
						"label": "hashcode",
						"offset": 0,
						"slot": "0",
						"type": "t_bytes32"
					},
					{
						"astId": 5,
						"contract": "contracts/5.video.sol:Combined",
						"label": "logincount",
						"offset": 0,
						"slot": "1",
						"type": "t_uint256"
					},
					{
						"astId": 9,
						"contract": "contracts/5.video.sol:Combined",
						"label": "numbers0",
						"offset": 0,
						"slot": "2",
						"type": "t_array(t_uint256)15_storage"
					},
					{
						"astId": 13,
						"contract": "contracts/5.video.sol:Combined",
						"label": "numbers1",
						"offset": 0,
						"slot": "17",
						"type": "t_array(t_uint256)15_storage"
					}
				],
				"types": {
					"t_array(t_uint256)15_storage": {
						"base": "t_uint256",
						"encoding": "inplace",
						"label": "uint256[15]",
						"numberOfBytes": "480"
					},
					"t_bytes32": {
						"encoding": "inplace",
						"label": "bytes32",
						"numberOfBytes": "32"
					},
					"t_uint256": {
						"encoding": "inplace",
						"label": "uint256",
						"numberOfBytes": "32"
					}
				}
			},
			"userdoc": {
				"kind": "user",
				"methods": {},
				"version": 1
			}
		}
	}
}