{
	"contracts/5.videoifelse.sol": {
		"Combined": {
			"abi": [
				{
					"inputs": [
						{
							"internalType": "string",
							"name": "_password",
							"type": "string"
						}
					],
					"stateMutability": "nonpayable",
					"type": "constructor"
				},
				{
					"inputs": [],
					"name": "getArr0",
					"outputs": [
						{
							"internalType": "uint256[15]",
							"name": "",
							"type": "uint256[15]"
						}
					],
					"stateMutability": "view",
					"type": "function"
				},
				{
					"inputs": [],
					"name": "listByFor",
					"outputs": [],
					"stateMutability": "nonpayable",
					"type": "function"
				},
				{
					"inputs": [],
					"name": "listByWhile",
					"outputs": [],
					"stateMutability": "nonpayable",
					"type": "function"
				},
				{
					"inputs": [
						{
							"internalType": "string",
							"name": "_password",
							"type": "string"
						}
					],
					"name": "login",
					"outputs": [
						{
							"internalType": "bool",
							"name": "",
							"type": "bool"
						}
					],
					"stateMutability": "nonpayable",
					"type": "function"
				},
				{
					"inputs": [],
					"name": "loginStatus",
					"outputs": [
						{
							"internalType": "uint256",
							"name": "",
							"type": "uint256"
						}
					],
					"stateMutability": "view",
					"type": "function"
				},
				{
					"inputs": [
						{
							"internalType": "uint256",
							"name": "",
							"type": "uint256"
						}
					],
					"name": "numbers0",
					"outputs": [
						{
							"internalType": "uint256",
							"name": "",
							"type": "uint256"
						}
					],
					"stateMutability": "view",
					"type": "function"
				},
				{
					"inputs": [
						{
							"internalType": "uint256",
							"name": "",
							"type": "uint256"
						}
					],
					"name": "numbers1",
					"outputs": [
						{
							"internalType": "uint256",
							"name": "",
							"type": "uint256"
						}
					],
					"stateMutability": "view",
					"type": "function"
				}
			],
			"devdoc": {
				"kind": "dev",
				"methods": {},
				"version": 1
			},
			"evm": {
				"assembly": "    /* \"contracts/5.videoifelse.sol\":108:2608  contract Combined {... */\n  mstore(0x40, 0x80)\n    /* \"contracts/5.videoifelse.sol\":637:768  constructor(string memory _password) {... */\n  callvalue\n  dup1\n  iszero\n  tag_1\n  jumpi\n  0x00\n  dup1\n  revert\ntag_1:\n  pop\n  mload(0x40)\n  sub(codesize, bytecodeSize)\n  dup1\n  bytecodeSize\n  dup4\n  codecopy\n  dup2\n  dup2\n  add\n  0x40\n  mstore\n  dup2\n  add\n  swap1\n  tag_2\n  swap2\n  swap1\n  tag_3\n  jump\t// in\ntag_2:\n    /* \"contracts/5.videoifelse.sol\":717:726  _password */\n  dup1\n    /* \"contracts/5.videoifelse.sol\":706:727  abi.encode(_password) */\n  add(0x20, mload(0x40))\n  tag_6\n  swap2\n  swap1\n  tag_7\n  jump\t// in\ntag_6:\n  mload(0x40)\n  0x20\n  dup2\n  dup4\n  sub\n  sub\n  dup2\n  mstore\n  swap1\n  0x40\n  mstore\n    /* \"contracts/5.videoifelse.sol\":696:728  keccak256(abi.encode(_password)) */\n  dup1\n  mload\n  swap1\n  0x20\n  add\n  keccak256\n    /* \"contracts/5.videoifelse.sol\":685:693  hashcode */\n  0x00\n    /* \"contracts/5.videoifelse.sol\":685:728  hashcode = keccak256(abi.encode(_password)) */\n  dup2\n  swap1\n  sstore\n  pop\n    /* \"contracts/5.videoifelse.sol\":637:768  constructor(string memory _password) {... */\n  pop\n    /* \"contracts/5.videoifelse.sol\":108:2608  contract Combined {... */\n  jump(tag_8)\n    /* \"#utility.yul\":7:82   */\ntag_9:\n    /* \"#utility.yul\":40:46   */\n  0x00\n    /* \"#utility.yul\":73:75   */\n  0x40\n    /* \"#utility.yul\":67:76   */\n  mload\n    /* \"#utility.yul\":57:76   */\n  swap1\n  pop\n    /* \"#utility.yul\":7:82   */\n  swap1\n  jump\t// out\n    /* \"#utility.yul\":88:205   */\ntag_10:\n    /* \"#utility.yul\":197:198   */\n  0x00\n    /* \"#utility.yul\":194:195   */\n  dup1\n    /* \"#utility.yul\":187:199   */\n  revert\n    /* \"#utility.yul\":211:328   */\ntag_11:\n    /* \"#utility.yul\":320:321   */\n  0x00\n    /* \"#utility.yul\":317:318   */\n  dup1\n    /* \"#utility.yul\":310:322   */\n  revert\n    /* \"#utility.yul\":334:451   */\ntag_12:\n    /* \"#utility.yul\":443:444   */\n  0x00\n    /* \"#utility.yul\":440:441   */\n  dup1\n    /* \"#utility.yul\":433:445   */\n  revert\n    /* \"#utility.yul\":457:574   */\ntag_13:\n    /* \"#utility.yul\":566:567   */\n  0x00\n    /* \"#utility.yul\":563:564   */\n  dup1\n    /* \"#utility.yul\":556:568   */\n  revert\n    /* \"#utility.yul\":580:682   */\ntag_14:\n    /* \"#utility.yul\":621:627   */\n  0x00\n    /* \"#utility.yul\":672:674   */\n  0x1f\n    /* \"#utility.yul\":668:675   */\n  not\n    /* \"#utility.yul\":663:665   */\n  0x1f\n    /* \"#utility.yul\":656:661   */\n  dup4\n    /* \"#utility.yul\":652:666   */\n  add\n    /* \"#utility.yul\":648:676   */\n  and\n    /* \"#utility.yul\":638:676   */\n  swap1\n  pop\n    /* \"#utility.yul\":580:682   */\n  swap2\n  swap1\n  pop\n  jump\t// out\n    /* \"#utility.yul\":688:868   */\ntag_15:\n    /* \"#utility.yul\":736:813   */\n  0x4e487b7100000000000000000000000000000000000000000000000000000000\n    /* \"#utility.yul\":733:734   */\n  0x00\n    /* \"#utility.yul\":726:814   */\n  mstore\n    /* \"#utility.yul\":833:837   */\n  0x41\n    /* \"#utility.yul\":830:831   */\n  0x04\n    /* \"#utility.yul\":823:838   */\n  mstore\n    /* \"#utility.yul\":857:861   */\n  0x24\n    /* \"#utility.yul\":854:855   */\n  0x00\n    /* \"#utility.yul\":847:862   */\n  revert\n    /* \"#utility.yul\":874:1155   */\ntag_16:\n    /* \"#utility.yul\":957:984   */\n  tag_34\n    /* \"#utility.yul\":979:983   */\n  dup3\n    /* \"#utility.yul\":957:984   */\n  tag_14\n  jump\t// in\ntag_34:\n    /* \"#utility.yul\":949:955   */\n  dup2\n    /* \"#utility.yul\":945:985   */\n  add\n    /* \"#utility.yul\":1087:1093   */\n  dup2\n    /* \"#utility.yul\":1075:1085   */\n  dup2\n    /* \"#utility.yul\":1072:1094   */\n  lt\n    /* \"#utility.yul\":1051:1069   */\n  0xffffffffffffffff\n    /* \"#utility.yul\":1039:1049   */\n  dup3\n    /* \"#utility.yul\":1036:1070   */\n  gt\n    /* \"#utility.yul\":1033:1095   */\n  or\n    /* \"#utility.yul\":1030:1118   */\n  iszero\n  tag_35\n  jumpi\n    /* \"#utility.yul\":1098:1116   */\n  tag_36\n  tag_15\n  jump\t// in\ntag_36:\n    /* \"#utility.yul\":1030:1118   */\ntag_35:\n    /* \"#utility.yul\":1138:1148   */\n  dup1\n    /* \"#utility.yul\":1134:1136   */\n  0x40\n    /* \"#utility.yul\":1127:1149   */\n  mstore\n    /* \"#utility.yul\":917:1155   */\n  pop\n    /* \"#utility.yul\":874:1155   */\n  pop\n  pop\n  jump\t// out\n    /* \"#utility.yul\":1161:1290   */\ntag_17:\n    /* \"#utility.yul\":1195:1201   */\n  0x00\n    /* \"#utility.yul\":1222:1242   */\n  tag_38\n  tag_9\n  jump\t// in\ntag_38:\n    /* \"#utility.yul\":1212:1242   */\n  swap1\n  pop\n    /* \"#utility.yul\":1251:1284   */\n  tag_39\n    /* \"#utility.yul\":1279:1283   */\n  dup3\n    /* \"#utility.yul\":1271:1277   */\n  dup3\n    /* \"#utility.yul\":1251:1284   */\n  tag_16\n  jump\t// in\ntag_39:\n    /* \"#utility.yul\":1161:1290   */\n  swap2\n  swap1\n  pop\n  jump\t// out\n    /* \"#utility.yul\":1296:1604   */\ntag_18:\n    /* \"#utility.yul\":1358:1362   */\n  0x00\n    /* \"#utility.yul\":1448:1466   */\n  0xffffffffffffffff\n    /* \"#utility.yul\":1440:1446   */\n  dup3\n    /* \"#utility.yul\":1437:1467   */\n  gt\n    /* \"#utility.yul\":1434:1490   */\n  iszero\n  tag_41\n  jumpi\n    /* \"#utility.yul\":1470:1488   */\n  tag_42\n  tag_15\n  jump\t// in\ntag_42:\n    /* \"#utility.yul\":1434:1490   */\ntag_41:\n    /* \"#utility.yul\":1508:1537   */\n  tag_43\n    /* \"#utility.yul\":1530:1536   */\n  dup3\n    /* \"#utility.yul\":1508:1537   */\n  tag_14\n  jump\t// in\ntag_43:\n    /* \"#utility.yul\":1500:1537   */\n  swap1\n  pop\n    /* \"#utility.yul\":1592:1596   */\n  0x20\n    /* \"#utility.yul\":1586:1590   */\n  dup2\n    /* \"#utility.yul\":1582:1597   */\n  add\n    /* \"#utility.yul\":1574:1597   */\n  swap1\n  pop\n    /* \"#utility.yul\":1296:1604   */\n  swap2\n  swap1\n  pop\n  jump\t// out\n    /* \"#utility.yul\":1610:1856   */\ntag_19:\n    /* \"#utility.yul\":1691:1692   */\n  0x00\n    /* \"#utility.yul\":1701:1814   */\ntag_45:\n    /* \"#utility.yul\":1715:1721   */\n  dup4\n    /* \"#utility.yul\":1712:1713   */\n  dup2\n    /* \"#utility.yul\":1709:1722   */\n  lt\n    /* \"#utility.yul\":1701:1814   */\n  iszero\n  tag_47\n  jumpi\n    /* \"#utility.yul\":1800:1801   */\n  dup1\n    /* \"#utility.yul\":1795:1798   */\n  dup3\n    /* \"#utility.yul\":1791:1802   */\n  add\n    /* \"#utility.yul\":1785:1803   */\n  mload\n    /* \"#utility.yul\":1781:1782   */\n  dup2\n    /* \"#utility.yul\":1776:1779   */\n  dup5\n    /* \"#utility.yul\":1772:1783   */\n  add\n    /* \"#utility.yul\":1765:1804   */\n  mstore\n    /* \"#utility.yul\":1737:1739   */\n  0x20\n    /* \"#utility.yul\":1734:1735   */\n  dup2\n    /* \"#utility.yul\":1730:1740   */\n  add\n    /* \"#utility.yul\":1725:1740   */\n  swap1\n  pop\n    /* \"#utility.yul\":1701:1814   */\n  jump(tag_45)\ntag_47:\n    /* \"#utility.yul\":1848:1849   */\n  0x00\n    /* \"#utility.yul\":1839:1845   */\n  dup5\n    /* \"#utility.yul\":1834:1837   */\n  dup5\n    /* \"#utility.yul\":1830:1846   */\n  add\n    /* \"#utility.yul\":1823:1850   */\n  mstore\n    /* \"#utility.yul\":1672:1856   */\n  pop\n    /* \"#utility.yul\":1610:1856   */\n  pop\n  pop\n  pop\n  jump\t// out\n    /* \"#utility.yul\":1862:2296   */\ntag_20:\n    /* \"#utility.yul\":1951:1956   */\n  0x00\n    /* \"#utility.yul\":1976:2042   */\n  tag_49\n    /* \"#utility.yul\":1992:2041   */\n  tag_50\n    /* \"#utility.yul\":2034:2040   */\n  dup5\n    /* \"#utility.yul\":1992:2041   */\n  tag_18\n  jump\t// in\ntag_50:\n    /* \"#utility.yul\":1976:2042   */\n  tag_17\n  jump\t// in\ntag_49:\n    /* \"#utility.yul\":1967:2042   */\n  swap1\n  pop\n    /* \"#utility.yul\":2065:2071   */\n  dup3\n    /* \"#utility.yul\":2058:2063   */\n  dup2\n    /* \"#utility.yul\":2051:2072   */\n  mstore\n    /* \"#utility.yul\":2103:2107   */\n  0x20\n    /* \"#utility.yul\":2096:2101   */\n  dup2\n    /* \"#utility.yul\":2092:2108   */\n  add\n    /* \"#utility.yul\":2141:2144   */\n  dup5\n    /* \"#utility.yul\":2132:2138   */\n  dup5\n    /* \"#utility.yul\":2127:2130   */\n  dup5\n    /* \"#utility.yul\":2123:2139   */\n  add\n    /* \"#utility.yul\":2120:2145   */\n  gt\n    /* \"#utility.yul\":2117:2229   */\n  iszero\n  tag_51\n  jumpi\n    /* \"#utility.yul\":2148:2227   */\n  tag_52\n  tag_13\n  jump\t// in\ntag_52:\n    /* \"#utility.yul\":2117:2229   */\ntag_51:\n    /* \"#utility.yul\":2238:2290   */\n  tag_53\n    /* \"#utility.yul\":2283:2289   */\n  dup5\n    /* \"#utility.yul\":2278:2281   */\n  dup3\n    /* \"#utility.yul\":2273:2276   */\n  dup6\n    /* \"#utility.yul\":2238:2290   */\n  tag_19\n  jump\t// in\ntag_53:\n    /* \"#utility.yul\":1957:2296   */\n  pop\n    /* \"#utility.yul\":1862:2296   */\n  swap4\n  swap3\n  pop\n  pop\n  pop\n  jump\t// out\n    /* \"#utility.yul\":2316:2671   */\ntag_21:\n    /* \"#utility.yul\":2383:2388   */\n  0x00\n    /* \"#utility.yul\":2432:2435   */\n  dup3\n    /* \"#utility.yul\":2425:2429   */\n  0x1f\n    /* \"#utility.yul\":2417:2423   */\n  dup4\n    /* \"#utility.yul\":2413:2430   */\n  add\n    /* \"#utility.yul\":2409:2436   */\n  slt\n    /* \"#utility.yul\":2399:2521   */\n  tag_55\n  jumpi\n    /* \"#utility.yul\":2440:2519   */\n  tag_56\n  tag_12\n  jump\t// in\ntag_56:\n    /* \"#utility.yul\":2399:2521   */\ntag_55:\n    /* \"#utility.yul\":2550:2556   */\n  dup2\n    /* \"#utility.yul\":2544:2557   */\n  mload\n    /* \"#utility.yul\":2575:2665   */\n  tag_57\n    /* \"#utility.yul\":2661:2664   */\n  dup5\n    /* \"#utility.yul\":2653:2659   */\n  dup3\n    /* \"#utility.yul\":2646:2650   */\n  0x20\n    /* \"#utility.yul\":2638:2644   */\n  dup7\n    /* \"#utility.yul\":2634:2651   */\n  add\n    /* \"#utility.yul\":2575:2665   */\n  tag_20\n  jump\t// in\ntag_57:\n    /* \"#utility.yul\":2566:2665   */\n  swap2\n  pop\n    /* \"#utility.yul\":2389:2671   */\n  pop\n    /* \"#utility.yul\":2316:2671   */\n  swap3\n  swap2\n  pop\n  pop\n  jump\t// out\n    /* \"#utility.yul\":2677:3201   */\ntag_3:\n    /* \"#utility.yul\":2757:2763   */\n  0x00\n    /* \"#utility.yul\":2806:2808   */\n  0x20\n    /* \"#utility.yul\":2794:2803   */\n  dup3\n    /* \"#utility.yul\":2785:2792   */\n  dup5\n    /* \"#utility.yul\":2781:2804   */\n  sub\n    /* \"#utility.yul\":2777:2809   */\n  slt\n    /* \"#utility.yul\":2774:2893   */\n  iszero\n  tag_59\n  jumpi\n    /* \"#utility.yul\":2812:2891   */\n  tag_60\n  tag_10\n  jump\t// in\ntag_60:\n    /* \"#utility.yul\":2774:2893   */\ntag_59:\n    /* \"#utility.yul\":2953:2954   */\n  0x00\n    /* \"#utility.yul\":2942:2951   */\n  dup3\n    /* \"#utility.yul\":2938:2955   */\n  add\n    /* \"#utility.yul\":2932:2956   */\n  mload\n    /* \"#utility.yul\":2983:3001   */\n  0xffffffffffffffff\n    /* \"#utility.yul\":2975:2981   */\n  dup2\n    /* \"#utility.yul\":2972:3002   */\n  gt\n    /* \"#utility.yul\":2969:3086   */\n  iszero\n  tag_61\n  jumpi\n    /* \"#utility.yul\":3005:3084   */\n  tag_62\n  tag_11\n  jump\t// in\ntag_62:\n    /* \"#utility.yul\":2969:3086   */\ntag_61:\n    /* \"#utility.yul\":3110:3184   */\n  tag_63\n    /* \"#utility.yul\":3176:3183   */\n  dup5\n    /* \"#utility.yul\":3167:3173   */\n  dup3\n    /* \"#utility.yul\":3156:3165   */\n  dup6\n    /* \"#utility.yul\":3152:3174   */\n  add\n    /* \"#utility.yul\":3110:3184   */\n  tag_21\n  jump\t// in\ntag_63:\n    /* \"#utility.yul\":3100:3184   */\n  swap2\n  pop\n    /* \"#utility.yul\":2903:3194   */\n  pop\n    /* \"#utility.yul\":2677:3201   */\n  swap3\n  swap2\n  pop\n  pop\n  jump\t// out\n    /* \"#utility.yul\":3207:3306   */\ntag_22:\n    /* \"#utility.yul\":3259:3265   */\n  0x00\n    /* \"#utility.yul\":3293:3298   */\n  dup2\n    /* \"#utility.yul\":3287:3299   */\n  mload\n    /* \"#utility.yul\":3277:3299   */\n  swap1\n  pop\n    /* \"#utility.yul\":3207:3306   */\n  swap2\n  swap1\n  pop\n  jump\t// out\n    /* \"#utility.yul\":3312:3481   */\ntag_23:\n    /* \"#utility.yul\":3396:3407   */\n  0x00\n    /* \"#utility.yul\":3430:3436   */\n  dup3\n    /* \"#utility.yul\":3425:3428   */\n  dup3\n    /* \"#utility.yul\":3418:3437   */\n  mstore\n    /* \"#utility.yul\":3470:3474   */\n  0x20\n    /* \"#utility.yul\":3465:3468   */\n  dup3\n    /* \"#utility.yul\":3461:3475   */\n  add\n    /* \"#utility.yul\":3446:3475   */\n  swap1\n  pop\n    /* \"#utility.yul\":3312:3481   */\n  swap3\n  swap2\n  pop\n  pop\n  jump\t// out\n    /* \"#utility.yul\":3487:3864   */\ntag_24:\n    /* \"#utility.yul\":3575:3578   */\n  0x00\n    /* \"#utility.yul\":3603:3642   */\n  tag_67\n    /* \"#utility.yul\":3636:3641   */\n  dup3\n    /* \"#utility.yul\":3603:3642   */\n  tag_22\n  jump\t// in\ntag_67:\n    /* \"#utility.yul\":3658:3729   */\n  tag_68\n    /* \"#utility.yul\":3722:3728   */\n  dup2\n    /* \"#utility.yul\":3717:3720   */\n  dup6\n    /* \"#utility.yul\":3658:3729   */\n  tag_23\n  jump\t// in\ntag_68:\n    /* \"#utility.yul\":3651:3729   */\n  swap4\n  pop\n    /* \"#utility.yul\":3738:3803   */\n  tag_69\n    /* \"#utility.yul\":3796:3802   */\n  dup2\n    /* \"#utility.yul\":3791:3794   */\n  dup6\n    /* \"#utility.yul\":3784:3788   */\n  0x20\n    /* \"#utility.yul\":3777:3782   */\n  dup7\n    /* \"#utility.yul\":3773:3789   */\n  add\n    /* \"#utility.yul\":3738:3803   */\n  tag_19\n  jump\t// in\ntag_69:\n    /* \"#utility.yul\":3828:3857   */\n  tag_70\n    /* \"#utility.yul\":3850:3856   */\n  dup2\n    /* \"#utility.yul\":3828:3857   */\n  tag_14\n  jump\t// in\ntag_70:\n    /* \"#utility.yul\":3823:3826   */\n  dup5\n    /* \"#utility.yul\":3819:3858   */\n  add\n    /* \"#utility.yul\":3812:3858   */\n  swap2\n  pop\n    /* \"#utility.yul\":3579:3864   */\n  pop\n    /* \"#utility.yul\":3487:3864   */\n  swap3\n  swap2\n  pop\n  pop\n  jump\t// out\n    /* \"#utility.yul\":3870:4183   */\ntag_7:\n    /* \"#utility.yul\":3983:3987   */\n  0x00\n    /* \"#utility.yul\":4021:4023   */\n  0x20\n    /* \"#utility.yul\":4010:4019   */\n  dup3\n    /* \"#utility.yul\":4006:4024   */\n  add\n    /* \"#utility.yul\":3998:4024   */\n  swap1\n  pop\n    /* \"#utility.yul\":4070:4079   */\n  dup2\n    /* \"#utility.yul\":4064:4068   */\n  dup2\n    /* \"#utility.yul\":4060:4080   */\n  sub\n    /* \"#utility.yul\":4056:4057   */\n  0x00\n    /* \"#utility.yul\":4045:4054   */\n  dup4\n    /* \"#utility.yul\":4041:4058   */\n  add\n    /* \"#utility.yul\":4034:4081   */\n  mstore\n    /* \"#utility.yul\":4098:4176   */\n  tag_72\n    /* \"#utility.yul\":4171:4175   */\n  dup2\n    /* \"#utility.yul\":4162:4168   */\n  dup5\n    /* \"#utility.yul\":4098:4176   */\n  tag_24\n  jump\t// in\ntag_72:\n    /* \"#utility.yul\":4090:4176   */\n  swap1\n  pop\n    /* \"#utility.yul\":3870:4183   */\n  swap3\n  swap2\n  pop\n  pop\n  jump\t// out\n    /* \"contracts/5.videoifelse.sol\":108:2608  contract Combined {... */\ntag_8:\n  dataSize(sub_0)\n  dup1\n  dataOffset(sub_0)\n  0x00\n  codecopy\n  0x00\n  return\nstop\n\nsub_0: assembly {\n        /* \"contracts/5.videoifelse.sol\":108:2608  contract Combined {... */\n      mstore(0x40, 0x80)\n      callvalue\n      dup1\n      iszero\n      tag_1\n      jumpi\n      0x00\n      dup1\n      revert\n    tag_1:\n      pop\n      jumpi(tag_2, lt(calldatasize, 0x04))\n      shr(0xe0, calldataload(0x00))\n      dup1\n      0x62b44ce1\n      gt\n      tag_10\n      jumpi\n      dup1\n      0x62b44ce1\n      eq\n      tag_6\n      jumpi\n      dup1\n      0xa8d798ff\n      eq\n      tag_7\n      jumpi\n      dup1\n      0xc84c7205\n      eq\n      tag_8\n      jumpi\n      dup1\n      0xd9f0d049\n      eq\n      tag_9\n      jumpi\n      jump(tag_2)\n    tag_10:\n      dup1\n      0x0cf8d617\n      eq\n      tag_3\n      jumpi\n      dup1\n      0x2f41fc65\n      eq\n      tag_4\n      jumpi\n      dup1\n      0x3a7d280c\n      eq\n      tag_5\n      jumpi\n    tag_2:\n      0x00\n      dup1\n      revert\n        /* \"contracts/5.videoifelse.sol\":2338:2605  function listByWhile() public {... */\n    tag_3:\n      tag_11\n      tag_12\n      jump\t// in\n    tag_11:\n      stop\n        /* \"contracts/5.videoifelse.sol\":1284:1720  function loginStatus() public view returns (uint256) {... */\n    tag_4:\n      tag_13\n      tag_14\n      jump\t// in\n    tag_13:\n      mload(0x40)\n      tag_15\n      swap2\n      swap1\n      tag_16\n      jump\t// in\n    tag_15:\n      mload(0x40)\n      dup1\n      swap2\n      sub\n      swap1\n      return\n        /* \"contracts/5.videoifelse.sol\":839:1231  function login(string memory _password) public returns (bool) {... */\n    tag_5:\n      tag_17\n      0x04\n      dup1\n      calldatasize\n      sub\n      dup2\n      add\n      swap1\n      tag_18\n      swap2\n      swap1\n      tag_19\n      jump\t// in\n    tag_18:\n      tag_20\n      jump\t// in\n    tag_17:\n      mload(0x40)\n      tag_21\n      swap2\n      swap1\n      tag_22\n      jump\t// in\n    tag_21:\n      mload(0x40)\n      dup1\n      swap2\n      sub\n      swap1\n      return\n        /* \"contracts/5.videoifelse.sol\":489:516  uint256[15] public numbers1 */\n    tag_6:\n      tag_23\n      0x04\n      dup1\n      calldatasize\n      sub\n      dup2\n      add\n      swap1\n      tag_24\n      swap2\n      swap1\n      tag_25\n      jump\t// in\n    tag_24:\n      tag_26\n      jump\t// in\n    tag_23:\n      mload(0x40)\n      tag_27\n      swap2\n      swap1\n      tag_16\n      jump\t// in\n    tag_27:\n      mload(0x40)\n      dup1\n      swap2\n      sub\n      swap1\n      return\n        /* \"contracts/5.videoifelse.sol\":1783:2099  function listByFor() public {... */\n    tag_7:\n      tag_28\n      tag_29\n      jump\t// in\n    tag_28:\n      stop\n        /* \"contracts/5.videoifelse.sol\":414:441  uint256[15] public numbers0 */\n    tag_8:\n      tag_30\n      0x04\n      dup1\n      calldatasize\n      sub\n      dup2\n      add\n      swap1\n      tag_31\n      swap2\n      swap1\n      tag_25\n      jump\t// in\n    tag_31:\n      tag_32\n      jump\t// in\n    tag_30:\n      mload(0x40)\n      tag_33\n      swap2\n      swap1\n      tag_16\n      jump\t// in\n    tag_33:\n      mload(0x40)\n      dup1\n      swap2\n      sub\n      swap1\n      return\n        /* \"contracts/5.videoifelse.sol\":2156:2273  function getArr0() public view returns (uint256[15] memory) {... */\n    tag_9:\n      tag_34\n      tag_35\n      jump\t// in\n    tag_34:\n      mload(0x40)\n      tag_36\n      swap2\n      swap1\n      tag_37\n      jump\t// in\n    tag_36:\n      mload(0x40)\n      dup1\n      swap2\n      sub\n      swap1\n      return\n        /* \"contracts/5.videoifelse.sol\":2338:2605  function listByWhile() public {... */\n    tag_12:\n        /* \"contracts/5.videoifelse.sol\":2379:2388  uint256 i */\n      0x00\n        /* \"contracts/5.videoifelse.sol\":2436:2598  while (i < numbers1.length) {... */\n    tag_39:\n        /* \"contracts/5.videoifelse.sol\":2447:2462  numbers1.length */\n      0x0f\n        /* \"contracts/5.videoifelse.sol\":2443:2444  i */\n      dup2\n        /* \"contracts/5.videoifelse.sol\":2443:2462  i < numbers1.length */\n      lt\n        /* \"contracts/5.videoifelse.sol\":2436:2598  while (i < numbers1.length) {... */\n      iszero\n      tag_40\n      jumpi\n        /* \"contracts/5.videoifelse.sol\":2493:2494  i */\n      dup1\n        /* \"contracts/5.videoifelse.sol\":2479:2487  numbers1 */\n      0x11\n        /* \"contracts/5.videoifelse.sol\":2488:2489  i */\n      dup3\n        /* \"contracts/5.videoifelse.sol\":2479:2490  numbers1[i] */\n      0x0f\n      dup2\n      lt\n      tag_41\n      jumpi\n      tag_42\n      tag_43\n      jump\t// in\n    tag_42:\n    tag_41:\n      add\n        /* \"contracts/5.videoifelse.sol\":2479:2494  numbers1[i] = i */\n      dup2\n      swap1\n      sstore\n      pop\n        /* \"contracts/5.videoifelse.sol\":2556:2559  i++ */\n      dup1\n      dup1\n      tag_45\n      swap1\n      tag_46\n      jump\t// in\n    tag_45:\n      swap2\n      pop\n      pop\n        /* \"contracts/5.videoifelse.sol\":2436:2598  while (i < numbers1.length) {... */\n      jump(tag_39)\n    tag_40:\n        /* \"contracts/5.videoifelse.sol\":2368:2605  {... */\n      pop\n        /* \"contracts/5.videoifelse.sol\":2338:2605  function listByWhile() public {... */\n      jump\t// out\n        /* \"contracts/5.videoifelse.sol\":1284:1720  function loginStatus() public view returns (uint256) {... */\n    tag_14:\n        /* \"contracts/5.videoifelse.sol\":1328:1335  uint256 */\n      0x00\n        /* \"contracts/5.videoifelse.sol\":1366:1367  0 */\n      dup1\n        /* \"contracts/5.videoifelse.sol\":1352:1362  logincount */\n      sload(0x01)\n        /* \"contracts/5.videoifelse.sol\":1352:1367  logincount == 0 */\n      sub\n        /* \"contracts/5.videoifelse.sol\":1348:1713  if (logincount == 0) {... */\n      tag_48\n      jumpi\n        /* \"contracts/5.videoifelse.sol\":1391:1392  0 */\n      0x00\n        /* \"contracts/5.videoifelse.sol\":1384:1392  return 0 */\n      swap1\n      pop\n      jump(tag_47)\n        /* \"contracts/5.videoifelse.sol\":1348:1713  if (logincount == 0) {... */\n    tag_48:\n        /* \"contracts/5.videoifelse.sol\":1457:1458  0 */\n      0x00\n        /* \"contracts/5.videoifelse.sol\":1444:1454  logincount */\n      sload(0x01)\n        /* \"contracts/5.videoifelse.sol\":1444:1458  logincount > 0 */\n      gt\n        /* \"contracts/5.videoifelse.sol\":1444:1477  logincount > 0 && logincount != 1 */\n      dup1\n      iszero\n      tag_50\n      jumpi\n      pop\n        /* \"contracts/5.videoifelse.sol\":1476:1477  1 */\n      0x01\n        /* \"contracts/5.videoifelse.sol\":1462:1472  logincount */\n      dup1\n      sload\n        /* \"contracts/5.videoifelse.sol\":1462:1477  logincount != 1 */\n      eq\n      iszero\n        /* \"contracts/5.videoifelse.sol\":1444:1477  logincount > 0 && logincount != 1 */\n    tag_50:\n        /* \"contracts/5.videoifelse.sol\":1440:1713  if (logincount > 0 && logincount != 1) {... */\n      iszero\n      tag_51\n      jumpi\n        /* \"contracts/5.videoifelse.sol\":1501:1502  1 */\n      0x01\n        /* \"contracts/5.videoifelse.sol\":1494:1502  return 1 */\n      swap1\n      pop\n      jump(tag_47)\n        /* \"contracts/5.videoifelse.sol\":1440:1713  if (logincount > 0 && logincount != 1) {... */\n    tag_51:\n        /* \"contracts/5.videoifelse.sol\":1574:1575  1 */\n      0x01\n        /* \"contracts/5.videoifelse.sol\":1560:1570  logincount */\n      dup1\n      sload\n        /* \"contracts/5.videoifelse.sol\":1560:1575  logincount == 1 */\n      sub\n        /* \"contracts/5.videoifelse.sol\":1556:1713  if (logincount == 1) {... */\n      tag_53\n      jumpi\n        /* \"contracts/5.videoifelse.sol\":1599:1600  2 */\n      0x02\n        /* \"contracts/5.videoifelse.sol\":1592:1600  return 2 */\n      swap1\n      pop\n      jump(tag_47)\n        /* \"contracts/5.videoifelse.sol\":1556:1713  if (logincount == 1) {... */\n    tag_53:\n        /* \"contracts/5.videoifelse.sol\":1678:1679  0 */\n      0x00\n        /* \"contracts/5.videoifelse.sol\":1671:1679  return 0 */\n      swap1\n      pop\n        /* \"contracts/5.videoifelse.sol\":1284:1720  function loginStatus() public view returns (uint256) {... */\n    tag_47:\n      swap1\n      jump\t// out\n        /* \"contracts/5.videoifelse.sol\":839:1231  function login(string memory _password) public returns (bool) {... */\n    tag_20:\n        /* \"contracts/5.videoifelse.sol\":895:899  bool */\n      0x00\n        /* \"contracts/5.videoifelse.sol\":1005:1014  _password */\n      dup2\n        /* \"contracts/5.videoifelse.sol\":994:1015  abi.encode(_password) */\n      add(0x20, mload(0x40))\n      tag_56\n      swap2\n      swap1\n      tag_57\n      jump\t// in\n    tag_56:\n      mload(0x40)\n      0x20\n      dup2\n      dup4\n      sub\n      sub\n      dup2\n      mstore\n      swap1\n      0x40\n      mstore\n        /* \"contracts/5.videoifelse.sol\":984:1016  keccak256(abi.encode(_password)) */\n      dup1\n      mload\n      swap1\n      0x20\n      add\n      keccak256\n        /* \"contracts/5.videoifelse.sol\":972:980  hashcode */\n      sload(0x00)\n        /* \"contracts/5.videoifelse.sol\":972:1016  hashcode == keccak256(abi.encode(_password)) */\n      sub\n        /* \"contracts/5.videoifelse.sol\":968:1224  if (hashcode == keccak256(abi.encode(_password))) {... */\n      tag_58\n      jumpi\n        /* \"contracts/5.videoifelse.sol\":1033:1043  logincount */\n      0x01\n      0x00\n        /* \"contracts/5.videoifelse.sol\":1033:1045  logincount++ */\n      dup2\n      sload\n      dup1\n      swap3\n      swap2\n      swap1\n      tag_59\n      swap1\n      tag_46\n      jump\t// in\n    tag_59:\n      swap2\n      swap1\n      pop\n      sstore\n      pop\n        /* \"contracts/5.videoifelse.sol\":1115:1119  true */\n      0x01\n        /* \"contracts/5.videoifelse.sol\":1108:1119  return true */\n      swap1\n      pop\n      jump(tag_55)\n        /* \"contracts/5.videoifelse.sol\":968:1224  if (hashcode == keccak256(abi.encode(_password))) {... */\n    tag_58:\n        /* \"contracts/5.videoifelse.sol\":1183:1188  false */\n      0x00\n        /* \"contracts/5.videoifelse.sol\":1176:1188  return false */\n      swap1\n      pop\n        /* \"contracts/5.videoifelse.sol\":839:1231  function login(string memory _password) public returns (bool) {... */\n    tag_55:\n      swap2\n      swap1\n      pop\n      jump\t// out\n        /* \"contracts/5.videoifelse.sol\":489:516  uint256[15] public numbers1 */\n    tag_26:\n      0x11\n      dup2\n      0x0f\n      dup2\n      lt\n      tag_61\n      jumpi\n      0x00\n      dup1\n      revert\n    tag_61:\n      add\n      0x00\n      swap2\n      pop\n      swap1\n      pop\n      sload\n      dup2\n      jump\t// out\n        /* \"contracts/5.videoifelse.sol\":1783:2099  function listByFor() public {... */\n    tag_29:\n        /* \"contracts/5.videoifelse.sol\":1822:1845  uint256[15] memory nums */\n      0x00\n        /* \"contracts/5.videoifelse.sol\":1848:1856  numbers0 */\n      0x02\n        /* \"contracts/5.videoifelse.sol\":1822:1856  uint256[15] memory nums = numbers0 */\n      0x0f\n      dup1\n      0x20\n      mul\n      mload(0x40)\n      swap1\n      dup2\n      add\n      0x40\n      mstore\n      dup1\n      swap3\n      swap2\n      swap1\n      dup3\n      0x0f\n      dup1\n      iszero\n      tag_64\n      jumpi\n      0x20\n      mul\n      dup3\n      add\n      swap2\n    tag_65:\n      dup2\n      sload\n      dup2\n      mstore\n      0x20\n      add\n      swap1\n      0x01\n      add\n      swap1\n      dup1\n      dup4\n      gt\n      tag_65\n      jumpi\n    tag_64:\n      pop\n      pop\n      pop\n      pop\n      pop\n      swap1\n      pop\n        /* \"contracts/5.videoifelse.sol\":1902:1911  uint256 i */\n      0x00\n        /* \"contracts/5.videoifelse.sol\":1897:2020  for (uint256 i = 0; i < nums.length; i++) {... */\n    tag_66:\n        /* \"contracts/5.videoifelse.sol\":1921:1932  nums.length */\n      0x0f\n        /* \"contracts/5.videoifelse.sol\":1917:1918  i */\n      dup2\n        /* \"contracts/5.videoifelse.sol\":1917:1932  i < nums.length */\n      lt\n        /* \"contracts/5.videoifelse.sol\":1897:2020  for (uint256 i = 0; i < nums.length; i++) {... */\n      iszero\n      tag_67\n      jumpi\n        /* \"contracts/5.videoifelse.sol\":1968:1969  2 */\n      0x02\n        /* \"contracts/5.videoifelse.sol\":1964:1965  i */\n      dup2\n        /* \"contracts/5.videoifelse.sol\":1964:1969  i * 2 */\n      tag_69\n      swap2\n      swap1\n      tag_70\n      jump\t// in\n    tag_69:\n        /* \"contracts/5.videoifelse.sol\":1954:1958  nums */\n      dup3\n        /* \"contracts/5.videoifelse.sol\":1959:1960  i */\n      dup3\n        /* \"contracts/5.videoifelse.sol\":1954:1961  nums[i] */\n      0x0f\n      dup2\n      lt\n      tag_71\n      jumpi\n      tag_72\n      tag_43\n      jump\t// in\n    tag_72:\n    tag_71:\n      0x20\n      mul\n      add\n        /* \"contracts/5.videoifelse.sol\":1954:1969  nums[i] = i * 2 */\n      dup2\n      dup2\n      mstore\n      pop\n      pop\n        /* \"contracts/5.videoifelse.sol\":1934:1937  i++ */\n      dup1\n      dup1\n      tag_73\n      swap1\n      tag_46\n      jump\t// in\n    tag_73:\n      swap2\n      pop\n      pop\n        /* \"contracts/5.videoifelse.sol\":1897:2020  for (uint256 i = 0; i < nums.length; i++) {... */\n      jump(tag_66)\n    tag_67:\n      pop\n        /* \"contracts/5.videoifelse.sol\":2041:2045  nums */\n      dup1\n        /* \"contracts/5.videoifelse.sol\":2030:2038  numbers0 */\n      0x02\n        /* \"contracts/5.videoifelse.sol\":2030:2045  numbers0 = nums */\n      swap1\n      0x0f\n      tag_74\n      swap3\n      swap2\n      swap1\n      tag_75\n      jump\t// in\n    tag_74:\n      pop\n        /* \"contracts/5.videoifelse.sol\":1811:2099  {... */\n      pop\n        /* \"contracts/5.videoifelse.sol\":1783:2099  function listByFor() public {... */\n      jump\t// out\n        /* \"contracts/5.videoifelse.sol\":414:441  uint256[15] public numbers0 */\n    tag_32:\n      0x02\n      dup2\n      0x0f\n      dup2\n      lt\n      tag_76\n      jumpi\n      0x00\n      dup1\n      revert\n    tag_76:\n      add\n      0x00\n      swap2\n      pop\n      swap1\n      pop\n      sload\n      dup2\n      jump\t// out\n        /* \"contracts/5.videoifelse.sol\":2156:2273  function getArr0() public view returns (uint256[15] memory) {... */\n    tag_35:\n        /* \"contracts/5.videoifelse.sol\":2196:2214  uint256[15] memory */\n      tag_78\n      tag_79\n      jump\t// in\n    tag_78:\n        /* \"contracts/5.videoifelse.sol\":2234:2242  numbers0 */\n      0x02\n        /* \"contracts/5.videoifelse.sol\":2227:2242  return numbers0 */\n      0x0f\n      dup1\n      0x20\n      mul\n      mload(0x40)\n      swap1\n      dup2\n      add\n      0x40\n      mstore\n      dup1\n      swap3\n      swap2\n      swap1\n      dup3\n      0x0f\n      dup1\n      iszero\n      tag_81\n      jumpi\n      0x20\n      mul\n      dup3\n      add\n      swap2\n    tag_82:\n      dup2\n      sload\n      dup2\n      mstore\n      0x20\n      add\n      swap1\n      0x01\n      add\n      swap1\n      dup1\n      dup4\n      gt\n      tag_82\n      jumpi\n    tag_81:\n      pop\n      pop\n      pop\n      pop\n      pop\n      swap1\n      pop\n        /* \"contracts/5.videoifelse.sol\":2156:2273  function getArr0() public view returns (uint256[15] memory) {... */\n      swap1\n      jump\t// out\n    tag_75:\n      dup3\n      0x0f\n      dup2\n      add\n      swap3\n      dup3\n      iszero\n      tag_83\n      jumpi\n      swap2\n      0x20\n      mul\n      dup3\n      add\n    tag_84:\n      dup3\n      dup2\n      gt\n      iszero\n      tag_85\n      jumpi\n      dup3\n      mload\n      dup3\n      sstore\n      swap2\n      0x20\n      add\n      swap2\n      swap1\n      0x01\n      add\n      swap1\n      jump(tag_84)\n    tag_85:\n    tag_83:\n      pop\n      swap1\n      pop\n      tag_86\n      swap2\n      swap1\n      tag_87\n      jump\t// in\n    tag_86:\n      pop\n      swap1\n      jump\t// out\n    tag_79:\n      mload(0x40)\n      dup1\n      0x01e0\n      add\n      0x40\n      mstore\n      dup1\n      0x0f\n      swap1\n      0x20\n      dup3\n      mul\n      dup1\n      calldatasize\n      dup4\n      calldatacopy\n      dup1\n      dup3\n      add\n      swap2\n      pop\n      pop\n      swap1\n      pop\n      pop\n      swap1\n      jump\t// out\n    tag_87:\n    tag_88:\n      dup1\n      dup3\n      gt\n      iszero\n      tag_89\n      jumpi\n      0x00\n      dup2\n      0x00\n      swap1\n      sstore\n      pop\n      0x01\n      add\n      jump(tag_88)\n    tag_89:\n      pop\n      swap1\n      jump\t// out\n        /* \"#utility.yul\":7:84   */\n    tag_90:\n        /* \"#utility.yul\":44:51   */\n      0x00\n        /* \"#utility.yul\":73:78   */\n      dup2\n        /* \"#utility.yul\":62:78   */\n      swap1\n      pop\n        /* \"#utility.yul\":7:84   */\n      swap2\n      swap1\n      pop\n      jump\t// out\n        /* \"#utility.yul\":90:208   */\n    tag_91:\n        /* \"#utility.yul\":177:201   */\n      tag_124\n        /* \"#utility.yul\":195:200   */\n      dup2\n        /* \"#utility.yul\":177:201   */\n      tag_90\n      jump\t// in\n    tag_124:\n        /* \"#utility.yul\":172:175   */\n      dup3\n        /* \"#utility.yul\":165:202   */\n      mstore\n        /* \"#utility.yul\":90:208   */\n      pop\n      pop\n      jump\t// out\n        /* \"#utility.yul\":214:436   */\n    tag_16:\n        /* \"#utility.yul\":307:311   */\n      0x00\n        /* \"#utility.yul\":345:347   */\n      0x20\n        /* \"#utility.yul\":334:343   */\n      dup3\n        /* \"#utility.yul\":330:348   */\n      add\n        /* \"#utility.yul\":322:348   */\n      swap1\n      pop\n        /* \"#utility.yul\":358:429   */\n      tag_126\n        /* \"#utility.yul\":426:427   */\n      0x00\n        /* \"#utility.yul\":415:424   */\n      dup4\n        /* \"#utility.yul\":411:428   */\n      add\n        /* \"#utility.yul\":402:408   */\n      dup5\n        /* \"#utility.yul\":358:429   */\n      tag_91\n      jump\t// in\n    tag_126:\n        /* \"#utility.yul\":214:436   */\n      swap3\n      swap2\n      pop\n      pop\n      jump\t// out\n        /* \"#utility.yul\":442:517   */\n    tag_92:\n        /* \"#utility.yul\":475:481   */\n      0x00\n        /* \"#utility.yul\":508:510   */\n      0x40\n        /* \"#utility.yul\":502:511   */\n      mload\n        /* \"#utility.yul\":492:511   */\n      swap1\n      pop\n        /* \"#utility.yul\":442:517   */\n      swap1\n      jump\t// out\n        /* \"#utility.yul\":523:640   */\n    tag_93:\n        /* \"#utility.yul\":632:633   */\n      0x00\n        /* \"#utility.yul\":629:630   */\n      dup1\n        /* \"#utility.yul\":622:634   */\n      revert\n        /* \"#utility.yul\":646:763   */\n    tag_94:\n        /* \"#utility.yul\":755:756   */\n      0x00\n        /* \"#utility.yul\":752:753   */\n      dup1\n        /* \"#utility.yul\":745:757   */\n      revert\n        /* \"#utility.yul\":769:886   */\n    tag_95:\n        /* \"#utility.yul\":878:879   */\n      0x00\n        /* \"#utility.yul\":875:876   */\n      dup1\n        /* \"#utility.yul\":868:880   */\n      revert\n        /* \"#utility.yul\":892:1009   */\n    tag_96:\n        /* \"#utility.yul\":1001:1002   */\n      0x00\n        /* \"#utility.yul\":998:999   */\n      dup1\n        /* \"#utility.yul\":991:1003   */\n      revert\n        /* \"#utility.yul\":1015:1117   */\n    tag_97:\n        /* \"#utility.yul\":1056:1062   */\n      0x00\n        /* \"#utility.yul\":1107:1109   */\n      0x1f\n        /* \"#utility.yul\":1103:1110   */\n      not\n        /* \"#utility.yul\":1098:1100   */\n      0x1f\n        /* \"#utility.yul\":1091:1096   */\n      dup4\n        /* \"#utility.yul\":1087:1101   */\n      add\n        /* \"#utility.yul\":1083:1111   */\n      and\n        /* \"#utility.yul\":1073:1111   */\n      swap1\n      pop\n        /* \"#utility.yul\":1015:1117   */\n      swap2\n      swap1\n      pop\n      jump\t// out\n        /* \"#utility.yul\":1123:1303   */\n    tag_98:\n        /* \"#utility.yul\":1171:1248   */\n      0x4e487b7100000000000000000000000000000000000000000000000000000000\n        /* \"#utility.yul\":1168:1169   */\n      0x00\n        /* \"#utility.yul\":1161:1249   */\n      mstore\n        /* \"#utility.yul\":1268:1272   */\n      0x41\n        /* \"#utility.yul\":1265:1266   */\n      0x04\n        /* \"#utility.yul\":1258:1273   */\n      mstore\n        /* \"#utility.yul\":1292:1296   */\n      0x24\n        /* \"#utility.yul\":1289:1290   */\n      0x00\n        /* \"#utility.yul\":1282:1297   */\n      revert\n        /* \"#utility.yul\":1309:1590   */\n    tag_99:\n        /* \"#utility.yul\":1392:1419   */\n      tag_135\n        /* \"#utility.yul\":1414:1418   */\n      dup3\n        /* \"#utility.yul\":1392:1419   */\n      tag_97\n      jump\t// in\n    tag_135:\n        /* \"#utility.yul\":1384:1390   */\n      dup2\n        /* \"#utility.yul\":1380:1420   */\n      add\n        /* \"#utility.yul\":1522:1528   */\n      dup2\n        /* \"#utility.yul\":1510:1520   */\n      dup2\n        /* \"#utility.yul\":1507:1529   */\n      lt\n        /* \"#utility.yul\":1486:1504   */\n      0xffffffffffffffff\n        /* \"#utility.yul\":1474:1484   */\n      dup3\n        /* \"#utility.yul\":1471:1505   */\n      gt\n        /* \"#utility.yul\":1468:1530   */\n      or\n        /* \"#utility.yul\":1465:1553   */\n      iszero\n      tag_136\n      jumpi\n        /* \"#utility.yul\":1533:1551   */\n      tag_137\n      tag_98\n      jump\t// in\n    tag_137:\n        /* \"#utility.yul\":1465:1553   */\n    tag_136:\n        /* \"#utility.yul\":1573:1583   */\n      dup1\n        /* \"#utility.yul\":1569:1571   */\n      0x40\n        /* \"#utility.yul\":1562:1584   */\n      mstore\n        /* \"#utility.yul\":1352:1590   */\n      pop\n        /* \"#utility.yul\":1309:1590   */\n      pop\n      pop\n      jump\t// out\n        /* \"#utility.yul\":1596:1725   */\n    tag_100:\n        /* \"#utility.yul\":1630:1636   */\n      0x00\n        /* \"#utility.yul\":1657:1677   */\n      tag_139\n      tag_92\n      jump\t// in\n    tag_139:\n        /* \"#utility.yul\":1647:1677   */\n      swap1\n      pop\n        /* \"#utility.yul\":1686:1719   */\n      tag_140\n        /* \"#utility.yul\":1714:1718   */\n      dup3\n        /* \"#utility.yul\":1706:1712   */\n      dup3\n        /* \"#utility.yul\":1686:1719   */\n      tag_99\n      jump\t// in\n    tag_140:\n        /* \"#utility.yul\":1596:1725   */\n      swap2\n      swap1\n      pop\n      jump\t// out\n        /* \"#utility.yul\":1731:2039   */\n    tag_101:\n        /* \"#utility.yul\":1793:1797   */\n      0x00\n        /* \"#utility.yul\":1883:1901   */\n      0xffffffffffffffff\n        /* \"#utility.yul\":1875:1881   */\n      dup3\n        /* \"#utility.yul\":1872:1902   */\n      gt\n        /* \"#utility.yul\":1869:1925   */\n      iszero\n      tag_142\n      jumpi\n        /* \"#utility.yul\":1905:1923   */\n      tag_143\n      tag_98\n      jump\t// in\n    tag_143:\n        /* \"#utility.yul\":1869:1925   */\n    tag_142:\n        /* \"#utility.yul\":1943:1972   */\n      tag_144\n        /* \"#utility.yul\":1965:1971   */\n      dup3\n        /* \"#utility.yul\":1943:1972   */\n      tag_97\n      jump\t// in\n    tag_144:\n        /* \"#utility.yul\":1935:1972   */\n      swap1\n      pop\n        /* \"#utility.yul\":2027:2031   */\n      0x20\n        /* \"#utility.yul\":2021:2025   */\n      dup2\n        /* \"#utility.yul\":2017:2032   */\n      add\n        /* \"#utility.yul\":2009:2032   */\n      swap1\n      pop\n        /* \"#utility.yul\":1731:2039   */\n      swap2\n      swap1\n      pop\n      jump\t// out\n        /* \"#utility.yul\":2045:2191   */\n    tag_102:\n        /* \"#utility.yul\":2142:2148   */\n      dup3\n        /* \"#utility.yul\":2137:2140   */\n      dup2\n        /* \"#utility.yul\":2132:2135   */\n      dup4\n        /* \"#utility.yul\":2119:2149   */\n      calldatacopy\n        /* \"#utility.yul\":2183:2184   */\n      0x00\n        /* \"#utility.yul\":2174:2180   */\n      dup4\n        /* \"#utility.yul\":2169:2172   */\n      dup4\n        /* \"#utility.yul\":2165:2181   */\n      add\n        /* \"#utility.yul\":2158:2185   */\n      mstore\n        /* \"#utility.yul\":2045:2191   */\n      pop\n      pop\n      pop\n      jump\t// out\n        /* \"#utility.yul\":2197:2622   */\n    tag_103:\n        /* \"#utility.yul\":2275:2280   */\n      0x00\n        /* \"#utility.yul\":2300:2366   */\n      tag_147\n        /* \"#utility.yul\":2316:2365   */\n      tag_148\n        /* \"#utility.yul\":2358:2364   */\n      dup5\n        /* \"#utility.yul\":2316:2365   */\n      tag_101\n      jump\t// in\n    tag_148:\n        /* \"#utility.yul\":2300:2366   */\n      tag_100\n      jump\t// in\n    tag_147:\n        /* \"#utility.yul\":2291:2366   */\n      swap1\n      pop\n        /* \"#utility.yul\":2389:2395   */\n      dup3\n        /* \"#utility.yul\":2382:2387   */\n      dup2\n        /* \"#utility.yul\":2375:2396   */\n      mstore\n        /* \"#utility.yul\":2427:2431   */\n      0x20\n        /* \"#utility.yul\":2420:2425   */\n      dup2\n        /* \"#utility.yul\":2416:2432   */\n      add\n        /* \"#utility.yul\":2465:2468   */\n      dup5\n        /* \"#utility.yul\":2456:2462   */\n      dup5\n        /* \"#utility.yul\":2451:2454   */\n      dup5\n        /* \"#utility.yul\":2447:2463   */\n      add\n        /* \"#utility.yul\":2444:2469   */\n      gt\n        /* \"#utility.yul\":2441:2553   */\n      iszero\n      tag_149\n      jumpi\n        /* \"#utility.yul\":2472:2551   */\n      tag_150\n      tag_96\n      jump\t// in\n    tag_150:\n        /* \"#utility.yul\":2441:2553   */\n    tag_149:\n        /* \"#utility.yul\":2562:2616   */\n      tag_151\n        /* \"#utility.yul\":2609:2615   */\n      dup5\n        /* \"#utility.yul\":2604:2607   */\n      dup3\n        /* \"#utility.yul\":2599:2602   */\n      dup6\n        /* \"#utility.yul\":2562:2616   */\n      tag_102\n      jump\t// in\n    tag_151:\n        /* \"#utility.yul\":2281:2622   */\n      pop\n        /* \"#utility.yul\":2197:2622   */\n      swap4\n      swap3\n      pop\n      pop\n      pop\n      jump\t// out\n        /* \"#utility.yul\":2642:2982   */\n    tag_104:\n        /* \"#utility.yul\":2698:2703   */\n      0x00\n        /* \"#utility.yul\":2747:2750   */\n      dup3\n        /* \"#utility.yul\":2740:2744   */\n      0x1f\n        /* \"#utility.yul\":2732:2738   */\n      dup4\n        /* \"#utility.yul\":2728:2745   */\n      add\n        /* \"#utility.yul\":2724:2751   */\n      slt\n        /* \"#utility.yul\":2714:2836   */\n      tag_153\n      jumpi\n        /* \"#utility.yul\":2755:2834   */\n      tag_154\n      tag_95\n      jump\t// in\n    tag_154:\n        /* \"#utility.yul\":2714:2836   */\n    tag_153:\n        /* \"#utility.yul\":2872:2878   */\n      dup2\n        /* \"#utility.yul\":2859:2879   */\n      calldataload\n        /* \"#utility.yul\":2897:2976   */\n      tag_155\n        /* \"#utility.yul\":2972:2975   */\n      dup5\n        /* \"#utility.yul\":2964:2970   */\n      dup3\n        /* \"#utility.yul\":2957:2961   */\n      0x20\n        /* \"#utility.yul\":2949:2955   */\n      dup7\n        /* \"#utility.yul\":2945:2962   */\n      add\n        /* \"#utility.yul\":2897:2976   */\n      tag_103\n      jump\t// in\n    tag_155:\n        /* \"#utility.yul\":2888:2976   */\n      swap2\n      pop\n        /* \"#utility.yul\":2704:2982   */\n      pop\n        /* \"#utility.yul\":2642:2982   */\n      swap3\n      swap2\n      pop\n      pop\n      jump\t// out\n        /* \"#utility.yul\":2988:3497   */\n    tag_19:\n        /* \"#utility.yul\":3057:3063   */\n      0x00\n        /* \"#utility.yul\":3106:3108   */\n      0x20\n        /* \"#utility.yul\":3094:3103   */\n      dup3\n        /* \"#utility.yul\":3085:3092   */\n      dup5\n        /* \"#utility.yul\":3081:3104   */\n      sub\n        /* \"#utility.yul\":3077:3109   */\n      slt\n        /* \"#utility.yul\":3074:3193   */\n      iszero\n      tag_157\n      jumpi\n        /* \"#utility.yul\":3112:3191   */\n      tag_158\n      tag_93\n      jump\t// in\n    tag_158:\n        /* \"#utility.yul\":3074:3193   */\n    tag_157:\n        /* \"#utility.yul\":3260:3261   */\n      0x00\n        /* \"#utility.yul\":3249:3258   */\n      dup3\n        /* \"#utility.yul\":3245:3262   */\n      add\n        /* \"#utility.yul\":3232:3263   */\n      calldataload\n        /* \"#utility.yul\":3290:3308   */\n      0xffffffffffffffff\n        /* \"#utility.yul\":3282:3288   */\n      dup2\n        /* \"#utility.yul\":3279:3309   */\n      gt\n        /* \"#utility.yul\":3276:3393   */\n      iszero\n      tag_159\n      jumpi\n        /* \"#utility.yul\":3312:3391   */\n      tag_160\n      tag_94\n      jump\t// in\n    tag_160:\n        /* \"#utility.yul\":3276:3393   */\n    tag_159:\n        /* \"#utility.yul\":3417:3480   */\n      tag_161\n        /* \"#utility.yul\":3472:3479   */\n      dup5\n        /* \"#utility.yul\":3463:3469   */\n      dup3\n        /* \"#utility.yul\":3452:3461   */\n      dup6\n        /* \"#utility.yul\":3448:3470   */\n      add\n        /* \"#utility.yul\":3417:3480   */\n      tag_104\n      jump\t// in\n    tag_161:\n        /* \"#utility.yul\":3407:3480   */\n      swap2\n      pop\n        /* \"#utility.yul\":3203:3490   */\n      pop\n        /* \"#utility.yul\":2988:3497   */\n      swap3\n      swap2\n      pop\n      pop\n      jump\t// out\n        /* \"#utility.yul\":3503:3593   */\n    tag_105:\n        /* \"#utility.yul\":3537:3544   */\n      0x00\n        /* \"#utility.yul\":3580:3585   */\n      dup2\n        /* \"#utility.yul\":3573:3586   */\n      iszero\n        /* \"#utility.yul\":3566:3587   */\n      iszero\n        /* \"#utility.yul\":3555:3587   */\n      swap1\n      pop\n        /* \"#utility.yul\":3503:3593   */\n      swap2\n      swap1\n      pop\n      jump\t// out\n        /* \"#utility.yul\":3599:3708   */\n    tag_106:\n        /* \"#utility.yul\":3680:3701   */\n      tag_164\n        /* \"#utility.yul\":3695:3700   */\n      dup2\n        /* \"#utility.yul\":3680:3701   */\n      tag_105\n      jump\t// in\n    tag_164:\n        /* \"#utility.yul\":3675:3678   */\n      dup3\n        /* \"#utility.yul\":3668:3702   */\n      mstore\n        /* \"#utility.yul\":3599:3708   */\n      pop\n      pop\n      jump\t// out\n        /* \"#utility.yul\":3714:3924   */\n    tag_22:\n        /* \"#utility.yul\":3801:3805   */\n      0x00\n        /* \"#utility.yul\":3839:3841   */\n      0x20\n        /* \"#utility.yul\":3828:3837   */\n      dup3\n        /* \"#utility.yul\":3824:3842   */\n      add\n        /* \"#utility.yul\":3816:3842   */\n      swap1\n      pop\n        /* \"#utility.yul\":3852:3917   */\n      tag_166\n        /* \"#utility.yul\":3914:3915   */\n      0x00\n        /* \"#utility.yul\":3903:3912   */\n      dup4\n        /* \"#utility.yul\":3899:3916   */\n      add\n        /* \"#utility.yul\":3890:3896   */\n      dup5\n        /* \"#utility.yul\":3852:3917   */\n      tag_106\n      jump\t// in\n    tag_166:\n        /* \"#utility.yul\":3714:3924   */\n      swap3\n      swap2\n      pop\n      pop\n      jump\t// out\n        /* \"#utility.yul\":3930:4052   */\n    tag_107:\n        /* \"#utility.yul\":4003:4027   */\n      tag_168\n        /* \"#utility.yul\":4021:4026   */\n      dup2\n        /* \"#utility.yul\":4003:4027   */\n      tag_90\n      jump\t// in\n    tag_168:\n        /* \"#utility.yul\":3996:4001   */\n      dup2\n        /* \"#utility.yul\":3993:4028   */\n      eq\n        /* \"#utility.yul\":3983:4046   */\n      tag_169\n      jumpi\n        /* \"#utility.yul\":4042:4043   */\n      0x00\n        /* \"#utility.yul\":4039:4040   */\n      dup1\n        /* \"#utility.yul\":4032:4044   */\n      revert\n        /* \"#utility.yul\":3983:4046   */\n    tag_169:\n        /* \"#utility.yul\":3930:4052   */\n      pop\n      jump\t// out\n        /* \"#utility.yul\":4058:4197   */\n    tag_108:\n        /* \"#utility.yul\":4104:4109   */\n      0x00\n        /* \"#utility.yul\":4142:4148   */\n      dup2\n        /* \"#utility.yul\":4129:4149   */\n      calldataload\n        /* \"#utility.yul\":4120:4149   */\n      swap1\n      pop\n        /* \"#utility.yul\":4158:4191   */\n      tag_171\n        /* \"#utility.yul\":4185:4190   */\n      dup2\n        /* \"#utility.yul\":4158:4191   */\n      tag_107\n      jump\t// in\n    tag_171:\n        /* \"#utility.yul\":4058:4197   */\n      swap3\n      swap2\n      pop\n      pop\n      jump\t// out\n        /* \"#utility.yul\":4203:4532   */\n    tag_25:\n        /* \"#utility.yul\":4262:4268   */\n      0x00\n        /* \"#utility.yul\":4311:4313   */\n      0x20\n        /* \"#utility.yul\":4299:4308   */\n      dup3\n        /* \"#utility.yul\":4290:4297   */\n      dup5\n        /* \"#utility.yul\":4286:4309   */\n      sub\n        /* \"#utility.yul\":4282:4314   */\n      slt\n        /* \"#utility.yul\":4279:4398   */\n      iszero\n      tag_173\n      jumpi\n        /* \"#utility.yul\":4317:4396   */\n      tag_174\n      tag_93\n      jump\t// in\n    tag_174:\n        /* \"#utility.yul\":4279:4398   */\n    tag_173:\n        /* \"#utility.yul\":4437:4438   */\n      0x00\n        /* \"#utility.yul\":4462:4515   */\n      tag_175\n        /* \"#utility.yul\":4507:4514   */\n      dup5\n        /* \"#utility.yul\":4498:4504   */\n      dup3\n        /* \"#utility.yul\":4487:4496   */\n      dup6\n        /* \"#utility.yul\":4483:4505   */\n      add\n        /* \"#utility.yul\":4462:4515   */\n      tag_108\n      jump\t// in\n    tag_175:\n        /* \"#utility.yul\":4452:4515   */\n      swap2\n      pop\n        /* \"#utility.yul\":4408:4525   */\n      pop\n        /* \"#utility.yul\":4203:4532   */\n      swap3\n      swap2\n      pop\n      pop\n      jump\t// out\n        /* \"#utility.yul\":4538:4643   */\n    tag_109:\n        /* \"#utility.yul\":4604:4610   */\n      0x00\n        /* \"#utility.yul\":4632:4636   */\n      0x0f\n        /* \"#utility.yul\":4622:4636   */\n      swap1\n      pop\n        /* \"#utility.yul\":4538:4643   */\n      swap2\n      swap1\n      pop\n      jump\t// out\n        /* \"#utility.yul\":4649:4793   */\n    tag_110:\n        /* \"#utility.yul\":4747:4758   */\n      0x00\n        /* \"#utility.yul\":4784:4787   */\n      dup2\n        /* \"#utility.yul\":4769:4787   */\n      swap1\n      pop\n        /* \"#utility.yul\":4649:4793   */\n      swap3\n      swap2\n      pop\n      pop\n      jump\t// out\n        /* \"#utility.yul\":4799:4898   */\n    tag_111:\n        /* \"#utility.yul\":4865:4869   */\n      0x00\n        /* \"#utility.yul\":4888:4891   */\n      dup2\n        /* \"#utility.yul\":4880:4891   */\n      swap1\n      pop\n        /* \"#utility.yul\":4799:4898   */\n      swap2\n      swap1\n      pop\n      jump\t// out\n        /* \"#utility.yul\":4904:5012   */\n    tag_112:\n        /* \"#utility.yul\":4981:5005   */\n      tag_180\n        /* \"#utility.yul\":4999:5004   */\n      dup2\n        /* \"#utility.yul\":4981:5005   */\n      tag_90\n      jump\t// in\n    tag_180:\n        /* \"#utility.yul\":4976:4979   */\n      dup3\n        /* \"#utility.yul\":4969:5006   */\n      mstore\n        /* \"#utility.yul\":4904:5012   */\n      pop\n      pop\n      jump\t// out\n        /* \"#utility.yul\":5018:5197   */\n    tag_113:\n        /* \"#utility.yul\":5087:5097   */\n      0x00\n        /* \"#utility.yul\":5108:5154   */\n      tag_182\n        /* \"#utility.yul\":5150:5153   */\n      dup4\n        /* \"#utility.yul\":5142:5148   */\n      dup4\n        /* \"#utility.yul\":5108:5154   */\n      tag_112\n      jump\t// in\n    tag_182:\n        /* \"#utility.yul\":5186:5190   */\n      0x20\n        /* \"#utility.yul\":5181:5184   */\n      dup4\n        /* \"#utility.yul\":5177:5191   */\n      add\n        /* \"#utility.yul\":5163:5191   */\n      swap1\n      pop\n        /* \"#utility.yul\":5018:5197   */\n      swap3\n      swap2\n      pop\n      pop\n      jump\t// out\n        /* \"#utility.yul\":5203:5315   */\n    tag_114:\n        /* \"#utility.yul\":5272:5276   */\n      0x00\n        /* \"#utility.yul\":5304:5308   */\n      0x20\n        /* \"#utility.yul\":5299:5302   */\n      dup3\n        /* \"#utility.yul\":5295:5309   */\n      add\n        /* \"#utility.yul\":5287:5309   */\n      swap1\n      pop\n        /* \"#utility.yul\":5203:5315   */\n      swap2\n      swap1\n      pop\n      jump\t// out\n        /* \"#utility.yul\":5355:6055   */\n    tag_115:\n        /* \"#utility.yul\":5493:5546   */\n      tag_185\n        /* \"#utility.yul\":5540:5545   */\n      dup2\n        /* \"#utility.yul\":5493:5546   */\n      tag_109\n      jump\t// in\n    tag_185:\n        /* \"#utility.yul\":5562:5647   */\n      tag_186\n        /* \"#utility.yul\":5640:5646   */\n      dup2\n        /* \"#utility.yul\":5635:5638   */\n      dup5\n        /* \"#utility.yul\":5562:5647   */\n      tag_110\n      jump\t// in\n    tag_186:\n        /* \"#utility.yul\":5555:5647   */\n      swap3\n      pop\n        /* \"#utility.yul\":5671:5726   */\n      tag_187\n        /* \"#utility.yul\":5720:5725   */\n      dup3\n        /* \"#utility.yul\":5671:5726   */\n      tag_111\n      jump\t// in\n    tag_187:\n        /* \"#utility.yul\":5749:5756   */\n      dup1\n        /* \"#utility.yul\":5780:5781   */\n      0x00\n        /* \"#utility.yul\":5765:6048   */\n    tag_188:\n        /* \"#utility.yul\":5790:5796   */\n      dup4\n        /* \"#utility.yul\":5787:5788   */\n      dup2\n        /* \"#utility.yul\":5784:5797   */\n      lt\n        /* \"#utility.yul\":5765:6048   */\n      iszero\n      tag_190\n      jumpi\n        /* \"#utility.yul\":5866:5872   */\n      dup2\n        /* \"#utility.yul\":5860:5873   */\n      mload\n        /* \"#utility.yul\":5893:5956   */\n      tag_191\n        /* \"#utility.yul\":5952:5955   */\n      dup8\n        /* \"#utility.yul\":5937:5950   */\n      dup3\n        /* \"#utility.yul\":5893:5956   */\n      tag_113\n      jump\t// in\n    tag_191:\n        /* \"#utility.yul\":5886:5956   */\n      swap7\n      pop\n        /* \"#utility.yul\":5979:6038   */\n      tag_192\n        /* \"#utility.yul\":6031:6037   */\n      dup4\n        /* \"#utility.yul\":5979:6038   */\n      tag_114\n      jump\t// in\n    tag_192:\n        /* \"#utility.yul\":5969:6038   */\n      swap3\n      pop\n        /* \"#utility.yul\":5825:6048   */\n      pop\n        /* \"#utility.yul\":5812:5813   */\n      0x01\n        /* \"#utility.yul\":5809:5810   */\n      dup2\n        /* \"#utility.yul\":5805:5814   */\n      add\n        /* \"#utility.yul\":5800:5814   */\n      swap1\n      pop\n        /* \"#utility.yul\":5765:6048   */\n      jump(tag_188)\n    tag_190:\n        /* \"#utility.yul\":5769:5783   */\n      pop\n        /* \"#utility.yul\":5469:6055   */\n      pop\n      pop\n      pop\n        /* \"#utility.yul\":5355:6055   */\n      pop\n      pop\n      jump\t// out\n        /* \"#utility.yul\":6061:6380   */\n    tag_37:\n        /* \"#utility.yul\":6202:6206   */\n      0x00\n        /* \"#utility.yul\":6240:6243   */\n      0x01e0\n        /* \"#utility.yul\":6229:6238   */\n      dup3\n        /* \"#utility.yul\":6225:6244   */\n      add\n        /* \"#utility.yul\":6217:6244   */\n      swap1\n      pop\n        /* \"#utility.yul\":6254:6373   */\n      tag_194\n        /* \"#utility.yul\":6370:6371   */\n      0x00\n        /* \"#utility.yul\":6359:6368   */\n      dup4\n        /* \"#utility.yul\":6355:6372   */\n      add\n        /* \"#utility.yul\":6346:6352   */\n      dup5\n        /* \"#utility.yul\":6254:6373   */\n      tag_115\n      jump\t// in\n    tag_194:\n        /* \"#utility.yul\":6061:6380   */\n      swap3\n      swap2\n      pop\n      pop\n      jump\t// out\n        /* \"#utility.yul\":6386:6566   */\n    tag_43:\n        /* \"#utility.yul\":6434:6511   */\n      0x4e487b7100000000000000000000000000000000000000000000000000000000\n        /* \"#utility.yul\":6431:6432   */\n      0x00\n        /* \"#utility.yul\":6424:6512   */\n      mstore\n        /* \"#utility.yul\":6531:6535   */\n      0x32\n        /* \"#utility.yul\":6528:6529   */\n      0x04\n        /* \"#utility.yul\":6521:6536   */\n      mstore\n        /* \"#utility.yul\":6555:6559   */\n      0x24\n        /* \"#utility.yul\":6552:6553   */\n      0x00\n        /* \"#utility.yul\":6545:6560   */\n      revert\n        /* \"#utility.yul\":6572:6752   */\n    tag_116:\n        /* \"#utility.yul\":6620:6697   */\n      0x4e487b7100000000000000000000000000000000000000000000000000000000\n        /* \"#utility.yul\":6617:6618   */\n      0x00\n        /* \"#utility.yul\":6610:6698   */\n      mstore\n        /* \"#utility.yul\":6717:6721   */\n      0x11\n        /* \"#utility.yul\":6714:6715   */\n      0x04\n        /* \"#utility.yul\":6707:6722   */\n      mstore\n        /* \"#utility.yul\":6741:6745   */\n      0x24\n        /* \"#utility.yul\":6738:6739   */\n      0x00\n        /* \"#utility.yul\":6731:6746   */\n      revert\n        /* \"#utility.yul\":6758:6991   */\n    tag_46:\n        /* \"#utility.yul\":6797:6800   */\n      0x00\n        /* \"#utility.yul\":6820:6844   */\n      tag_198\n        /* \"#utility.yul\":6838:6843   */\n      dup3\n        /* \"#utility.yul\":6820:6844   */\n      tag_90\n      jump\t// in\n    tag_198:\n        /* \"#utility.yul\":6811:6844   */\n      swap2\n      pop\n        /* \"#utility.yul\":6866:6932   */\n      0xffffffffffffffffffffffffffffffffffffffffffffffffffffffffffffffff\n        /* \"#utility.yul\":6859:6864   */\n      dup3\n        /* \"#utility.yul\":6856:6933   */\n      sub\n        /* \"#utility.yul\":6853:6956   */\n      tag_199\n      jumpi\n        /* \"#utility.yul\":6936:6954   */\n      tag_200\n      tag_116\n      jump\t// in\n    tag_200:\n        /* \"#utility.yul\":6853:6956   */\n    tag_199:\n        /* \"#utility.yul\":6983:6984   */\n      0x01\n        /* \"#utility.yul\":6976:6981   */\n      dup3\n        /* \"#utility.yul\":6972:6985   */\n      add\n        /* \"#utility.yul\":6965:6985   */\n      swap1\n      pop\n        /* \"#utility.yul\":6758:6991   */\n      swap2\n      swap1\n      pop\n      jump\t// out\n        /* \"#utility.yul\":6997:7096   */\n    tag_117:\n        /* \"#utility.yul\":7049:7055   */\n      0x00\n        /* \"#utility.yul\":7083:7088   */\n      dup2\n        /* \"#utility.yul\":7077:7089   */\n      mload\n        /* \"#utility.yul\":7067:7089   */\n      swap1\n      pop\n        /* \"#utility.yul\":6997:7096   */\n      swap2\n      swap1\n      pop\n      jump\t// out\n        /* \"#utility.yul\":7102:7271   */\n    tag_118:\n        /* \"#utility.yul\":7186:7197   */\n      0x00\n        /* \"#utility.yul\":7220:7226   */\n      dup3\n        /* \"#utility.yul\":7215:7218   */\n      dup3\n        /* \"#utility.yul\":7208:7227   */\n      mstore\n        /* \"#utility.yul\":7260:7264   */\n      0x20\n        /* \"#utility.yul\":7255:7258   */\n      dup3\n        /* \"#utility.yul\":7251:7265   */\n      add\n        /* \"#utility.yul\":7236:7265   */\n      swap1\n      pop\n        /* \"#utility.yul\":7102:7271   */\n      swap3\n      swap2\n      pop\n      pop\n      jump\t// out\n        /* \"#utility.yul\":7277:7523   */\n    tag_119:\n        /* \"#utility.yul\":7358:7359   */\n      0x00\n        /* \"#utility.yul\":7368:7481   */\n    tag_204:\n        /* \"#utility.yul\":7382:7388   */\n      dup4\n        /* \"#utility.yul\":7379:7380   */\n      dup2\n        /* \"#utility.yul\":7376:7389   */\n      lt\n        /* \"#utility.yul\":7368:7481   */\n      iszero\n      tag_206\n      jumpi\n        /* \"#utility.yul\":7467:7468   */\n      dup1\n        /* \"#utility.yul\":7462:7465   */\n      dup3\n        /* \"#utility.yul\":7458:7469   */\n      add\n        /* \"#utility.yul\":7452:7470   */\n      mload\n        /* \"#utility.yul\":7448:7449   */\n      dup2\n        /* \"#utility.yul\":7443:7446   */\n      dup5\n        /* \"#utility.yul\":7439:7450   */\n      add\n        /* \"#utility.yul\":7432:7471   */\n      mstore\n        /* \"#utility.yul\":7404:7406   */\n      0x20\n        /* \"#utility.yul\":7401:7402   */\n      dup2\n        /* \"#utility.yul\":7397:7407   */\n      add\n        /* \"#utility.yul\":7392:7407   */\n      swap1\n      pop\n        /* \"#utility.yul\":7368:7481   */\n      jump(tag_204)\n    tag_206:\n        /* \"#utility.yul\":7515:7516   */\n      0x00\n        /* \"#utility.yul\":7506:7512   */\n      dup5\n        /* \"#utility.yul\":7501:7504   */\n      dup5\n        /* \"#utility.yul\":7497:7513   */\n      add\n        /* \"#utility.yul\":7490:7517   */\n      mstore\n        /* \"#utility.yul\":7339:7523   */\n      pop\n        /* \"#utility.yul\":7277:7523   */\n      pop\n      pop\n      pop\n      jump\t// out\n        /* \"#utility.yul\":7529:7906   */\n    tag_120:\n        /* \"#utility.yul\":7617:7620   */\n      0x00\n        /* \"#utility.yul\":7645:7684   */\n      tag_208\n        /* \"#utility.yul\":7678:7683   */\n      dup3\n        /* \"#utility.yul\":7645:7684   */\n      tag_117\n      jump\t// in\n    tag_208:\n        /* \"#utility.yul\":7700:7771   */\n      tag_209\n        /* \"#utility.yul\":7764:7770   */\n      dup2\n        /* \"#utility.yul\":7759:7762   */\n      dup6\n        /* \"#utility.yul\":7700:7771   */\n      tag_118\n      jump\t// in\n    tag_209:\n        /* \"#utility.yul\":7693:7771   */\n      swap4\n      pop\n        /* \"#utility.yul\":7780:7845   */\n      tag_210\n        /* \"#utility.yul\":7838:7844   */\n      dup2\n        /* \"#utility.yul\":7833:7836   */\n      dup6\n        /* \"#utility.yul\":7826:7830   */\n      0x20\n        /* \"#utility.yul\":7819:7824   */\n      dup7\n        /* \"#utility.yul\":7815:7831   */\n      add\n        /* \"#utility.yul\":7780:7845   */\n      tag_119\n      jump\t// in\n    tag_210:\n        /* \"#utility.yul\":7870:7899   */\n      tag_211\n        /* \"#utility.yul\":7892:7898   */\n      dup2\n        /* \"#utility.yul\":7870:7899   */\n      tag_97\n      jump\t// in\n    tag_211:\n        /* \"#utility.yul\":7865:7868   */\n      dup5\n        /* \"#utility.yul\":7861:7900   */\n      add\n        /* \"#utility.yul\":7854:7900   */\n      swap2\n      pop\n        /* \"#utility.yul\":7621:7906   */\n      pop\n        /* \"#utility.yul\":7529:7906   */\n      swap3\n      swap2\n      pop\n      pop\n      jump\t// out\n        /* \"#utility.yul\":7912:8225   */\n    tag_57:\n        /* \"#utility.yul\":8025:8029   */\n      0x00\n        /* \"#utility.yul\":8063:8065   */\n      0x20\n        /* \"#utility.yul\":8052:8061   */\n      dup3\n        /* \"#utility.yul\":8048:8066   */\n      add\n        /* \"#utility.yul\":8040:8066   */\n      swap1\n      pop\n        /* \"#utility.yul\":8112:8121   */\n      dup2\n        /* \"#utility.yul\":8106:8110   */\n      dup2\n        /* \"#utility.yul\":8102:8122   */\n      sub\n        /* \"#utility.yul\":8098:8099   */\n      0x00\n        /* \"#utility.yul\":8087:8096   */\n      dup4\n        /* \"#utility.yul\":8083:8100   */\n      add\n        /* \"#utility.yul\":8076:8123   */\n      mstore\n        /* \"#utility.yul\":8140:8218   */\n      tag_213\n        /* \"#utility.yul\":8213:8217   */\n      dup2\n        /* \"#utility.yul\":8204:8210   */\n      dup5\n        /* \"#utility.yul\":8140:8218   */\n      tag_120\n      jump\t// in\n    tag_213:\n        /* \"#utility.yul\":8132:8218   */\n      swap1\n      pop\n        /* \"#utility.yul\":7912:8225   */\n      swap3\n      swap2\n      pop\n      pop\n      jump\t// out\n        /* \"#utility.yul\":8231:8641   */\n    tag_70:\n        /* \"#utility.yul\":8271:8278   */\n      0x00\n        /* \"#utility.yul\":8294:8314   */\n      tag_215\n        /* \"#utility.yul\":8312:8313   */\n      dup3\n        /* \"#utility.yul\":8294:8314   */\n      tag_90\n      jump\t// in\n    tag_215:\n        /* \"#utility.yul\":8289:8314   */\n      swap2\n      pop\n        /* \"#utility.yul\":8328:8348   */\n      tag_216\n        /* \"#utility.yul\":8346:8347   */\n      dup4\n        /* \"#utility.yul\":8328:8348   */\n      tag_90\n      jump\t// in\n    tag_216:\n        /* \"#utility.yul\":8323:8348   */\n      swap3\n      pop\n        /* \"#utility.yul\":8383:8384   */\n      dup3\n        /* \"#utility.yul\":8380:8381   */\n      dup3\n        /* \"#utility.yul\":8376:8385   */\n      mul\n        /* \"#utility.yul\":8405:8435   */\n      tag_217\n        /* \"#utility.yul\":8423:8434   */\n      dup2\n        /* \"#utility.yul\":8405:8435   */\n      tag_90\n      jump\t// in\n    tag_217:\n        /* \"#utility.yul\":8394:8435   */\n      swap2\n      pop\n        /* \"#utility.yul\":8584:8585   */\n      dup3\n        /* \"#utility.yul\":8575:8582   */\n      dup3\n        /* \"#utility.yul\":8571:8586   */\n      div\n        /* \"#utility.yul\":8568:8569   */\n      dup5\n        /* \"#utility.yul\":8565:8587   */\n      eq\n        /* \"#utility.yul\":8545:8546   */\n      dup4\n        /* \"#utility.yul\":8538:8547   */\n      iszero\n        /* \"#utility.yul\":8518:8601   */\n      or\n        /* \"#utility.yul\":8495:8634   */\n      tag_218\n      jumpi\n        /* \"#utility.yul\":8614:8632   */\n      tag_219\n      tag_116\n      jump\t// in\n    tag_219:\n        /* \"#utility.yul\":8495:8634   */\n    tag_218:\n        /* \"#utility.yul\":8279:8641   */\n      pop\n        /* \"#utility.yul\":8231:8641   */\n      swap3\n      swap2\n      pop\n      pop\n      jump\t// out\n\n    auxdata: 0xa2646970667358221220ddfb49a1aa18aee1a75278e21a005135ad7e55c48c1ccdf63532c2fcc31b728264736f6c63430008130033\n}\n",
				"bytecode": {
					"linkReferences": {},
					"object": "60806040523480156200001157600080fd5b5060405162000bb938038062000bb9833981810160405281019062000037919062000200565b806040516020016200004a9190620002ae565b6040516020818303038152906040528051906020012060008190555050620002d2565b6000604051905090565b600080fd5b600080fd5b600080fd5b600080fd5b6000601f19601f8301169050919050565b7f4e487b7100000000000000000000000000000000000000000000000000000000600052604160045260246000fd5b620000d6826200008b565b810181811067ffffffffffffffff82111715620000f857620000f76200009c565b5b80604052505050565b60006200010d6200006d565b90506200011b8282620000cb565b919050565b600067ffffffffffffffff8211156200013e576200013d6200009c565b5b62000149826200008b565b9050602081019050919050565b60005b838110156200017657808201518184015260208101905062000159565b60008484015250505050565b600062000199620001938462000120565b62000101565b905082815260208101848484011115620001b857620001b762000086565b5b620001c584828562000156565b509392505050565b600082601f830112620001e557620001e462000081565b5b8151620001f784826020860162000182565b91505092915050565b60006020828403121562000219576200021862000077565b5b600082015167ffffffffffffffff8111156200023a57620002396200007c565b5b6200024884828501620001cd565b91505092915050565b600081519050919050565b600082825260208201905092915050565b60006200027a8262000251565b6200028681856200025c565b93506200029881856020860162000156565b620002a3816200008b565b840191505092915050565b60006020820190508181036000830152620002ca81846200026d565b905092915050565b6108d780620002e26000396000f3fe608060405234801561001057600080fd5b506004361061007d5760003560e01c806362b44ce11161005b57806362b44ce1146100da578063a8d798ff1461010a578063c84c720514610114578063d9f0d049146101445761007d565b80630cf8d617146100825780632f41fc651461008c5780633a7d280c146100aa575b600080fd5b61008a610162565b005b61009461019e565b6040516100a19190610404565b60405180910390f35b6100c460048036038101906100bf9190610579565b6101ee565b6040516100d191906105dd565b60405180910390f35b6100f460048036038101906100ef9190610624565b61024a565b6040516101019190610404565b60405180910390f35b610112610265565b005b61012e60048036038101906101299190610624565b610305565b60405161013b9190610404565b60405180910390f35b61014c610320565b60405161015991906106fc565b60405180910390f35b60005b600f81101561019b5780601182600f811061018357610182610718565b5b0181905550808061019390610776565b915050610165565b50565b600080600154036101b257600090506101eb565b60006001541180156101c657506001805414155b156101d457600190506101eb565b60018054036101e657600290506101eb565b600090505b90565b600081604051602001610201919061083d565b6040516020818303038152906040528051906020012060005403610240576001600081548092919061023290610776565b919050555060019050610245565b600090505b919050565b601181600f811061025a57600080fd5b016000915090505481565b60006002600f806020026040519081016040528092919082600f80156102a0576020028201915b81548152602001906001019080831161028c575b5050505050905060005b600f8110156102ef576002816102c0919061085f565b8282600f81106102d3576102d2610718565b5b60200201818152505080806102e790610776565b9150506102aa565b5080600290600f61030192919061036b565b5050565b600281600f811061031557600080fd5b016000915090505481565b6103286103ab565b6002600f806020026040519081016040528092919082600f8015610361576020028201915b81548152602001906001019080831161034d575b5050505050905090565b82600f810192821561039a579160200282015b8281111561039957825182559160200191906001019061037e565b5b5090506103a791906103ce565b5090565b604051806101e00160405280600f90602082028036833780820191505090505090565b5b808211156103e75760008160009055506001016103cf565b5090565b6000819050919050565b6103fe816103eb565b82525050565b600060208201905061041960008301846103f5565b92915050565b6000604051905090565b600080fd5b600080fd5b600080fd5b600080fd5b6000601f19601f8301169050919050565b7f4e487b7100000000000000000000000000000000000000000000000000000000600052604160045260246000fd5b6104868261043d565b810181811067ffffffffffffffff821117156104a5576104a461044e565b5b80604052505050565b60006104b861041f565b90506104c4828261047d565b919050565b600067ffffffffffffffff8211156104e4576104e361044e565b5b6104ed8261043d565b9050602081019050919050565b82818337600083830152505050565b600061051c610517846104c9565b6104ae565b90508281526020810184848401111561053857610537610438565b5b6105438482856104fa565b509392505050565b600082601f8301126105605761055f610433565b5b8135610570848260208601610509565b91505092915050565b60006020828403121561058f5761058e610429565b5b600082013567ffffffffffffffff8111156105ad576105ac61042e565b5b6105b98482850161054b565b91505092915050565b60008115159050919050565b6105d7816105c2565b82525050565b60006020820190506105f260008301846105ce565b92915050565b610601816103eb565b811461060c57600080fd5b50565b60008135905061061e816105f8565b92915050565b60006020828403121561063a57610639610429565b5b60006106488482850161060f565b91505092915050565b6000600f9050919050565b600081905092915050565b6000819050919050565b61067a816103eb565b82525050565b600061068c8383610671565b60208301905092915050565b6000602082019050919050565b6106ae81610651565b6106b8818461065c565b92506106c382610667565b8060005b838110156106f45781516106db8782610680565b96506106e683610698565b9250506001810190506106c7565b505050505050565b60006101e08201905061071260008301846106a5565b92915050565b7f4e487b7100000000000000000000000000000000000000000000000000000000600052603260045260246000fd5b7f4e487b7100000000000000000000000000000000000000000000000000000000600052601160045260246000fd5b6000610781826103eb565b91507fffffffffffffffffffffffffffffffffffffffffffffffffffffffffffffffff82036107b3576107b2610747565b5b600182019050919050565b600081519050919050565b600082825260208201905092915050565b60005b838110156107f85780820151818401526020810190506107dd565b60008484015250505050565b600061080f826107be565b61081981856107c9565b93506108298185602086016107da565b6108328161043d565b840191505092915050565b600060208201905081810360008301526108578184610804565b905092915050565b600061086a826103eb565b9150610875836103eb565b9250828202610883816103eb565b9150828204841483151761089a57610899610747565b5b509291505056fea2646970667358221220ddfb49a1aa18aee1a75278e21a005135ad7e55c48c1ccdf63532c2fcc31b728264736f6c63430008130033",
					"opcodes": "PUSH1 0x80 PUSH1 0x40 MSTORE CALLVALUE DUP1 ISZERO PUSH3 0x11 JUMPI PUSH1 0x0 DUP1 REVERT JUMPDEST POP PUSH1 0x40 MLOAD PUSH3 0xBB9 CODESIZE SUB DUP1 PUSH3 0xBB9 DUP4 CODECOPY DUP2 DUP2 ADD PUSH1 0x40 MSTORE DUP2 ADD SWAP1 PUSH3 0x37 SWAP2 SWAP1 PUSH3 0x200 JUMP JUMPDEST DUP1 PUSH1 0x40 MLOAD PUSH1 0x20 ADD PUSH3 0x4A SWAP2 SWAP1 PUSH3 0x2AE JUMP JUMPDEST PUSH1 0x40 MLOAD PUSH1 0x20 DUP2 DUP4 SUB SUB DUP2 MSTORE SWAP1 PUSH1 0x40 MSTORE DUP1 MLOAD SWAP1 PUSH1 0x20 ADD KECCAK256 PUSH1 0x0 DUP2 SWAP1 SSTORE POP POP PUSH3 0x2D2 JUMP JUMPDEST PUSH1 0x0 PUSH1 0x40 MLOAD SWAP1 POP SWAP1 JUMP JUMPDEST PUSH1 0x0 DUP1 REVERT JUMPDEST PUSH1 0x0 DUP1 REVERT JUMPDEST PUSH1 0x0 DUP1 REVERT JUMPDEST PUSH1 0x0 DUP1 REVERT JUMPDEST PUSH1 0x0 PUSH1 0x1F NOT PUSH1 0x1F DUP4 ADD AND SWAP1 POP SWAP2 SWAP1 POP JUMP JUMPDEST PUSH32 0x4E487B7100000000000000000000000000000000000000000000000000000000 PUSH1 0x0 MSTORE PUSH1 0x41 PUSH1 0x4 MSTORE PUSH1 0x24 PUSH1 0x0 REVERT JUMPDEST PUSH3 0xD6 DUP3 PUSH3 0x8B JUMP JUMPDEST DUP2 ADD DUP2 DUP2 LT PUSH8 0xFFFFFFFFFFFFFFFF DUP3 GT OR ISZERO PUSH3 0xF8 JUMPI PUSH3 0xF7 PUSH3 0x9C JUMP JUMPDEST JUMPDEST DUP1 PUSH1 0x40 MSTORE POP POP POP JUMP JUMPDEST PUSH1 0x0 PUSH3 0x10D PUSH3 0x6D JUMP JUMPDEST SWAP1 POP PUSH3 0x11B DUP3 DUP3 PUSH3 0xCB JUMP JUMPDEST SWAP2 SWAP1 POP JUMP JUMPDEST PUSH1 0x0 PUSH8 0xFFFFFFFFFFFFFFFF DUP3 GT ISZERO PUSH3 0x13E JUMPI PUSH3 0x13D PUSH3 0x9C JUMP JUMPDEST JUMPDEST PUSH3 0x149 DUP3 PUSH3 0x8B JUMP JUMPDEST SWAP1 POP PUSH1 0x20 DUP2 ADD SWAP1 POP SWAP2 SWAP1 POP JUMP JUMPDEST PUSH1 0x0 JUMPDEST DUP4 DUP2 LT ISZERO PUSH3 0x176 JUMPI DUP1 DUP3 ADD MLOAD DUP2 DUP5 ADD MSTORE PUSH1 0x20 DUP2 ADD SWAP1 POP PUSH3 0x159 JUMP JUMPDEST PUSH1 0x0 DUP5 DUP5 ADD MSTORE POP POP POP POP JUMP JUMPDEST PUSH1 0x0 PUSH3 0x199 PUSH3 0x193 DUP5 PUSH3 0x120 JUMP JUMPDEST PUSH3 0x101 JUMP JUMPDEST SWAP1 POP DUP3 DUP2 MSTORE PUSH1 0x20 DUP2 ADD DUP5 DUP5 DUP5 ADD GT ISZERO PUSH3 0x1B8 JUMPI PUSH3 0x1B7 PUSH3 0x86 JUMP JUMPDEST JUMPDEST PUSH3 0x1C5 DUP5 DUP3 DUP6 PUSH3 0x156 JUMP JUMPDEST POP SWAP4 SWAP3 POP POP POP JUMP JUMPDEST PUSH1 0x0 DUP3 PUSH1 0x1F DUP4 ADD SLT PUSH3 0x1E5 JUMPI PUSH3 0x1E4 PUSH3 0x81 JUMP JUMPDEST JUMPDEST DUP2 MLOAD PUSH3 0x1F7 DUP5 DUP3 PUSH1 0x20 DUP7 ADD PUSH3 0x182 JUMP JUMPDEST SWAP2 POP POP SWAP3 SWAP2 POP POP JUMP JUMPDEST PUSH1 0x0 PUSH1 0x20 DUP3 DUP5 SUB SLT ISZERO PUSH3 0x219 JUMPI PUSH3 0x218 PUSH3 0x77 JUMP JUMPDEST JUMPDEST PUSH1 0x0 DUP3 ADD MLOAD PUSH8 0xFFFFFFFFFFFFFFFF DUP2 GT ISZERO PUSH3 0x23A JUMPI PUSH3 0x239 PUSH3 0x7C JUMP JUMPDEST JUMPDEST PUSH3 0x248 DUP5 DUP3 DUP6 ADD PUSH3 0x1CD JUMP JUMPDEST SWAP2 POP POP SWAP3 SWAP2 POP POP JUMP JUMPDEST PUSH1 0x0 DUP2 MLOAD SWAP1 POP SWAP2 SWAP1 POP JUMP JUMPDEST PUSH1 0x0 DUP3 DUP3 MSTORE PUSH1 0x20 DUP3 ADD SWAP1 POP SWAP3 SWAP2 POP POP JUMP JUMPDEST PUSH1 0x0 PUSH3 0x27A DUP3 PUSH3 0x251 JUMP JUMPDEST PUSH3 0x286 DUP2 DUP6 PUSH3 0x25C JUMP JUMPDEST SWAP4 POP PUSH3 0x298 DUP2 DUP6 PUSH1 0x20 DUP7 ADD PUSH3 0x156 JUMP JUMPDEST PUSH3 0x2A3 DUP2 PUSH3 0x8B JUMP JUMPDEST DUP5 ADD SWAP2 POP POP SWAP3 SWAP2 POP POP JUMP JUMPDEST PUSH1 0x0 PUSH1 0x20 DUP3 ADD SWAP1 POP DUP2 DUP2 SUB PUSH1 0x0 DUP4 ADD MSTORE PUSH3 0x2CA DUP2 DUP5 PUSH3 0x26D JUMP JUMPDEST SWAP1 POP SWAP3 SWAP2 POP POP JUMP JUMPDEST PUSH2 0x8D7 DUP1 PUSH3 0x2E2 PUSH1 0x0 CODECOPY PUSH1 0x0 RETURN INVALID PUSH1 0x80 PUSH1 0x40 MSTORE CALLVALUE DUP1 ISZERO PUSH2 0x10 JUMPI PUSH1 0x0 DUP1 REVERT JUMPDEST POP PUSH1 0x4 CALLDATASIZE LT PUSH2 0x7D JUMPI PUSH1 0x0 CALLDATALOAD PUSH1 0xE0 SHR DUP1 PUSH4 0x62B44CE1 GT PUSH2 0x5B JUMPI DUP1 PUSH4 0x62B44CE1 EQ PUSH2 0xDA JUMPI DUP1 PUSH4 0xA8D798FF EQ PUSH2 0x10A JUMPI DUP1 PUSH4 0xC84C7205 EQ PUSH2 0x114 JUMPI DUP1 PUSH4 0xD9F0D049 EQ PUSH2 0x144 JUMPI PUSH2 0x7D JUMP JUMPDEST DUP1 PUSH4 0xCF8D617 EQ PUSH2 0x82 JUMPI DUP1 PUSH4 0x2F41FC65 EQ PUSH2 0x8C JUMPI DUP1 PUSH4 0x3A7D280C EQ PUSH2 0xAA JUMPI JUMPDEST PUSH1 0x0 DUP1 REVERT JUMPDEST PUSH2 0x8A PUSH2 0x162 JUMP JUMPDEST STOP JUMPDEST PUSH2 0x94 PUSH2 0x19E JUMP JUMPDEST PUSH1 0x40 MLOAD PUSH2 0xA1 SWAP2 SWAP1 PUSH2 0x404 JUMP JUMPDEST PUSH1 0x40 MLOAD DUP1 SWAP2 SUB SWAP1 RETURN JUMPDEST PUSH2 0xC4 PUSH1 0x4 DUP1 CALLDATASIZE SUB DUP2 ADD SWAP1 PUSH2 0xBF SWAP2 SWAP1 PUSH2 0x579 JUMP JUMPDEST PUSH2 0x1EE JUMP JUMPDEST PUSH1 0x40 MLOAD PUSH2 0xD1 SWAP2 SWAP1 PUSH2 0x5DD JUMP JUMPDEST PUSH1 0x40 MLOAD DUP1 SWAP2 SUB SWAP1 RETURN JUMPDEST PUSH2 0xF4 PUSH1 0x4 DUP1 CALLDATASIZE SUB DUP2 ADD SWAP1 PUSH2 0xEF SWAP2 SWAP1 PUSH2 0x624 JUMP JUMPDEST PUSH2 0x24A JUMP JUMPDEST PUSH1 0x40 MLOAD PUSH2 0x101 SWAP2 SWAP1 PUSH2 0x404 JUMP JUMPDEST PUSH1 0x40 MLOAD DUP1 SWAP2 SUB SWAP1 RETURN JUMPDEST PUSH2 0x112 PUSH2 0x265 JUMP JUMPDEST STOP JUMPDEST PUSH2 0x12E PUSH1 0x4 DUP1 CALLDATASIZE SUB DUP2 ADD SWAP1 PUSH2 0x129 SWAP2 SWAP1 PUSH2 0x624 JUMP JUMPDEST PUSH2 0x305 JUMP JUMPDEST PUSH1 0x40 MLOAD PUSH2 0x13B SWAP2 SWAP1 PUSH2 0x404 JUMP JUMPDEST PUSH1 0x40 MLOAD DUP1 SWAP2 SUB SWAP1 RETURN JUMPDEST PUSH2 0x14C PUSH2 0x320 JUMP JUMPDEST PUSH1 0x40 MLOAD PUSH2 0x159 SWAP2 SWAP1 PUSH2 0x6FC JUMP JUMPDEST PUSH1 0x40 MLOAD DUP1 SWAP2 SUB SWAP1 RETURN JUMPDEST PUSH1 0x0 JUMPDEST PUSH1 0xF DUP2 LT ISZERO PUSH2 0x19B JUMPI DUP1 PUSH1 0x11 DUP3 PUSH1 0xF DUP2 LT PUSH2 0x183 JUMPI PUSH2 0x182 PUSH2 0x718 JUMP JUMPDEST JUMPDEST ADD DUP2 SWAP1 SSTORE POP DUP1 DUP1 PUSH2 0x193 SWAP1 PUSH2 0x776 JUMP JUMPDEST SWAP2 POP POP PUSH2 0x165 JUMP JUMPDEST POP JUMP JUMPDEST PUSH1 0x0 DUP1 PUSH1 0x1 SLOAD SUB PUSH2 0x1B2 JUMPI PUSH1 0x0 SWAP1 POP PUSH2 0x1EB JUMP JUMPDEST PUSH1 0x0 PUSH1 0x1 SLOAD GT DUP1 ISZERO PUSH2 0x1C6 JUMPI POP PUSH1 0x1 DUP1 SLOAD EQ ISZERO JUMPDEST ISZERO PUSH2 0x1D4 JUMPI PUSH1 0x1 SWAP1 POP PUSH2 0x1EB JUMP JUMPDEST PUSH1 0x1 DUP1 SLOAD SUB PUSH2 0x1E6 JUMPI PUSH1 0x2 SWAP1 POP PUSH2 0x1EB JUMP JUMPDEST PUSH1 0x0 SWAP1 POP JUMPDEST SWAP1 JUMP JUMPDEST PUSH1 0x0 DUP2 PUSH1 0x40 MLOAD PUSH1 0x20 ADD PUSH2 0x201 SWAP2 SWAP1 PUSH2 0x83D JUMP JUMPDEST PUSH1 0x40 MLOAD PUSH1 0x20 DUP2 DUP4 SUB SUB DUP2 MSTORE SWAP1 PUSH1 0x40 MSTORE DUP1 MLOAD SWAP1 PUSH1 0x20 ADD KECCAK256 PUSH1 0x0 SLOAD SUB PUSH2 0x240 JUMPI PUSH1 0x1 PUSH1 0x0 DUP2 SLOAD DUP1 SWAP3 SWAP2 SWAP1 PUSH2 0x232 SWAP1 PUSH2 0x776 JUMP JUMPDEST SWAP2 SWAP1 POP SSTORE POP PUSH1 0x1 SWAP1 POP PUSH2 0x245 JUMP JUMPDEST PUSH1 0x0 SWAP1 POP JUMPDEST SWAP2 SWAP1 POP JUMP JUMPDEST PUSH1 0x11 DUP2 PUSH1 0xF DUP2 LT PUSH2 0x25A JUMPI PUSH1 0x0 DUP1 REVERT JUMPDEST ADD PUSH1 0x0 SWAP2 POP SWAP1 POP SLOAD DUP2 JUMP JUMPDEST PUSH1 0x0 PUSH1 0x2 PUSH1 0xF DUP1 PUSH1 0x20 MUL PUSH1 0x40 MLOAD SWAP1 DUP2 ADD PUSH1 0x40 MSTORE DUP1 SWAP3 SWAP2 SWAP1 DUP3 PUSH1 0xF DUP1 ISZERO PUSH2 0x2A0 JUMPI PUSH1 0x20 MUL DUP3 ADD SWAP2 JUMPDEST DUP2 SLOAD DUP2 MSTORE PUSH1 0x20 ADD SWAP1 PUSH1 0x1 ADD SWAP1 DUP1 DUP4 GT PUSH2 0x28C JUMPI JUMPDEST POP POP POP POP POP SWAP1 POP PUSH1 0x0 JUMPDEST PUSH1 0xF DUP2 LT ISZERO PUSH2 0x2EF JUMPI PUSH1 0x2 DUP2 PUSH2 0x2C0 SWAP2 SWAP1 PUSH2 0x85F JUMP JUMPDEST DUP3 DUP3 PUSH1 0xF DUP2 LT PUSH2 0x2D3 JUMPI PUSH2 0x2D2 PUSH2 0x718 JUMP JUMPDEST JUMPDEST PUSH1 0x20 MUL ADD DUP2 DUP2 MSTORE POP POP DUP1 DUP1 PUSH2 0x2E7 SWAP1 PUSH2 0x776 JUMP JUMPDEST SWAP2 POP POP PUSH2 0x2AA JUMP JUMPDEST POP DUP1 PUSH1 0x2 SWAP1 PUSH1 0xF PUSH2 0x301 SWAP3 SWAP2 SWAP1 PUSH2 0x36B JUMP JUMPDEST POP POP JUMP JUMPDEST PUSH1 0x2 DUP2 PUSH1 0xF DUP2 LT PUSH2 0x315 JUMPI PUSH1 0x0 DUP1 REVERT JUMPDEST ADD PUSH1 0x0 SWAP2 POP SWAP1 POP SLOAD DUP2 JUMP JUMPDEST PUSH2 0x328 PUSH2 0x3AB JUMP JUMPDEST PUSH1 0x2 PUSH1 0xF DUP1 PUSH1 0x20 MUL PUSH1 0x40 MLOAD SWAP1 DUP2 ADD PUSH1 0x40 MSTORE DUP1 SWAP3 SWAP2 SWAP1 DUP3 PUSH1 0xF DUP1 ISZERO PUSH2 0x361 JUMPI PUSH1 0x20 MUL DUP3 ADD SWAP2 JUMPDEST DUP2 SLOAD DUP2 MSTORE PUSH1 0x20 ADD SWAP1 PUSH1 0x1 ADD SWAP1 DUP1 DUP4 GT PUSH2 0x34D JUMPI JUMPDEST POP POP POP POP POP SWAP1 POP SWAP1 JUMP JUMPDEST DUP3 PUSH1 0xF DUP2 ADD SWAP3 DUP3 ISZERO PUSH2 0x39A JUMPI SWAP2 PUSH1 0x20 MUL DUP3 ADD JUMPDEST DUP3 DUP2 GT ISZERO PUSH2 0x399 JUMPI DUP3 MLOAD DUP3 SSTORE SWAP2 PUSH1 0x20 ADD SWAP2 SWAP1 PUSH1 0x1 ADD SWAP1 PUSH2 0x37E JUMP JUMPDEST JUMPDEST POP SWAP1 POP PUSH2 0x3A7 SWAP2 SWAP1 PUSH2 0x3CE JUMP JUMPDEST POP SWAP1 JUMP JUMPDEST PUSH1 0x40 MLOAD DUP1 PUSH2 0x1E0 ADD PUSH1 0x40 MSTORE DUP1 PUSH1 0xF SWAP1 PUSH1 0x20 DUP3 MUL DUP1 CALLDATASIZE DUP4 CALLDATACOPY DUP1 DUP3 ADD SWAP2 POP POP SWAP1 POP POP SWAP1 JUMP JUMPDEST JUMPDEST DUP1 DUP3 GT ISZERO PUSH2 0x3E7 JUMPI PUSH1 0x0 DUP2 PUSH1 0x0 SWAP1 SSTORE POP PUSH1 0x1 ADD PUSH2 0x3CF JUMP JUMPDEST POP SWAP1 JUMP JUMPDEST PUSH1 0x0 DUP2 SWAP1 POP SWAP2 SWAP1 POP JUMP JUMPDEST PUSH2 0x3FE DUP2 PUSH2 0x3EB JUMP JUMPDEST DUP3 MSTORE POP POP JUMP JUMPDEST PUSH1 0x0 PUSH1 0x20 DUP3 ADD SWAP1 POP PUSH2 0x419 PUSH1 0x0 DUP4 ADD DUP5 PUSH2 0x3F5 JUMP JUMPDEST SWAP3 SWAP2 POP POP JUMP JUMPDEST PUSH1 0x0 PUSH1 0x40 MLOAD SWAP1 POP SWAP1 JUMP JUMPDEST PUSH1 0x0 DUP1 REVERT JUMPDEST PUSH1 0x0 DUP1 REVERT JUMPDEST PUSH1 0x0 DUP1 REVERT JUMPDEST PUSH1 0x0 DUP1 REVERT JUMPDEST PUSH1 0x0 PUSH1 0x1F NOT PUSH1 0x1F DUP4 ADD AND SWAP1 POP SWAP2 SWAP1 POP JUMP JUMPDEST PUSH32 0x4E487B7100000000000000000000000000000000000000000000000000000000 PUSH1 0x0 MSTORE PUSH1 0x41 PUSH1 0x4 MSTORE PUSH1 0x24 PUSH1 0x0 REVERT JUMPDEST PUSH2 0x486 DUP3 PUSH2 0x43D JUMP JUMPDEST DUP2 ADD DUP2 DUP2 LT PUSH8 0xFFFFFFFFFFFFFFFF DUP3 GT OR ISZERO PUSH2 0x4A5 JUMPI PUSH2 0x4A4 PUSH2 0x44E JUMP JUMPDEST JUMPDEST DUP1 PUSH1 0x40 MSTORE POP POP POP JUMP JUMPDEST PUSH1 0x0 PUSH2 0x4B8 PUSH2 0x41F JUMP JUMPDEST SWAP1 POP PUSH2 0x4C4 DUP3 DUP3 PUSH2 0x47D JUMP JUMPDEST SWAP2 SWAP1 POP JUMP JUMPDEST PUSH1 0x0 PUSH8 0xFFFFFFFFFFFFFFFF DUP3 GT ISZERO PUSH2 0x4E4 JUMPI PUSH2 0x4E3 PUSH2 0x44E JUMP JUMPDEST JUMPDEST PUSH2 0x4ED DUP3 PUSH2 0x43D JUMP JUMPDEST SWAP1 POP PUSH1 0x20 DUP2 ADD SWAP1 POP SWAP2 SWAP1 POP JUMP JUMPDEST DUP3 DUP2 DUP4 CALLDATACOPY PUSH1 0x0 DUP4 DUP4 ADD MSTORE POP POP POP JUMP JUMPDEST PUSH1 0x0 PUSH2 0x51C PUSH2 0x517 DUP5 PUSH2 0x4C9 JUMP JUMPDEST PUSH2 0x4AE JUMP JUMPDEST SWAP1 POP DUP3 DUP2 MSTORE PUSH1 0x20 DUP2 ADD DUP5 DUP5 DUP5 ADD GT ISZERO PUSH2 0x538 JUMPI PUSH2 0x537 PUSH2 0x438 JUMP JUMPDEST JUMPDEST PUSH2 0x543 DUP5 DUP3 DUP6 PUSH2 0x4FA JUMP JUMPDEST POP SWAP4 SWAP3 POP POP POP JUMP JUMPDEST PUSH1 0x0 DUP3 PUSH1 0x1F DUP4 ADD SLT PUSH2 0x560 JUMPI PUSH2 0x55F PUSH2 0x433 JUMP JUMPDEST JUMPDEST DUP2 CALLDATALOAD PUSH2 0x570 DUP5 DUP3 PUSH1 0x20 DUP7 ADD PUSH2 0x509 JUMP JUMPDEST SWAP2 POP POP SWAP3 SWAP2 POP POP JUMP JUMPDEST PUSH1 0x0 PUSH1 0x20 DUP3 DUP5 SUB SLT ISZERO PUSH2 0x58F JUMPI PUSH2 0x58E PUSH2 0x429 JUMP JUMPDEST JUMPDEST PUSH1 0x0 DUP3 ADD CALLDATALOAD PUSH8 0xFFFFFFFFFFFFFFFF DUP2 GT ISZERO PUSH2 0x5AD JUMPI PUSH2 0x5AC PUSH2 0x42E JUMP JUMPDEST JUMPDEST PUSH2 0x5B9 DUP5 DUP3 DUP6 ADD PUSH2 0x54B JUMP JUMPDEST SWAP2 POP POP SWAP3 SWAP2 POP POP JUMP JUMPDEST PUSH1 0x0 DUP2 ISZERO ISZERO SWAP1 POP SWAP2 SWAP1 POP JUMP JUMPDEST PUSH2 0x5D7 DUP2 PUSH2 0x5C2 JUMP JUMPDEST DUP3 MSTORE POP POP JUMP JUMPDEST PUSH1 0x0 PUSH1 0x20 DUP3 ADD SWAP1 POP PUSH2 0x5F2 PUSH1 0x0 DUP4 ADD DUP5 PUSH2 0x5CE JUMP JUMPDEST SWAP3 SWAP2 POP POP JUMP JUMPDEST PUSH2 0x601 DUP2 PUSH2 0x3EB JUMP JUMPDEST DUP2 EQ PUSH2 0x60C JUMPI PUSH1 0x0 DUP1 REVERT JUMPDEST POP JUMP JUMPDEST PUSH1 0x0 DUP2 CALLDATALOAD SWAP1 POP PUSH2 0x61E DUP2 PUSH2 0x5F8 JUMP JUMPDEST SWAP3 SWAP2 POP POP JUMP JUMPDEST PUSH1 0x0 PUSH1 0x20 DUP3 DUP5 SUB SLT ISZERO PUSH2 0x63A JUMPI PUSH2 0x639 PUSH2 0x429 JUMP JUMPDEST JUMPDEST PUSH1 0x0 PUSH2 0x648 DUP5 DUP3 DUP6 ADD PUSH2 0x60F JUMP JUMPDEST SWAP2 POP POP SWAP3 SWAP2 POP POP JUMP JUMPDEST PUSH1 0x0 PUSH1 0xF SWAP1 POP SWAP2 SWAP1 POP JUMP JUMPDEST PUSH1 0x0 DUP2 SWAP1 POP SWAP3 SWAP2 POP POP JUMP JUMPDEST PUSH1 0x0 DUP2 SWAP1 POP SWAP2 SWAP1 POP JUMP JUMPDEST PUSH2 0x67A DUP2 PUSH2 0x3EB JUMP JUMPDEST DUP3 MSTORE POP POP JUMP JUMPDEST PUSH1 0x0 PUSH2 0x68C DUP4 DUP4 PUSH2 0x671 JUMP JUMPDEST PUSH1 0x20 DUP4 ADD SWAP1 POP SWAP3 SWAP2 POP POP JUMP JUMPDEST PUSH1 0x0 PUSH1 0x20 DUP3 ADD SWAP1 POP SWAP2 SWAP1 POP JUMP JUMPDEST PUSH2 0x6AE DUP2 PUSH2 0x651 JUMP JUMPDEST PUSH2 0x6B8 DUP2 DUP5 PUSH2 0x65C JUMP JUMPDEST SWAP3 POP PUSH2 0x6C3 DUP3 PUSH2 0x667 JUMP JUMPDEST DUP1 PUSH1 0x0 JUMPDEST DUP4 DUP2 LT ISZERO PUSH2 0x6F4 JUMPI DUP2 MLOAD PUSH2 0x6DB DUP8 DUP3 PUSH2 0x680 JUMP JUMPDEST SWAP7 POP PUSH2 0x6E6 DUP4 PUSH2 0x698 JUMP JUMPDEST SWAP3 POP POP PUSH1 0x1 DUP2 ADD SWAP1 POP PUSH2 0x6C7 JUMP JUMPDEST POP POP POP POP POP POP JUMP JUMPDEST PUSH1 0x0 PUSH2 0x1E0 DUP3 ADD SWAP1 POP PUSH2 0x712 PUSH1 0x0 DUP4 ADD DUP5 PUSH2 0x6A5 JUMP JUMPDEST SWAP3 SWAP2 POP POP JUMP JUMPDEST PUSH32 0x4E487B7100000000000000000000000000000000000000000000000000000000 PUSH1 0x0 MSTORE PUSH1 0x32 PUSH1 0x4 MSTORE PUSH1 0x24 PUSH1 0x0 REVERT JUMPDEST PUSH32 0x4E487B7100000000000000000000000000000000000000000000000000000000 PUSH1 0x0 MSTORE PUSH1 0x11 PUSH1 0x4 MSTORE PUSH1 0x24 PUSH1 0x0 REVERT JUMPDEST PUSH1 0x0 PUSH2 0x781 DUP3 PUSH2 0x3EB JUMP JUMPDEST SWAP2 POP PUSH32 0xFFFFFFFFFFFFFFFFFFFFFFFFFFFFFFFFFFFFFFFFFFFFFFFFFFFFFFFFFFFFFFFF DUP3 SUB PUSH2 0x7B3 JUMPI PUSH2 0x7B2 PUSH2 0x747 JUMP JUMPDEST JUMPDEST PUSH1 0x1 DUP3 ADD SWAP1 POP SWAP2 SWAP1 POP JUMP JUMPDEST PUSH1 0x0 DUP2 MLOAD SWAP1 POP SWAP2 SWAP1 POP JUMP JUMPDEST PUSH1 0x0 DUP3 DUP3 MSTORE PUSH1 0x20 DUP3 ADD SWAP1 POP SWAP3 SWAP2 POP POP JUMP JUMPDEST PUSH1 0x0 JUMPDEST DUP4 DUP2 LT ISZERO PUSH2 0x7F8 JUMPI DUP1 DUP3 ADD MLOAD DUP2 DUP5 ADD MSTORE PUSH1 0x20 DUP2 ADD SWAP1 POP PUSH2 0x7DD JUMP JUMPDEST PUSH1 0x0 DUP5 DUP5 ADD MSTORE POP POP POP POP JUMP JUMPDEST PUSH1 0x0 PUSH2 0x80F DUP3 PUSH2 0x7BE JUMP JUMPDEST PUSH2 0x819 DUP2 DUP6 PUSH2 0x7C9 JUMP JUMPDEST SWAP4 POP PUSH2 0x829 DUP2 DUP6 PUSH1 0x20 DUP7 ADD PUSH2 0x7DA JUMP JUMPDEST PUSH2 0x832 DUP2 PUSH2 0x43D JUMP JUMPDEST DUP5 ADD SWAP2 POP POP SWAP3 SWAP2 POP POP JUMP JUMPDEST PUSH1 0x0 PUSH1 0x20 DUP3 ADD SWAP1 POP DUP2 DUP2 SUB PUSH1 0x0 DUP4 ADD MSTORE PUSH2 0x857 DUP2 DUP5 PUSH2 0x804 JUMP JUMPDEST SWAP1 POP SWAP3 SWAP2 POP POP JUMP JUMPDEST PUSH1 0x0 PUSH2 0x86A DUP3 PUSH2 0x3EB JUMP JUMPDEST SWAP2 POP PUSH2 0x875 DUP4 PUSH2 0x3EB JUMP JUMPDEST SWAP3 POP DUP3 DUP3 MUL PUSH2 0x883 DUP2 PUSH2 0x3EB JUMP JUMPDEST SWAP2 POP DUP3 DUP3 DIV DUP5 EQ DUP4 ISZERO OR PUSH2 0x89A JUMPI PUSH2 0x899 PUSH2 0x747 JUMP JUMPDEST JUMPDEST POP SWAP3 SWAP2 POP POP JUMP INVALID LOG2 PUSH5 0x6970667358 0x22 SLT KECCAK256 0xDD 0xFB 0x49 LOG1 0xAA XOR 0xAE 0xE1 0xA7 MSTORE PUSH25 0xE21A005135AD7E55C48C1CCDF63532C2FCC31B728264736F6C PUSH4 0x43000813 STOP CALLER "
				},
				"gasEstimates": {
					"creation": {
						"codeDepositCost": "452600",
						"executionCost": "infinite",
						"totalCost": "infinite"
					},
					"external": {
						"getArr0()": "infinite",
						"listByFor()": "infinite",
						"listByWhile()": "infinite",
						"login(string)": "infinite",
						"loginStatus()": "8877",
						"numbers0(uint256)": "infinite",
						"numbers1(uint256)": "infinite"
					}
				},
				"methodIdentifiers": {
					"getArr0()": "d9f0d049",
					"listByFor()": "a8d798ff",
					"listByWhile()": "0cf8d617",
					"login(string)": "3a7d280c",
					"loginStatus()": "2f41fc65",
					"numbers0(uint256)": "c84c7205",
					"numbers1(uint256)": "62b44ce1"
				}
			},
			"storageLayout": {
				"storage": [
					{
						"astId": 3,
						"contract": "contracts/5.videoifelse.sol:Combined",
						"label": "hashcode",
						"offset": 0,
						"slot": "0",
						"type": "t_bytes32"
					},
					{
						"astId": 5,
						"contract": "contracts/5.videoifelse.sol:Combined",
						"label": "logincount",
						"offset": 0,
						"slot": "1",
						"type": "t_uint256"
					},
					{
						"astId": 9,
						"contract": "contracts/5.videoifelse.sol:Combined",
						"label": "numbers0",
						"offset": 0,
						"slot": "2",
						"type": "t_array(t_uint256)15_storage"
					},
					{
						"astId": 13,
						"contract": "contracts/5.videoifelse.sol:Combined",
						"label": "numbers1",
						"offset": 0,
						"slot": "17",
						"type": "t_array(t_uint256)15_storage"
					}
				],
				"types": {
					"t_array(t_uint256)15_storage": {
						"base": "t_uint256",
						"encoding": "inplace",
						"label": "uint256[15]",
						"numberOfBytes": "480"
					},
					"t_bytes32": {
						"encoding": "inplace",
						"label": "bytes32",
						"numberOfBytes": "32"
					},
					"t_uint256": {
						"encoding": "inplace",
						"label": "uint256",
						"numberOfBytes": "32"
					}
				}
			},
			"userdoc": {
				"kind": "user",
				"methods": {},
				"version": 1
			}
		}
	}
}