{
	"contracts/5.videollops.sol": {
		"loops": {
			"abi": [
				{
					"inputs": [],
					"name": "getarr0",
					"outputs": [
						{
							"internalType": "uint256[15]",
							"name": "",
							"type": "uint256[15]"
						}
					],
					"stateMutability": "view",
					"type": "function"
				},
				{
					"inputs": [],
					"name": "listByWhile",
					"outputs": [],
					"stateMutability": "nonpayable",
					"type": "function"
				},
				{
					"inputs": [],
					"name": "listbyfor",
					"outputs": [],
					"stateMutability": "nonpayable",
					"type": "function"
				},
				{
					"inputs": [
						{
							"internalType": "uint256",
							"name": "",
							"type": "uint256"
						}
					],
					"name": "numbers0",
					"outputs": [
						{
							"internalType": "uint256",
							"name": "",
							"type": "uint256"
						}
					],
					"stateMutability": "view",
					"type": "function"
				},
				{
					"inputs": [
						{
							"internalType": "uint256",
							"name": "",
							"type": "uint256"
						}
					],
					"name": "numbers1",
					"outputs": [
						{
							"internalType": "uint256",
							"name": "",
							"type": "uint256"
						}
					],
					"stateMutability": "view",
					"type": "function"
				}
			],
			"devdoc": {
				"kind": "dev",
				"methods": {},
				"version": 1
			},
			"evm": {
				"assembly": "    /* \"contracts/5.videollops.sol\":58:598  contract loops{... */\n  mstore(0x40, 0x80)\n  callvalue\n  dup1\n  iszero\n  tag_1\n  jumpi\n  0x00\n  dup1\n  revert\ntag_1:\n  pop\n  dataSize(sub_0)\n  dup1\n  dataOffset(sub_0)\n  0x00\n  codecopy\n  0x00\n  return\nstop\n\nsub_0: assembly {\n        /* \"contracts/5.videollops.sol\":58:598  contract loops{... */\n      mstore(0x40, 0x80)\n      callvalue\n      dup1\n      iszero\n      tag_1\n      jumpi\n      0x00\n      dup1\n      revert\n    tag_1:\n      pop\n      jumpi(tag_2, lt(calldatasize, 0x04))\n      shr(0xe0, calldataload(0x00))\n      dup1\n      0x0cf8d617\n      eq\n      tag_3\n      jumpi\n      dup1\n      0x0d26c717\n      eq\n      tag_4\n      jumpi\n      dup1\n      0x3f79cb77\n      eq\n      tag_5\n      jumpi\n      dup1\n      0x62b44ce1\n      eq\n      tag_6\n      jumpi\n      dup1\n      0xc84c7205\n      eq\n      tag_7\n      jumpi\n    tag_2:\n      0x00\n      dup1\n      revert\n        /* \"contracts/5.videollops.sol\":443:595  function listByWhile() public{... */\n    tag_3:\n      tag_8\n      tag_9\n      jump\t// in\n    tag_8:\n      stop\n        /* \"contracts/5.videollops.sol\":151:335  function listbyfor()public{... */\n    tag_4:\n      tag_10\n      tag_11\n      jump\t// in\n    tag_10:\n      stop\n        /* \"contracts/5.videollops.sol\":341:437  function getarr0()public view returns(uint256[15]memory)... */\n    tag_5:\n      tag_12\n      tag_13\n      jump\t// in\n    tag_12:\n      mload(0x40)\n      tag_14\n      swap2\n      swap1\n      tag_15\n      jump\t// in\n    tag_14:\n      mload(0x40)\n      dup1\n      swap2\n      sub\n      swap1\n      return\n        /* \"contracts/5.videollops.sol\":114:142  uint256 [15] public numbers1 */\n    tag_6:\n      tag_16\n      0x04\n      dup1\n      calldatasize\n      sub\n      dup2\n      add\n      swap1\n      tag_17\n      swap2\n      swap1\n      tag_18\n      jump\t// in\n    tag_17:\n      tag_19\n      jump\t// in\n    tag_16:\n      mload(0x40)\n      tag_20\n      swap2\n      swap1\n      tag_21\n      jump\t// in\n    tag_20:\n      mload(0x40)\n      dup1\n      swap2\n      sub\n      swap1\n      return\n        /* \"contracts/5.videollops.sol\":79:107  uint256 [15] public numbers0 */\n    tag_7:\n      tag_22\n      0x04\n      dup1\n      calldatasize\n      sub\n      dup2\n      add\n      swap1\n      tag_23\n      swap2\n      swap1\n      tag_18\n      jump\t// in\n    tag_23:\n      tag_24\n      jump\t// in\n    tag_22:\n      mload(0x40)\n      tag_25\n      swap2\n      swap1\n      tag_21\n      jump\t// in\n    tag_25:\n      mload(0x40)\n      dup1\n      swap2\n      sub\n      swap1\n      return\n        /* \"contracts/5.videollops.sol\":443:595  function listByWhile() public{... */\n    tag_9:\n        /* \"contracts/5.videollops.sol\":483:492  uint256 i */\n      0x00\n        /* \"contracts/5.videollops.sol\":505:588  while (i<numbers1.length){... */\n    tag_27:\n        /* \"contracts/5.videollops.sol\":514:529  numbers1.length */\n      0x0f\n        /* \"contracts/5.videollops.sol\":512:513  i */\n      dup2\n        /* \"contracts/5.videollops.sol\":512:529  i<numbers1.length */\n      lt\n        /* \"contracts/5.videollops.sol\":505:588  while (i<numbers1.length){... */\n      iszero\n      tag_28\n      jumpi\n        /* \"contracts/5.videollops.sol\":557:558  i */\n      dup1\n        /* \"contracts/5.videollops.sol\":545:553  numbers1 */\n      0x0f\n        /* \"contracts/5.videollops.sol\":554:555  i */\n      dup3\n        /* \"contracts/5.videollops.sol\":545:556  numbers1[i] */\n      0x0f\n      dup2\n      lt\n      tag_29\n      jumpi\n      tag_30\n      tag_31\n      jump\t// in\n    tag_30:\n    tag_29:\n      add\n        /* \"contracts/5.videollops.sol\":545:558  numbers1[i]=i */\n      dup2\n      swap1\n      sstore\n      pop\n        /* \"contracts/5.videollops.sol\":573:576  i++ */\n      dup1\n      dup1\n      tag_33\n      swap1\n      tag_34\n      jump\t// in\n    tag_33:\n      swap2\n      pop\n      pop\n        /* \"contracts/5.videollops.sol\":505:588  while (i<numbers1.length){... */\n      jump(tag_27)\n    tag_28:\n        /* \"contracts/5.videollops.sol\":472:595  {... */\n      pop\n        /* \"contracts/5.videollops.sol\":443:595  function listByWhile() public{... */\n      jump\t// out\n        /* \"contracts/5.videollops.sol\":151:335  function listbyfor()public{... */\n    tag_11:\n        /* \"contracts/5.videollops.sol\":188:212  uint256 [15] memory nums */\n      0x00\n        /* \"contracts/5.videollops.sol\":213:221  numbers0 */\n      dup1\n        /* \"contracts/5.videollops.sol\":188:221  uint256 [15] memory nums=numbers0 */\n      0x0f\n      dup1\n      0x20\n      mul\n      mload(0x40)\n      swap1\n      dup2\n      add\n      0x40\n      mstore\n      dup1\n      swap3\n      swap2\n      swap1\n      dup3\n      0x0f\n      dup1\n      iszero\n      tag_36\n      jumpi\n      0x20\n      mul\n      dup3\n      add\n      swap2\n    tag_37:\n      dup2\n      sload\n      dup2\n      mstore\n      0x20\n      add\n      swap1\n      0x01\n      add\n      swap1\n      dup1\n      dup4\n      gt\n      tag_37\n      jumpi\n    tag_36:\n      pop\n      pop\n      pop\n      pop\n      pop\n      swap1\n      pop\n        /* \"contracts/5.videollops.sol\":236:242  uint i */\n      0x00\n        /* \"contracts/5.videollops.sol\":232:304  for(uint i=0;i< nums.length;i++){... */\n    tag_38:\n        /* \"contracts/5.videollops.sol\":248:259  nums.length */\n      0x0f\n        /* \"contracts/5.videollops.sol\":245:246  i */\n      dup2\n        /* \"contracts/5.videollops.sol\":245:259  i< nums.length */\n      lt\n        /* \"contracts/5.videollops.sol\":232:304  for(uint i=0;i< nums.length;i++){... */\n      iszero\n      tag_39\n      jumpi\n        /* \"contracts/5.videollops.sol\":289:290  2 */\n      0x02\n        /* \"contracts/5.videollops.sol\":287:288  i */\n      dup2\n        /* \"contracts/5.videollops.sol\":287:290  i*2 */\n      tag_41\n      swap2\n      swap1\n      tag_42\n      jump\t// in\n    tag_41:\n        /* \"contracts/5.videollops.sol\":279:283  nums */\n      dup3\n        /* \"contracts/5.videollops.sol\":284:285  i */\n      dup3\n        /* \"contracts/5.videollops.sol\":279:286  nums[i] */\n      0x0f\n      dup2\n      lt\n      tag_43\n      jumpi\n      tag_44\n      tag_31\n      jump\t// in\n    tag_44:\n    tag_43:\n      0x20\n      mul\n      add\n        /* \"contracts/5.videollops.sol\":279:290  nums[i]=i*2 */\n      dup2\n      dup2\n      mstore\n      pop\n      pop\n        /* \"contracts/5.videollops.sol\":260:263  i++ */\n      dup1\n      dup1\n      tag_45\n      swap1\n      tag_34\n      jump\t// in\n    tag_45:\n      swap2\n      pop\n      pop\n        /* \"contracts/5.videollops.sol\":232:304  for(uint i=0;i< nums.length;i++){... */\n      jump(tag_38)\n    tag_39:\n      pop\n        /* \"contracts/5.videollops.sol\":323:327  nums */\n      dup1\n        /* \"contracts/5.videollops.sol\":314:322  numbers0 */\n      0x00\n        /* \"contracts/5.videollops.sol\":314:327  numbers0=nums */\n      swap1\n      0x0f\n      tag_46\n      swap3\n      swap2\n      swap1\n      tag_47\n      jump\t// in\n    tag_46:\n      pop\n        /* \"contracts/5.videollops.sol\":177:335  {... */\n      pop\n        /* \"contracts/5.videollops.sol\":151:335  function listbyfor()public{... */\n      jump\t// out\n        /* \"contracts/5.videollops.sol\":341:437  function getarr0()public view returns(uint256[15]memory)... */\n    tag_13:\n        /* \"contracts/5.videollops.sol\":379:396  uint256[15]memory */\n      tag_48\n      tag_49\n      jump\t// in\n    tag_48:\n        /* \"contracts/5.videollops.sol\":421:429  numbers0 */\n      0x00\n        /* \"contracts/5.videollops.sol\":414:429  return numbers0 */\n      0x0f\n      dup1\n      0x20\n      mul\n      mload(0x40)\n      swap1\n      dup2\n      add\n      0x40\n      mstore\n      dup1\n      swap3\n      swap2\n      swap1\n      dup3\n      0x0f\n      dup1\n      iszero\n      tag_51\n      jumpi\n      0x20\n      mul\n      dup3\n      add\n      swap2\n    tag_52:\n      dup2\n      sload\n      dup2\n      mstore\n      0x20\n      add\n      swap1\n      0x01\n      add\n      swap1\n      dup1\n      dup4\n      gt\n      tag_52\n      jumpi\n    tag_51:\n      pop\n      pop\n      pop\n      pop\n      pop\n      swap1\n      pop\n        /* \"contracts/5.videollops.sol\":341:437  function getarr0()public view returns(uint256[15]memory)... */\n      swap1\n      jump\t// out\n        /* \"contracts/5.videollops.sol\":114:142  uint256 [15] public numbers1 */\n    tag_19:\n      0x0f\n      dup2\n      0x0f\n      dup2\n      lt\n      tag_53\n      jumpi\n      0x00\n      dup1\n      revert\n    tag_53:\n      add\n      0x00\n      swap2\n      pop\n      swap1\n      pop\n      sload\n      dup2\n      jump\t// out\n        /* \"contracts/5.videollops.sol\":79:107  uint256 [15] public numbers0 */\n    tag_24:\n      0x00\n      dup2\n      0x0f\n      dup2\n      lt\n      tag_55\n      jumpi\n      0x00\n      dup1\n      revert\n    tag_55:\n      add\n      0x00\n      swap2\n      pop\n      swap1\n      pop\n      sload\n      dup2\n      jump\t// out\n    tag_47:\n      dup3\n      0x0f\n      dup2\n      add\n      swap3\n      dup3\n      iszero\n      tag_57\n      jumpi\n      swap2\n      0x20\n      mul\n      dup3\n      add\n    tag_58:\n      dup3\n      dup2\n      gt\n      iszero\n      tag_59\n      jumpi\n      dup3\n      mload\n      dup3\n      sstore\n      swap2\n      0x20\n      add\n      swap2\n      swap1\n      0x01\n      add\n      swap1\n      jump(tag_58)\n    tag_59:\n    tag_57:\n      pop\n      swap1\n      pop\n      tag_60\n      swap2\n      swap1\n      tag_61\n      jump\t// in\n    tag_60:\n      pop\n      swap1\n      jump\t// out\n    tag_49:\n      mload(0x40)\n      dup1\n      0x01e0\n      add\n      0x40\n      mstore\n      dup1\n      0x0f\n      swap1\n      0x20\n      dup3\n      mul\n      dup1\n      calldatasize\n      dup4\n      calldatacopy\n      dup1\n      dup3\n      add\n      swap2\n      pop\n      pop\n      swap1\n      pop\n      pop\n      swap1\n      jump\t// out\n    tag_61:\n    tag_62:\n      dup1\n      dup3\n      gt\n      iszero\n      tag_63\n      jumpi\n      0x00\n      dup2\n      0x00\n      swap1\n      sstore\n      pop\n      0x01\n      add\n      jump(tag_62)\n    tag_63:\n      pop\n      swap1\n      jump\t// out\n        /* \"#utility.yul\":7:112   */\n    tag_64:\n        /* \"#utility.yul\":73:79   */\n      0x00\n        /* \"#utility.yul\":101:105   */\n      0x0f\n        /* \"#utility.yul\":91:105   */\n      swap1\n      pop\n        /* \"#utility.yul\":7:112   */\n      swap2\n      swap1\n      pop\n      jump\t// out\n        /* \"#utility.yul\":118:262   */\n    tag_65:\n        /* \"#utility.yul\":216:227   */\n      0x00\n        /* \"#utility.yul\":253:256   */\n      dup2\n        /* \"#utility.yul\":238:256   */\n      swap1\n      pop\n        /* \"#utility.yul\":118:262   */\n      swap3\n      swap2\n      pop\n      pop\n      jump\t// out\n        /* \"#utility.yul\":268:367   */\n    tag_66:\n        /* \"#utility.yul\":334:338   */\n      0x00\n        /* \"#utility.yul\":357:360   */\n      dup2\n        /* \"#utility.yul\":349:360   */\n      swap1\n      pop\n        /* \"#utility.yul\":268:367   */\n      swap2\n      swap1\n      pop\n      jump\t// out\n        /* \"#utility.yul\":373:450   */\n    tag_67:\n        /* \"#utility.yul\":410:417   */\n      0x00\n        /* \"#utility.yul\":439:444   */\n      dup2\n        /* \"#utility.yul\":428:444   */\n      swap1\n      pop\n        /* \"#utility.yul\":373:450   */\n      swap2\n      swap1\n      pop\n      jump\t// out\n        /* \"#utility.yul\":456:564   */\n    tag_68:\n        /* \"#utility.yul\":533:557   */\n      tag_85\n        /* \"#utility.yul\":551:556   */\n      dup2\n        /* \"#utility.yul\":533:557   */\n      tag_67\n      jump\t// in\n    tag_85:\n        /* \"#utility.yul\":528:531   */\n      dup3\n        /* \"#utility.yul\":521:558   */\n      mstore\n        /* \"#utility.yul\":456:564   */\n      pop\n      pop\n      jump\t// out\n        /* \"#utility.yul\":570:749   */\n    tag_69:\n        /* \"#utility.yul\":639:649   */\n      0x00\n        /* \"#utility.yul\":660:706   */\n      tag_87\n        /* \"#utility.yul\":702:705   */\n      dup4\n        /* \"#utility.yul\":694:700   */\n      dup4\n        /* \"#utility.yul\":660:706   */\n      tag_68\n      jump\t// in\n    tag_87:\n        /* \"#utility.yul\":738:742   */\n      0x20\n        /* \"#utility.yul\":733:736   */\n      dup4\n        /* \"#utility.yul\":729:743   */\n      add\n        /* \"#utility.yul\":715:743   */\n      swap1\n      pop\n        /* \"#utility.yul\":570:749   */\n      swap3\n      swap2\n      pop\n      pop\n      jump\t// out\n        /* \"#utility.yul\":755:867   */\n    tag_70:\n        /* \"#utility.yul\":824:828   */\n      0x00\n        /* \"#utility.yul\":856:860   */\n      0x20\n        /* \"#utility.yul\":851:854   */\n      dup3\n        /* \"#utility.yul\":847:861   */\n      add\n        /* \"#utility.yul\":839:861   */\n      swap1\n      pop\n        /* \"#utility.yul\":755:867   */\n      swap2\n      swap1\n      pop\n      jump\t// out\n        /* \"#utility.yul\":907:1607   */\n    tag_71:\n        /* \"#utility.yul\":1045:1098   */\n      tag_90\n        /* \"#utility.yul\":1092:1097   */\n      dup2\n        /* \"#utility.yul\":1045:1098   */\n      tag_64\n      jump\t// in\n    tag_90:\n        /* \"#utility.yul\":1114:1199   */\n      tag_91\n        /* \"#utility.yul\":1192:1198   */\n      dup2\n        /* \"#utility.yul\":1187:1190   */\n      dup5\n        /* \"#utility.yul\":1114:1199   */\n      tag_65\n      jump\t// in\n    tag_91:\n        /* \"#utility.yul\":1107:1199   */\n      swap3\n      pop\n        /* \"#utility.yul\":1223:1278   */\n      tag_92\n        /* \"#utility.yul\":1272:1277   */\n      dup3\n        /* \"#utility.yul\":1223:1278   */\n      tag_66\n      jump\t// in\n    tag_92:\n        /* \"#utility.yul\":1301:1308   */\n      dup1\n        /* \"#utility.yul\":1332:1333   */\n      0x00\n        /* \"#utility.yul\":1317:1600   */\n    tag_93:\n        /* \"#utility.yul\":1342:1348   */\n      dup4\n        /* \"#utility.yul\":1339:1340   */\n      dup2\n        /* \"#utility.yul\":1336:1349   */\n      lt\n        /* \"#utility.yul\":1317:1600   */\n      iszero\n      tag_95\n      jumpi\n        /* \"#utility.yul\":1418:1424   */\n      dup2\n        /* \"#utility.yul\":1412:1425   */\n      mload\n        /* \"#utility.yul\":1445:1508   */\n      tag_96\n        /* \"#utility.yul\":1504:1507   */\n      dup8\n        /* \"#utility.yul\":1489:1502   */\n      dup3\n        /* \"#utility.yul\":1445:1508   */\n      tag_69\n      jump\t// in\n    tag_96:\n        /* \"#utility.yul\":1438:1508   */\n      swap7\n      pop\n        /* \"#utility.yul\":1531:1590   */\n      tag_97\n        /* \"#utility.yul\":1583:1589   */\n      dup4\n        /* \"#utility.yul\":1531:1590   */\n      tag_70\n      jump\t// in\n    tag_97:\n        /* \"#utility.yul\":1521:1590   */\n      swap3\n      pop\n        /* \"#utility.yul\":1377:1600   */\n      pop\n        /* \"#utility.yul\":1364:1365   */\n      0x01\n        /* \"#utility.yul\":1361:1362   */\n      dup2\n        /* \"#utility.yul\":1357:1366   */\n      add\n        /* \"#utility.yul\":1352:1366   */\n      swap1\n      pop\n        /* \"#utility.yul\":1317:1600   */\n      jump(tag_93)\n    tag_95:\n        /* \"#utility.yul\":1321:1335   */\n      pop\n        /* \"#utility.yul\":1021:1607   */\n      pop\n      pop\n      pop\n        /* \"#utility.yul\":907:1607   */\n      pop\n      pop\n      jump\t// out\n        /* \"#utility.yul\":1613:1932   */\n    tag_15:\n        /* \"#utility.yul\":1754:1758   */\n      0x00\n        /* \"#utility.yul\":1792:1795   */\n      0x01e0\n        /* \"#utility.yul\":1781:1790   */\n      dup3\n        /* \"#utility.yul\":1777:1796   */\n      add\n        /* \"#utility.yul\":1769:1796   */\n      swap1\n      pop\n        /* \"#utility.yul\":1806:1925   */\n      tag_99\n        /* \"#utility.yul\":1922:1923   */\n      0x00\n        /* \"#utility.yul\":1911:1920   */\n      dup4\n        /* \"#utility.yul\":1907:1924   */\n      add\n        /* \"#utility.yul\":1898:1904   */\n      dup5\n        /* \"#utility.yul\":1806:1925   */\n      tag_71\n      jump\t// in\n    tag_99:\n        /* \"#utility.yul\":1613:1932   */\n      swap3\n      swap2\n      pop\n      pop\n      jump\t// out\n        /* \"#utility.yul\":2019:2136   */\n    tag_73:\n        /* \"#utility.yul\":2128:2129   */\n      0x00\n        /* \"#utility.yul\":2125:2126   */\n      dup1\n        /* \"#utility.yul\":2118:2130   */\n      revert\n        /* \"#utility.yul\":2265:2387   */\n    tag_75:\n        /* \"#utility.yul\":2338:2362   */\n      tag_104\n        /* \"#utility.yul\":2356:2361   */\n      dup2\n        /* \"#utility.yul\":2338:2362   */\n      tag_67\n      jump\t// in\n    tag_104:\n        /* \"#utility.yul\":2331:2336   */\n      dup2\n        /* \"#utility.yul\":2328:2363   */\n      eq\n        /* \"#utility.yul\":2318:2381   */\n      tag_105\n      jumpi\n        /* \"#utility.yul\":2377:2378   */\n      0x00\n        /* \"#utility.yul\":2374:2375   */\n      dup1\n        /* \"#utility.yul\":2367:2379   */\n      revert\n        /* \"#utility.yul\":2318:2381   */\n    tag_105:\n        /* \"#utility.yul\":2265:2387   */\n      pop\n      jump\t// out\n        /* \"#utility.yul\":2393:2532   */\n    tag_76:\n        /* \"#utility.yul\":2439:2444   */\n      0x00\n        /* \"#utility.yul\":2477:2483   */\n      dup2\n        /* \"#utility.yul\":2464:2484   */\n      calldataload\n        /* \"#utility.yul\":2455:2484   */\n      swap1\n      pop\n        /* \"#utility.yul\":2493:2526   */\n      tag_107\n        /* \"#utility.yul\":2520:2525   */\n      dup2\n        /* \"#utility.yul\":2493:2526   */\n      tag_75\n      jump\t// in\n    tag_107:\n        /* \"#utility.yul\":2393:2532   */\n      swap3\n      swap2\n      pop\n      pop\n      jump\t// out\n        /* \"#utility.yul\":2538:2867   */\n    tag_18:\n        /* \"#utility.yul\":2597:2603   */\n      0x00\n        /* \"#utility.yul\":2646:2648   */\n      0x20\n        /* \"#utility.yul\":2634:2643   */\n      dup3\n        /* \"#utility.yul\":2625:2632   */\n      dup5\n        /* \"#utility.yul\":2621:2644   */\n      sub\n        /* \"#utility.yul\":2617:2649   */\n      slt\n        /* \"#utility.yul\":2614:2733   */\n      iszero\n      tag_109\n      jumpi\n        /* \"#utility.yul\":2652:2731   */\n      tag_110\n      tag_73\n      jump\t// in\n    tag_110:\n        /* \"#utility.yul\":2614:2733   */\n    tag_109:\n        /* \"#utility.yul\":2772:2773   */\n      0x00\n        /* \"#utility.yul\":2797:2850   */\n      tag_111\n        /* \"#utility.yul\":2842:2849   */\n      dup5\n        /* \"#utility.yul\":2833:2839   */\n      dup3\n        /* \"#utility.yul\":2822:2831   */\n      dup6\n        /* \"#utility.yul\":2818:2840   */\n      add\n        /* \"#utility.yul\":2797:2850   */\n      tag_76\n      jump\t// in\n    tag_111:\n        /* \"#utility.yul\":2787:2850   */\n      swap2\n      pop\n        /* \"#utility.yul\":2743:2860   */\n      pop\n        /* \"#utility.yul\":2538:2867   */\n      swap3\n      swap2\n      pop\n      pop\n      jump\t// out\n        /* \"#utility.yul\":2873:2991   */\n    tag_77:\n        /* \"#utility.yul\":2960:2984   */\n      tag_113\n        /* \"#utility.yul\":2978:2983   */\n      dup2\n        /* \"#utility.yul\":2960:2984   */\n      tag_67\n      jump\t// in\n    tag_113:\n        /* \"#utility.yul\":2955:2958   */\n      dup3\n        /* \"#utility.yul\":2948:2985   */\n      mstore\n        /* \"#utility.yul\":2873:2991   */\n      pop\n      pop\n      jump\t// out\n        /* \"#utility.yul\":2997:3219   */\n    tag_21:\n        /* \"#utility.yul\":3090:3094   */\n      0x00\n        /* \"#utility.yul\":3128:3130   */\n      0x20\n        /* \"#utility.yul\":3117:3126   */\n      dup3\n        /* \"#utility.yul\":3113:3131   */\n      add\n        /* \"#utility.yul\":3105:3131   */\n      swap1\n      pop\n        /* \"#utility.yul\":3141:3212   */\n      tag_115\n        /* \"#utility.yul\":3209:3210   */\n      0x00\n        /* \"#utility.yul\":3198:3207   */\n      dup4\n        /* \"#utility.yul\":3194:3211   */\n      add\n        /* \"#utility.yul\":3185:3191   */\n      dup5\n        /* \"#utility.yul\":3141:3212   */\n      tag_77\n      jump\t// in\n    tag_115:\n        /* \"#utility.yul\":2997:3219   */\n      swap3\n      swap2\n      pop\n      pop\n      jump\t// out\n        /* \"#utility.yul\":3225:3405   */\n    tag_31:\n        /* \"#utility.yul\":3273:3350   */\n      0x4e487b7100000000000000000000000000000000000000000000000000000000\n        /* \"#utility.yul\":3270:3271   */\n      0x00\n        /* \"#utility.yul\":3263:3351   */\n      mstore\n        /* \"#utility.yul\":3370:3374   */\n      0x32\n        /* \"#utility.yul\":3367:3368   */\n      0x04\n        /* \"#utility.yul\":3360:3375   */\n      mstore\n        /* \"#utility.yul\":3394:3398   */\n      0x24\n        /* \"#utility.yul\":3391:3392   */\n      0x00\n        /* \"#utility.yul\":3384:3399   */\n      revert\n        /* \"#utility.yul\":3411:3591   */\n    tag_78:\n        /* \"#utility.yul\":3459:3536   */\n      0x4e487b7100000000000000000000000000000000000000000000000000000000\n        /* \"#utility.yul\":3456:3457   */\n      0x00\n        /* \"#utility.yul\":3449:3537   */\n      mstore\n        /* \"#utility.yul\":3556:3560   */\n      0x11\n        /* \"#utility.yul\":3553:3554   */\n      0x04\n        /* \"#utility.yul\":3546:3561   */\n      mstore\n        /* \"#utility.yul\":3580:3584   */\n      0x24\n        /* \"#utility.yul\":3577:3578   */\n      0x00\n        /* \"#utility.yul\":3570:3585   */\n      revert\n        /* \"#utility.yul\":3597:3830   */\n    tag_34:\n        /* \"#utility.yul\":3636:3639   */\n      0x00\n        /* \"#utility.yul\":3659:3683   */\n      tag_119\n        /* \"#utility.yul\":3677:3682   */\n      dup3\n        /* \"#utility.yul\":3659:3683   */\n      tag_67\n      jump\t// in\n    tag_119:\n        /* \"#utility.yul\":3650:3683   */\n      swap2\n      pop\n        /* \"#utility.yul\":3705:3771   */\n      0xffffffffffffffffffffffffffffffffffffffffffffffffffffffffffffffff\n        /* \"#utility.yul\":3698:3703   */\n      dup3\n        /* \"#utility.yul\":3695:3772   */\n      sub\n        /* \"#utility.yul\":3692:3795   */\n      tag_120\n      jumpi\n        /* \"#utility.yul\":3775:3793   */\n      tag_121\n      tag_78\n      jump\t// in\n    tag_121:\n        /* \"#utility.yul\":3692:3795   */\n    tag_120:\n        /* \"#utility.yul\":3822:3823   */\n      0x01\n        /* \"#utility.yul\":3815:3820   */\n      dup3\n        /* \"#utility.yul\":3811:3824   */\n      add\n        /* \"#utility.yul\":3804:3824   */\n      swap1\n      pop\n        /* \"#utility.yul\":3597:3830   */\n      swap2\n      swap1\n      pop\n      jump\t// out\n        /* \"#utility.yul\":3836:4246   */\n    tag_42:\n        /* \"#utility.yul\":3876:3883   */\n      0x00\n        /* \"#utility.yul\":3899:3919   */\n      tag_123\n        /* \"#utility.yul\":3917:3918   */\n      dup3\n        /* \"#utility.yul\":3899:3919   */\n      tag_67\n      jump\t// in\n    tag_123:\n        /* \"#utility.yul\":3894:3919   */\n      swap2\n      pop\n        /* \"#utility.yul\":3933:3953   */\n      tag_124\n        /* \"#utility.yul\":3951:3952   */\n      dup4\n        /* \"#utility.yul\":3933:3953   */\n      tag_67\n      jump\t// in\n    tag_124:\n        /* \"#utility.yul\":3928:3953   */\n      swap3\n      pop\n        /* \"#utility.yul\":3988:3989   */\n      dup3\n        /* \"#utility.yul\":3985:3986   */\n      dup3\n        /* \"#utility.yul\":3981:3990   */\n      mul\n        /* \"#utility.yul\":4010:4040   */\n      tag_125\n        /* \"#utility.yul\":4028:4039   */\n      dup2\n        /* \"#utility.yul\":4010:4040   */\n      tag_67\n      jump\t// in\n    tag_125:\n        /* \"#utility.yul\":3999:4040   */\n      swap2\n      pop\n        /* \"#utility.yul\":4189:4190   */\n      dup3\n        /* \"#utility.yul\":4180:4187   */\n      dup3\n        /* \"#utility.yul\":4176:4191   */\n      div\n        /* \"#utility.yul\":4173:4174   */\n      dup5\n        /* \"#utility.yul\":4170:4192   */\n      eq\n        /* \"#utility.yul\":4150:4151   */\n      dup4\n        /* \"#utility.yul\":4143:4152   */\n      iszero\n        /* \"#utility.yul\":4123:4206   */\n      or\n        /* \"#utility.yul\":4100:4239   */\n      tag_126\n      jumpi\n        /* \"#utility.yul\":4219:4237   */\n      tag_127\n      tag_78\n      jump\t// in\n    tag_127:\n        /* \"#utility.yul\":4100:4239   */\n    tag_126:\n        /* \"#utility.yul\":3884:4246   */\n      pop\n        /* \"#utility.yul\":3836:4246   */\n      swap3\n      swap2\n      pop\n      pop\n      jump\t// out\n\n    auxdata: 0xa2646970667358221220acda758e069bc4f4a7ef5756350d5a551244ea995805e7bb35bb01925a355f6764736f6c63430008130033\n}\n",
				"bytecode": {
					"linkReferences": {},
					"object": "608060405234801561001057600080fd5b50610541806100206000396000f3fe608060405234801561001057600080fd5b50600436106100575760003560e01c80630cf8d6171461005c5780630d26c717146100665780633f79cb771461007057806362b44ce11461008e578063c84c7205146100be575b600080fd5b6100646100ee565b005b61006e61012a565b005b6100786101c9565b604051610085919061037f565b60405180910390f35b6100a860048036038101906100a391906103cc565b610214565b6040516100b59190610408565b60405180910390f35b6100d860048036038101906100d391906103cc565b61022f565b6040516100e59190610408565b60405180910390f35b60005b600f8110156101275780600f82600f811061010f5761010e610423565b5b0181905550808061011f90610481565b9150506100f1565b50565b600080600f806020026040519081016040528092919082600f8015610164576020028201915b815481526020019060010190808311610150575b5050505050905060005b600f8110156101b35760028161018491906104c9565b8282600f811061019757610196610423565b5b60200201818152505080806101ab90610481565b91505061016e565b5080600090600f6101c592919061024a565b5050565b6101d161028a565b6000600f806020026040519081016040528092919082600f801561020a576020028201915b8154815260200190600101908083116101f6575b5050505050905090565b600f81600f811061022457600080fd5b016000915090505481565b600081600f811061023f57600080fd5b016000915090505481565b82600f8101928215610279579160200282015b8281111561027857825182559160200191906001019061025d565b5b50905061028691906102ad565b5090565b604051806101e00160405280600f90602082028036833780820191505090505090565b5b808211156102c65760008160009055506001016102ae565b5090565b6000600f9050919050565b600081905092915050565b6000819050919050565b6000819050919050565b6102fd816102ea565b82525050565b600061030f83836102f4565b60208301905092915050565b6000602082019050919050565b610331816102ca565b61033b81846102d5565b9250610346826102e0565b8060005b8381101561037757815161035e8782610303565b96506103698361031b565b92505060018101905061034a565b505050505050565b60006101e0820190506103956000830184610328565b92915050565b600080fd5b6103a9816102ea565b81146103b457600080fd5b50565b6000813590506103c6816103a0565b92915050565b6000602082840312156103e2576103e161039b565b5b60006103f0848285016103b7565b91505092915050565b610402816102ea565b82525050565b600060208201905061041d60008301846103f9565b92915050565b7f4e487b7100000000000000000000000000000000000000000000000000000000600052603260045260246000fd5b7f4e487b7100000000000000000000000000000000000000000000000000000000600052601160045260246000fd5b600061048c826102ea565b91507fffffffffffffffffffffffffffffffffffffffffffffffffffffffffffffffff82036104be576104bd610452565b5b600182019050919050565b60006104d4826102ea565b91506104df836102ea565b92508282026104ed816102ea565b9150828204841483151761050457610503610452565b5b509291505056fea2646970667358221220acda758e069bc4f4a7ef5756350d5a551244ea995805e7bb35bb01925a355f6764736f6c63430008130033",
					"opcodes": "PUSH1 0x80 PUSH1 0x40 MSTORE CALLVALUE DUP1 ISZERO PUSH2 0x10 JUMPI PUSH1 0x0 DUP1 REVERT JUMPDEST POP PUSH2 0x541 DUP1 PUSH2 0x20 PUSH1 0x0 CODECOPY PUSH1 0x0 RETURN INVALID PUSH1 0x80 PUSH1 0x40 MSTORE CALLVALUE DUP1 ISZERO PUSH2 0x10 JUMPI PUSH1 0x0 DUP1 REVERT JUMPDEST POP PUSH1 0x4 CALLDATASIZE LT PUSH2 0x57 JUMPI PUSH1 0x0 CALLDATALOAD PUSH1 0xE0 SHR DUP1 PUSH4 0xCF8D617 EQ PUSH2 0x5C JUMPI DUP1 PUSH4 0xD26C717 EQ PUSH2 0x66 JUMPI DUP1 PUSH4 0x3F79CB77 EQ PUSH2 0x70 JUMPI DUP1 PUSH4 0x62B44CE1 EQ PUSH2 0x8E JUMPI DUP1 PUSH4 0xC84C7205 EQ PUSH2 0xBE JUMPI JUMPDEST PUSH1 0x0 DUP1 REVERT JUMPDEST PUSH2 0x64 PUSH2 0xEE JUMP JUMPDEST STOP JUMPDEST PUSH2 0x6E PUSH2 0x12A JUMP JUMPDEST STOP JUMPDEST PUSH2 0x78 PUSH2 0x1C9 JUMP JUMPDEST PUSH1 0x40 MLOAD PUSH2 0x85 SWAP2 SWAP1 PUSH2 0x37F JUMP JUMPDEST PUSH1 0x40 MLOAD DUP1 SWAP2 SUB SWAP1 RETURN JUMPDEST PUSH2 0xA8 PUSH1 0x4 DUP1 CALLDATASIZE SUB DUP2 ADD SWAP1 PUSH2 0xA3 SWAP2 SWAP1 PUSH2 0x3CC JUMP JUMPDEST PUSH2 0x214 JUMP JUMPDEST PUSH1 0x40 MLOAD PUSH2 0xB5 SWAP2 SWAP1 PUSH2 0x408 JUMP JUMPDEST PUSH1 0x40 MLOAD DUP1 SWAP2 SUB SWAP1 RETURN JUMPDEST PUSH2 0xD8 PUSH1 0x4 DUP1 CALLDATASIZE SUB DUP2 ADD SWAP1 PUSH2 0xD3 SWAP2 SWAP1 PUSH2 0x3CC JUMP JUMPDEST PUSH2 0x22F JUMP JUMPDEST PUSH1 0x40 MLOAD PUSH2 0xE5 SWAP2 SWAP1 PUSH2 0x408 JUMP JUMPDEST PUSH1 0x40 MLOAD DUP1 SWAP2 SUB SWAP1 RETURN JUMPDEST PUSH1 0x0 JUMPDEST PUSH1 0xF DUP2 LT ISZERO PUSH2 0x127 JUMPI DUP1 PUSH1 0xF DUP3 PUSH1 0xF DUP2 LT PUSH2 0x10F JUMPI PUSH2 0x10E PUSH2 0x423 JUMP JUMPDEST JUMPDEST ADD DUP2 SWAP1 SSTORE POP DUP1 DUP1 PUSH2 0x11F SWAP1 PUSH2 0x481 JUMP JUMPDEST SWAP2 POP POP PUSH2 0xF1 JUMP JUMPDEST POP JUMP JUMPDEST PUSH1 0x0 DUP1 PUSH1 0xF DUP1 PUSH1 0x20 MUL PUSH1 0x40 MLOAD SWAP1 DUP2 ADD PUSH1 0x40 MSTORE DUP1 SWAP3 SWAP2 SWAP1 DUP3 PUSH1 0xF DUP1 ISZERO PUSH2 0x164 JUMPI PUSH1 0x20 MUL DUP3 ADD SWAP2 JUMPDEST DUP2 SLOAD DUP2 MSTORE PUSH1 0x20 ADD SWAP1 PUSH1 0x1 ADD SWAP1 DUP1 DUP4 GT PUSH2 0x150 JUMPI JUMPDEST POP POP POP POP POP SWAP1 POP PUSH1 0x0 JUMPDEST PUSH1 0xF DUP2 LT ISZERO PUSH2 0x1B3 JUMPI PUSH1 0x2 DUP2 PUSH2 0x184 SWAP2 SWAP1 PUSH2 0x4C9 JUMP JUMPDEST DUP3 DUP3 PUSH1 0xF DUP2 LT PUSH2 0x197 JUMPI PUSH2 0x196 PUSH2 0x423 JUMP JUMPDEST JUMPDEST PUSH1 0x20 MUL ADD DUP2 DUP2 MSTORE POP POP DUP1 DUP1 PUSH2 0x1AB SWAP1 PUSH2 0x481 JUMP JUMPDEST SWAP2 POP POP PUSH2 0x16E JUMP JUMPDEST POP DUP1 PUSH1 0x0 SWAP1 PUSH1 0xF PUSH2 0x1C5 SWAP3 SWAP2 SWAP1 PUSH2 0x24A JUMP JUMPDEST POP POP JUMP JUMPDEST PUSH2 0x1D1 PUSH2 0x28A JUMP JUMPDEST PUSH1 0x0 PUSH1 0xF DUP1 PUSH1 0x20 MUL PUSH1 0x40 MLOAD SWAP1 DUP2 ADD PUSH1 0x40 MSTORE DUP1 SWAP3 SWAP2 SWAP1 DUP3 PUSH1 0xF DUP1 ISZERO PUSH2 0x20A JUMPI PUSH1 0x20 MUL DUP3 ADD SWAP2 JUMPDEST DUP2 SLOAD DUP2 MSTORE PUSH1 0x20 ADD SWAP1 PUSH1 0x1 ADD SWAP1 DUP1 DUP4 GT PUSH2 0x1F6 JUMPI JUMPDEST POP POP POP POP POP SWAP1 POP SWAP1 JUMP JUMPDEST PUSH1 0xF DUP2 PUSH1 0xF DUP2 LT PUSH2 0x224 JUMPI PUSH1 0x0 DUP1 REVERT JUMPDEST ADD PUSH1 0x0 SWAP2 POP SWAP1 POP SLOAD DUP2 JUMP JUMPDEST PUSH1 0x0 DUP2 PUSH1 0xF DUP2 LT PUSH2 0x23F JUMPI PUSH1 0x0 DUP1 REVERT JUMPDEST ADD PUSH1 0x0 SWAP2 POP SWAP1 POP SLOAD DUP2 JUMP JUMPDEST DUP3 PUSH1 0xF DUP2 ADD SWAP3 DUP3 ISZERO PUSH2 0x279 JUMPI SWAP2 PUSH1 0x20 MUL DUP3 ADD JUMPDEST DUP3 DUP2 GT ISZERO PUSH2 0x278 JUMPI DUP3 MLOAD DUP3 SSTORE SWAP2 PUSH1 0x20 ADD SWAP2 SWAP1 PUSH1 0x1 ADD SWAP1 PUSH2 0x25D JUMP JUMPDEST JUMPDEST POP SWAP1 POP PUSH2 0x286 SWAP2 SWAP1 PUSH2 0x2AD JUMP JUMPDEST POP SWAP1 JUMP JUMPDEST PUSH1 0x40 MLOAD DUP1 PUSH2 0x1E0 ADD PUSH1 0x40 MSTORE DUP1 PUSH1 0xF SWAP1 PUSH1 0x20 DUP3 MUL DUP1 CALLDATASIZE DUP4 CALLDATACOPY DUP1 DUP3 ADD SWAP2 POP POP SWAP1 POP POP SWAP1 JUMP JUMPDEST JUMPDEST DUP1 DUP3 GT ISZERO PUSH2 0x2C6 JUMPI PUSH1 0x0 DUP2 PUSH1 0x0 SWAP1 SSTORE POP PUSH1 0x1 ADD PUSH2 0x2AE JUMP JUMPDEST POP SWAP1 JUMP JUMPDEST PUSH1 0x0 PUSH1 0xF SWAP1 POP SWAP2 SWAP1 POP JUMP JUMPDEST PUSH1 0x0 DUP2 SWAP1 POP SWAP3 SWAP2 POP POP JUMP JUMPDEST PUSH1 0x0 DUP2 SWAP1 POP SWAP2 SWAP1 POP JUMP JUMPDEST PUSH1 0x0 DUP2 SWAP1 POP SWAP2 SWAP1 POP JUMP JUMPDEST PUSH2 0x2FD DUP2 PUSH2 0x2EA JUMP JUMPDEST DUP3 MSTORE POP POP JUMP JUMPDEST PUSH1 0x0 PUSH2 0x30F DUP4 DUP4 PUSH2 0x2F4 JUMP JUMPDEST PUSH1 0x20 DUP4 ADD SWAP1 POP SWAP3 SWAP2 POP POP JUMP JUMPDEST PUSH1 0x0 PUSH1 0x20 DUP3 ADD SWAP1 POP SWAP2 SWAP1 POP JUMP JUMPDEST PUSH2 0x331 DUP2 PUSH2 0x2CA JUMP JUMPDEST PUSH2 0x33B DUP2 DUP5 PUSH2 0x2D5 JUMP JUMPDEST SWAP3 POP PUSH2 0x346 DUP3 PUSH2 0x2E0 JUMP JUMPDEST DUP1 PUSH1 0x0 JUMPDEST DUP4 DUP2 LT ISZERO PUSH2 0x377 JUMPI DUP2 MLOAD PUSH2 0x35E DUP8 DUP3 PUSH2 0x303 JUMP JUMPDEST SWAP7 POP PUSH2 0x369 DUP4 PUSH2 0x31B JUMP JUMPDEST SWAP3 POP POP PUSH1 0x1 DUP2 ADD SWAP1 POP PUSH2 0x34A JUMP JUMPDEST POP POP POP POP POP POP JUMP JUMPDEST PUSH1 0x0 PUSH2 0x1E0 DUP3 ADD SWAP1 POP PUSH2 0x395 PUSH1 0x0 DUP4 ADD DUP5 PUSH2 0x328 JUMP JUMPDEST SWAP3 SWAP2 POP POP JUMP JUMPDEST PUSH1 0x0 DUP1 REVERT JUMPDEST PUSH2 0x3A9 DUP2 PUSH2 0x2EA JUMP JUMPDEST DUP2 EQ PUSH2 0x3B4 JUMPI PUSH1 0x0 DUP1 REVERT JUMPDEST POP JUMP JUMPDEST PUSH1 0x0 DUP2 CALLDATALOAD SWAP1 POP PUSH2 0x3C6 DUP2 PUSH2 0x3A0 JUMP JUMPDEST SWAP3 SWAP2 POP POP JUMP JUMPDEST PUSH1 0x0 PUSH1 0x20 DUP3 DUP5 SUB SLT ISZERO PUSH2 0x3E2 JUMPI PUSH2 0x3E1 PUSH2 0x39B JUMP JUMPDEST JUMPDEST PUSH1 0x0 PUSH2 0x3F0 DUP5 DUP3 DUP6 ADD PUSH2 0x3B7 JUMP JUMPDEST SWAP2 POP POP SWAP3 SWAP2 POP POP JUMP JUMPDEST PUSH2 0x402 DUP2 PUSH2 0x2EA JUMP JUMPDEST DUP3 MSTORE POP POP JUMP JUMPDEST PUSH1 0x0 PUSH1 0x20 DUP3 ADD SWAP1 POP PUSH2 0x41D PUSH1 0x0 DUP4 ADD DUP5 PUSH2 0x3F9 JUMP JUMPDEST SWAP3 SWAP2 POP POP JUMP JUMPDEST PUSH32 0x4E487B7100000000000000000000000000000000000000000000000000000000 PUSH1 0x0 MSTORE PUSH1 0x32 PUSH1 0x4 MSTORE PUSH1 0x24 PUSH1 0x0 REVERT JUMPDEST PUSH32 0x4E487B7100000000000000000000000000000000000000000000000000000000 PUSH1 0x0 MSTORE PUSH1 0x11 PUSH1 0x4 MSTORE PUSH1 0x24 PUSH1 0x0 REVERT JUMPDEST PUSH1 0x0 PUSH2 0x48C DUP3 PUSH2 0x2EA JUMP JUMPDEST SWAP2 POP PUSH32 0xFFFFFFFFFFFFFFFFFFFFFFFFFFFFFFFFFFFFFFFFFFFFFFFFFFFFFFFFFFFFFFFF DUP3 SUB PUSH2 0x4BE JUMPI PUSH2 0x4BD PUSH2 0x452 JUMP JUMPDEST JUMPDEST PUSH1 0x1 DUP3 ADD SWAP1 POP SWAP2 SWAP1 POP JUMP JUMPDEST PUSH1 0x0 PUSH2 0x4D4 DUP3 PUSH2 0x2EA JUMP JUMPDEST SWAP2 POP PUSH2 0x4DF DUP4 PUSH2 0x2EA JUMP JUMPDEST SWAP3 POP DUP3 DUP3 MUL PUSH2 0x4ED DUP2 PUSH2 0x2EA JUMP JUMPDEST SWAP2 POP DUP3 DUP3 DIV DUP5 EQ DUP4 ISZERO OR PUSH2 0x504 JUMPI PUSH2 0x503 PUSH2 0x452 JUMP JUMPDEST JUMPDEST POP SWAP3 SWAP2 POP POP JUMP INVALID LOG2 PUSH5 0x6970667358 0x22 SLT KECCAK256 0xAC 0xDA PUSH22 0x8E069BC4F4A7EF5756350D5A551244EA995805E7BB35 0xBB ADD SWAP3 GAS CALLDATALOAD 0x5F PUSH8 0x64736F6C63430008 SGT STOP CALLER "
				},
				"gasEstimates": {
					"creation": {
						"codeDepositCost": "269000",
						"executionCost": "312",
						"totalCost": "269312"
					},
					"external": {
						"getarr0()": "infinite",
						"listByWhile()": "infinite",
						"listbyfor()": "infinite",
						"numbers0(uint256)": "infinite",
						"numbers1(uint256)": "infinite"
					}
				},
				"methodIdentifiers": {
					"getarr0()": "3f79cb77",
					"listByWhile()": "0cf8d617",
					"listbyfor()": "0d26c717",
					"numbers0(uint256)": "c84c7205",
					"numbers1(uint256)": "62b44ce1"
				}
			},
			"storageLayout": {
				"storage": [
					{
						"astId": 5,
						"contract": "contracts/5.videollops.sol:loops",
						"label": "numbers0",
						"offset": 0,
						"slot": "0",
						"type": "t_array(t_uint256)15_storage"
					},
					{
						"astId": 9,
						"contract": "contracts/5.videollops.sol:loops",
						"label": "numbers1",
						"offset": 0,
						"slot": "15",
						"type": "t_array(t_uint256)15_storage"
					}
				],
				"types": {
					"t_array(t_uint256)15_storage": {
						"base": "t_uint256",
						"encoding": "inplace",
						"label": "uint256[15]",
						"numberOfBytes": "480"
					},
					"t_uint256": {
						"encoding": "inplace",
						"label": "uint256",
						"numberOfBytes": "32"
					}
				}
			},
			"userdoc": {
				"kind": "user",
				"methods": {},
				"version": 1
			}
		}
	}
}