{
	"contracts/3.video.sol": {
		"func": {
			"abi": [
				{
					"inputs": [
						{
							"internalType": "uint256",
							"name": "newx",
							"type": "uint256"
						}
					],
					"name": "degisim",
					"outputs": [
						{
							"internalType": "uint256",
							"name": "",
							"type": "uint256"
						}
					],
					"stateMutability": "view",
					"type": "function"
				},
				{
					"inputs": [
						{
							"internalType": "uint256",
							"name": "a",
							"type": "uint256"
						},
						{
							"internalType": "uint256",
							"name": "b",
							"type": "uint256"
						}
					],
					"name": "sayiTopla",
					"outputs": [
						{
							"internalType": "uint256",
							"name": "",
							"type": "uint256"
						}
					],
					"stateMutability": "view",
					"type": "function"
				},
				{
					"inputs": [
						{
							"internalType": "uint256",
							"name": "a",
							"type": "uint256"
						},
						{
							"internalType": "uint256",
							"name": "b",
							"type": "uint256"
						}
					],
					"name": "topla2",
					"outputs": [
						{
							"internalType": "uint256",
							"name": "",
							"type": "uint256"
						}
					],
					"stateMutability": "pure",
					"type": "function"
				},
				{
					"inputs": [],
					"name": "x",
					"outputs": [
						{
							"internalType": "uint256",
							"name": "",
							"type": "uint256"
						}
					],
					"stateMutability": "view",
					"type": "function"
				}
			],
			"devdoc": {
				"kind": "dev",
				"methods": {},
				"version": 1
			},
			"evm": {
				"assembly": "    /* \"contracts/3.video.sol\":108:1751  contract func {... */\n  mstore(0x40, 0x80)\n    /* \"contracts/3.video.sol\":1017:1018  3 */\n  0x03\n    /* \"contracts/3.video.sol\":1001:1018  uint public x = 3 */\n  0x00\n  sstore\n    /* \"contracts/3.video.sol\":108:1751  contract func {... */\n  callvalue\n  dup1\n  iszero\n  tag_1\n  jumpi\n  0x00\n  dup1\n  revert\ntag_1:\n  pop\n  dataSize(sub_0)\n  dup1\n  dataOffset(sub_0)\n  0x00\n  codecopy\n  0x00\n  return\nstop\n\nsub_0: assembly {\n        /* \"contracts/3.video.sol\":108:1751  contract func {... */\n      mstore(0x40, 0x80)\n      callvalue\n      dup1\n      iszero\n      tag_1\n      jumpi\n      0x00\n      dup1\n      revert\n    tag_1:\n      pop\n      jumpi(tag_2, lt(calldatasize, 0x04))\n      shr(0xe0, calldataload(0x00))\n      dup1\n      0x076f81f0\n      eq\n      tag_3\n      jumpi\n      dup1\n      0x0c55699c\n      eq\n      tag_4\n      jumpi\n      dup1\n      0x1fcf9212\n      eq\n      tag_5\n      jumpi\n      dup1\n      0xc8492b98\n      eq\n      tag_6\n      jumpi\n    tag_2:\n      0x00\n      dup1\n      revert\n        /* \"contracts/3.video.sol\":1624:1748  function topla2(uint a, uint b) public pure returns (uint) {... */\n    tag_3:\n      tag_7\n      0x04\n      dup1\n      calldatasize\n      sub\n      dup2\n      add\n      swap1\n      tag_8\n      swap2\n      swap1\n      tag_9\n      jump\t// in\n    tag_8:\n      tag_10\n      jump\t// in\n    tag_7:\n      mload(0x40)\n      tag_11\n      swap2\n      swap1\n      tag_12\n      jump\t// in\n    tag_11:\n      mload(0x40)\n      dup1\n      swap2\n      sub\n      swap1\n      return\n        /* \"contracts/3.video.sol\":1001:1018  uint public x = 3 */\n    tag_4:\n      tag_13\n      tag_14\n      jump\t// in\n    tag_13:\n      mload(0x40)\n      tag_15\n      swap2\n      swap1\n      tag_12\n      jump\t// in\n    tag_15:\n      mload(0x40)\n      dup1\n      swap2\n      sub\n      swap1\n      return\n        /* \"contracts/3.video.sol\":1157:1283  function degisim(uint newx) public view returns (uint) {... */\n    tag_5:\n      tag_16\n      0x04\n      dup1\n      calldatasize\n      sub\n      dup2\n      add\n      swap1\n      tag_17\n      swap2\n      swap1\n      tag_18\n      jump\t// in\n    tag_17:\n      tag_19\n      jump\t// in\n    tag_16:\n      mload(0x40)\n      tag_20\n      swap2\n      swap1\n      tag_12\n      jump\t// in\n    tag_20:\n      mload(0x40)\n      dup1\n      swap2\n      sub\n      swap1\n      return\n        /* \"contracts/3.video.sol\":1372:1529  function sayiTopla(uint a, uint b) public view returns (uint) {... */\n    tag_6:\n      tag_21\n      0x04\n      dup1\n      calldatasize\n      sub\n      dup2\n      add\n      swap1\n      tag_22\n      swap2\n      swap1\n      tag_9\n      jump\t// in\n    tag_22:\n      tag_23\n      jump\t// in\n    tag_21:\n      mload(0x40)\n      tag_24\n      swap2\n      swap1\n      tag_12\n      jump\t// in\n    tag_24:\n      mload(0x40)\n      dup1\n      swap2\n      sub\n      swap1\n      return\n        /* \"contracts/3.video.sol\":1624:1748  function topla2(uint a, uint b) public pure returns (uint) {... */\n    tag_10:\n        /* \"contracts/3.video.sol\":1677:1681  uint */\n      0x00\n        /* \"contracts/3.video.sol\":1705:1706  b */\n      dup2\n        /* \"contracts/3.video.sol\":1701:1702  a */\n      dup4\n        /* \"contracts/3.video.sol\":1701:1706  a + b */\n      tag_26\n      swap2\n      swap1\n      tag_27\n      jump\t// in\n    tag_26:\n        /* \"contracts/3.video.sol\":1694:1706  return a + b */\n      swap1\n      pop\n        /* \"contracts/3.video.sol\":1624:1748  function topla2(uint a, uint b) public pure returns (uint) {... */\n      swap3\n      swap2\n      pop\n      pop\n      jump\t// out\n        /* \"contracts/3.video.sol\":1001:1018  uint public x = 3 */\n    tag_14:\n      sload(0x00)\n      dup2\n      jump\t// out\n        /* \"contracts/3.video.sol\":1157:1283  function degisim(uint newx) public view returns (uint) {... */\n    tag_19:\n        /* \"contracts/3.video.sol\":1206:1210  uint */\n      0x00\n        /* \"contracts/3.video.sol\":1234:1238  newx */\n      dup2\n        /* \"contracts/3.video.sol\":1230:1231  x */\n      sload(0x00)\n        /* \"contracts/3.video.sol\":1230:1238  x + newx */\n      tag_29\n      swap2\n      swap1\n      tag_27\n      jump\t// in\n    tag_29:\n        /* \"contracts/3.video.sol\":1223:1238  return x + newx */\n      swap1\n      pop\n        /* \"contracts/3.video.sol\":1157:1283  function degisim(uint newx) public view returns (uint) {... */\n      swap2\n      swap1\n      pop\n      jump\t// out\n        /* \"contracts/3.video.sol\":1372:1529  function sayiTopla(uint a, uint b) public view returns (uint) {... */\n    tag_23:\n        /* \"contracts/3.video.sol\":1428:1432  uint */\n      0x00\n        /* \"contracts/3.video.sol\":1460:1475  block.timestamp */\n      timestamp\n        /* \"contracts/3.video.sol\":1456:1457  b */\n      dup3\n        /* \"contracts/3.video.sol\":1452:1453  a */\n      dup5\n        /* \"contracts/3.video.sol\":1452:1457  a + b */\n      tag_31\n      swap2\n      swap1\n      tag_27\n      jump\t// in\n    tag_31:\n        /* \"contracts/3.video.sol\":1452:1475  a + b + block.timestamp */\n      tag_32\n      swap2\n      swap1\n      tag_27\n      jump\t// in\n    tag_32:\n        /* \"contracts/3.video.sol\":1445:1475  return a + b + block.timestamp */\n      swap1\n      pop\n        /* \"contracts/3.video.sol\":1372:1529  function sayiTopla(uint a, uint b) public view returns (uint) {... */\n      swap3\n      swap2\n      pop\n      pop\n      jump\t// out\n        /* \"#utility.yul\":88:205   */\n    tag_34:\n        /* \"#utility.yul\":197:198   */\n      0x00\n        /* \"#utility.yul\":194:195   */\n      dup1\n        /* \"#utility.yul\":187:199   */\n      revert\n        /* \"#utility.yul\":334:411   */\n    tag_36:\n        /* \"#utility.yul\":371:378   */\n      0x00\n        /* \"#utility.yul\":400:405   */\n      dup2\n        /* \"#utility.yul\":389:405   */\n      swap1\n      pop\n        /* \"#utility.yul\":334:411   */\n      swap2\n      swap1\n      pop\n      jump\t// out\n        /* \"#utility.yul\":417:539   */\n    tag_37:\n        /* \"#utility.yul\":490:514   */\n      tag_47\n        /* \"#utility.yul\":508:513   */\n      dup2\n        /* \"#utility.yul\":490:514   */\n      tag_36\n      jump\t// in\n    tag_47:\n        /* \"#utility.yul\":483:488   */\n      dup2\n        /* \"#utility.yul\":480:515   */\n      eq\n        /* \"#utility.yul\":470:533   */\n      tag_48\n      jumpi\n        /* \"#utility.yul\":529:530   */\n      0x00\n        /* \"#utility.yul\":526:527   */\n      dup1\n        /* \"#utility.yul\":519:531   */\n      revert\n        /* \"#utility.yul\":470:533   */\n    tag_48:\n        /* \"#utility.yul\":417:539   */\n      pop\n      jump\t// out\n        /* \"#utility.yul\":545:684   */\n    tag_38:\n        /* \"#utility.yul\":591:596   */\n      0x00\n        /* \"#utility.yul\":629:635   */\n      dup2\n        /* \"#utility.yul\":616:636   */\n      calldataload\n        /* \"#utility.yul\":607:636   */\n      swap1\n      pop\n        /* \"#utility.yul\":645:678   */\n      tag_50\n        /* \"#utility.yul\":672:677   */\n      dup2\n        /* \"#utility.yul\":645:678   */\n      tag_37\n      jump\t// in\n    tag_50:\n        /* \"#utility.yul\":545:684   */\n      swap3\n      swap2\n      pop\n      pop\n      jump\t// out\n        /* \"#utility.yul\":690:1164   */\n    tag_9:\n        /* \"#utility.yul\":758:764   */\n      0x00\n        /* \"#utility.yul\":766:772   */\n      dup1\n        /* \"#utility.yul\":815:817   */\n      0x40\n        /* \"#utility.yul\":803:812   */\n      dup4\n        /* \"#utility.yul\":794:801   */\n      dup6\n        /* \"#utility.yul\":790:813   */\n      sub\n        /* \"#utility.yul\":786:818   */\n      slt\n        /* \"#utility.yul\":783:902   */\n      iszero\n      tag_52\n      jumpi\n        /* \"#utility.yul\":821:900   */\n      tag_53\n      tag_34\n      jump\t// in\n    tag_53:\n        /* \"#utility.yul\":783:902   */\n    tag_52:\n        /* \"#utility.yul\":941:942   */\n      0x00\n        /* \"#utility.yul\":966:1019   */\n      tag_54\n        /* \"#utility.yul\":1011:1018   */\n      dup6\n        /* \"#utility.yul\":1002:1008   */\n      dup3\n        /* \"#utility.yul\":991:1000   */\n      dup7\n        /* \"#utility.yul\":987:1009   */\n      add\n        /* \"#utility.yul\":966:1019   */\n      tag_38\n      jump\t// in\n    tag_54:\n        /* \"#utility.yul\":956:1019   */\n      swap3\n      pop\n        /* \"#utility.yul\":912:1029   */\n      pop\n        /* \"#utility.yul\":1068:1070   */\n      0x20\n        /* \"#utility.yul\":1094:1147   */\n      tag_55\n        /* \"#utility.yul\":1139:1146   */\n      dup6\n        /* \"#utility.yul\":1130:1136   */\n      dup3\n        /* \"#utility.yul\":1119:1128   */\n      dup7\n        /* \"#utility.yul\":1115:1137   */\n      add\n        /* \"#utility.yul\":1094:1147   */\n      tag_38\n      jump\t// in\n    tag_55:\n        /* \"#utility.yul\":1084:1147   */\n      swap2\n      pop\n        /* \"#utility.yul\":1039:1157   */\n      pop\n        /* \"#utility.yul\":690:1164   */\n      swap3\n      pop\n      swap3\n      swap1\n      pop\n      jump\t// out\n        /* \"#utility.yul\":1170:1288   */\n    tag_39:\n        /* \"#utility.yul\":1257:1281   */\n      tag_57\n        /* \"#utility.yul\":1275:1280   */\n      dup2\n        /* \"#utility.yul\":1257:1281   */\n      tag_36\n      jump\t// in\n    tag_57:\n        /* \"#utility.yul\":1252:1255   */\n      dup3\n        /* \"#utility.yul\":1245:1282   */\n      mstore\n        /* \"#utility.yul\":1170:1288   */\n      pop\n      pop\n      jump\t// out\n        /* \"#utility.yul\":1294:1516   */\n    tag_12:\n        /* \"#utility.yul\":1387:1391   */\n      0x00\n        /* \"#utility.yul\":1425:1427   */\n      0x20\n        /* \"#utility.yul\":1414:1423   */\n      dup3\n        /* \"#utility.yul\":1410:1428   */\n      add\n        /* \"#utility.yul\":1402:1428   */\n      swap1\n      pop\n        /* \"#utility.yul\":1438:1509   */\n      tag_59\n        /* \"#utility.yul\":1506:1507   */\n      0x00\n        /* \"#utility.yul\":1495:1504   */\n      dup4\n        /* \"#utility.yul\":1491:1508   */\n      add\n        /* \"#utility.yul\":1482:1488   */\n      dup5\n        /* \"#utility.yul\":1438:1509   */\n      tag_39\n      jump\t// in\n    tag_59:\n        /* \"#utility.yul\":1294:1516   */\n      swap3\n      swap2\n      pop\n      pop\n      jump\t// out\n        /* \"#utility.yul\":1522:1851   */\n    tag_18:\n        /* \"#utility.yul\":1581:1587   */\n      0x00\n        /* \"#utility.yul\":1630:1632   */\n      0x20\n        /* \"#utility.yul\":1618:1627   */\n      dup3\n        /* \"#utility.yul\":1609:1616   */\n      dup5\n        /* \"#utility.yul\":1605:1628   */\n      sub\n        /* \"#utility.yul\":1601:1633   */\n      slt\n        /* \"#utility.yul\":1598:1717   */\n      iszero\n      tag_61\n      jumpi\n        /* \"#utility.yul\":1636:1715   */\n      tag_62\n      tag_34\n      jump\t// in\n    tag_62:\n        /* \"#utility.yul\":1598:1717   */\n    tag_61:\n        /* \"#utility.yul\":1756:1757   */\n      0x00\n        /* \"#utility.yul\":1781:1834   */\n      tag_63\n        /* \"#utility.yul\":1826:1833   */\n      dup5\n        /* \"#utility.yul\":1817:1823   */\n      dup3\n        /* \"#utility.yul\":1806:1815   */\n      dup6\n        /* \"#utility.yul\":1802:1824   */\n      add\n        /* \"#utility.yul\":1781:1834   */\n      tag_38\n      jump\t// in\n    tag_63:\n        /* \"#utility.yul\":1771:1834   */\n      swap2\n      pop\n        /* \"#utility.yul\":1727:1844   */\n      pop\n        /* \"#utility.yul\":1522:1851   */\n      swap3\n      swap2\n      pop\n      pop\n      jump\t// out\n        /* \"#utility.yul\":1857:2037   */\n    tag_40:\n        /* \"#utility.yul\":1905:1982   */\n      0x4e487b7100000000000000000000000000000000000000000000000000000000\n        /* \"#utility.yul\":1902:1903   */\n      0x00\n        /* \"#utility.yul\":1895:1983   */\n      mstore\n        /* \"#utility.yul\":2002:2006   */\n      0x11\n        /* \"#utility.yul\":1999:2000   */\n      0x04\n        /* \"#utility.yul\":1992:2007   */\n      mstore\n        /* \"#utility.yul\":2026:2030   */\n      0x24\n        /* \"#utility.yul\":2023:2024   */\n      0x00\n        /* \"#utility.yul\":2016:2031   */\n      revert\n        /* \"#utility.yul\":2043:2234   */\n    tag_27:\n        /* \"#utility.yul\":2083:2086   */\n      0x00\n        /* \"#utility.yul\":2102:2122   */\n      tag_66\n        /* \"#utility.yul\":2120:2121   */\n      dup3\n        /* \"#utility.yul\":2102:2122   */\n      tag_36\n      jump\t// in\n    tag_66:\n        /* \"#utility.yul\":2097:2122   */\n      swap2\n      pop\n        /* \"#utility.yul\":2136:2156   */\n      tag_67\n        /* \"#utility.yul\":2154:2155   */\n      dup4\n        /* \"#utility.yul\":2136:2156   */\n      tag_36\n      jump\t// in\n    tag_67:\n        /* \"#utility.yul\":2131:2156   */\n      swap3\n      pop\n        /* \"#utility.yul\":2179:2180   */\n      dup3\n        /* \"#utility.yul\":2176:2177   */\n      dup3\n        /* \"#utility.yul\":2172:2181   */\n      add\n        /* \"#utility.yul\":2165:2181   */\n      swap1\n      pop\n        /* \"#utility.yul\":2200:2203   */\n      dup1\n        /* \"#utility.yul\":2197:2198   */\n      dup3\n        /* \"#utility.yul\":2194:2204   */\n      gt\n        /* \"#utility.yul\":2191:2227   */\n      iszero\n      tag_68\n      jumpi\n        /* \"#utility.yul\":2207:2225   */\n      tag_69\n      tag_40\n      jump\t// in\n    tag_69:\n        /* \"#utility.yul\":2191:2227   */\n    tag_68:\n        /* \"#utility.yul\":2043:2234   */\n      swap3\n      swap2\n      pop\n      pop\n      jump\t// out\n\n    auxdata: 0xa26469706673582212204e573b29d9a27fea2fbc2b221b3f37215b476609c6976f072deb9364b0a4915a64736f6c63430008130033\n}\n",
				"bytecode": {
					"linkReferences": {},
					"object": "6080604052600360005534801561001557600080fd5b506102be806100256000396000f3fe608060405234801561001057600080fd5b506004361061004c5760003560e01c8063076f81f0146100515780630c55699c146100815780631fcf92121461009f578063c8492b98146100cf575b600080fd5b61006b6004803603810190610066919061018e565b6100ff565b60405161007891906101dd565b60405180910390f35b610089610115565b60405161009691906101dd565b60405180910390f35b6100b960048036038101906100b491906101f8565b61011b565b6040516100c691906101dd565b60405180910390f35b6100e960048036038101906100e4919061018e565b610132565b6040516100f691906101dd565b60405180910390f35b6000818361010d9190610254565b905092915050565b60005481565b60008160005461012b9190610254565b9050919050565b60004282846101419190610254565b61014b9190610254565b905092915050565b600080fd5b6000819050919050565b61016b81610158565b811461017657600080fd5b50565b60008135905061018881610162565b92915050565b600080604083850312156101a5576101a4610153565b5b60006101b385828601610179565b92505060206101c485828601610179565b9150509250929050565b6101d781610158565b82525050565b60006020820190506101f260008301846101ce565b92915050565b60006020828403121561020e5761020d610153565b5b600061021c84828501610179565b91505092915050565b7f4e487b7100000000000000000000000000000000000000000000000000000000600052601160045260246000fd5b600061025f82610158565b915061026a83610158565b925082820190508082111561028257610281610225565b5b9291505056fea26469706673582212204e573b29d9a27fea2fbc2b221b3f37215b476609c6976f072deb9364b0a4915a64736f6c63430008130033",
					"opcodes": "PUSH1 0x80 PUSH1 0x40 MSTORE PUSH1 0x3 PUSH1 0x0 SSTORE CALLVALUE DUP1 ISZERO PUSH2 0x15 JUMPI PUSH1 0x0 DUP1 REVERT JUMPDEST POP PUSH2 0x2BE DUP1 PUSH2 0x25 PUSH1 0x0 CODECOPY PUSH1 0x0 RETURN INVALID PUSH1 0x80 PUSH1 0x40 MSTORE CALLVALUE DUP1 ISZERO PUSH2 0x10 JUMPI PUSH1 0x0 DUP1 REVERT JUMPDEST POP PUSH1 0x4 CALLDATASIZE LT PUSH2 0x4C JUMPI PUSH1 0x0 CALLDATALOAD PUSH1 0xE0 SHR DUP1 PUSH4 0x76F81F0 EQ PUSH2 0x51 JUMPI DUP1 PUSH4 0xC55699C EQ PUSH2 0x81 JUMPI DUP1 PUSH4 0x1FCF9212 EQ PUSH2 0x9F JUMPI DUP1 PUSH4 0xC8492B98 EQ PUSH2 0xCF JUMPI JUMPDEST PUSH1 0x0 DUP1 REVERT JUMPDEST PUSH2 0x6B PUSH1 0x4 DUP1 CALLDATASIZE SUB DUP2 ADD SWAP1 PUSH2 0x66 SWAP2 SWAP1 PUSH2 0x18E JUMP JUMPDEST PUSH2 0xFF JUMP JUMPDEST PUSH1 0x40 MLOAD PUSH2 0x78 SWAP2 SWAP1 PUSH2 0x1DD JUMP JUMPDEST PUSH1 0x40 MLOAD DUP1 SWAP2 SUB SWAP1 RETURN JUMPDEST PUSH2 0x89 PUSH2 0x115 JUMP JUMPDEST PUSH1 0x40 MLOAD PUSH2 0x96 SWAP2 SWAP1 PUSH2 0x1DD JUMP JUMPDEST PUSH1 0x40 MLOAD DUP1 SWAP2 SUB SWAP1 RETURN JUMPDEST PUSH2 0xB9 PUSH1 0x4 DUP1 CALLDATASIZE SUB DUP2 ADD SWAP1 PUSH2 0xB4 SWAP2 SWAP1 PUSH2 0x1F8 JUMP JUMPDEST PUSH2 0x11B JUMP JUMPDEST PUSH1 0x40 MLOAD PUSH2 0xC6 SWAP2 SWAP1 PUSH2 0x1DD JUMP JUMPDEST PUSH1 0x40 MLOAD DUP1 SWAP2 SUB SWAP1 RETURN JUMPDEST PUSH2 0xE9 PUSH1 0x4 DUP1 CALLDATASIZE SUB DUP2 ADD SWAP1 PUSH2 0xE4 SWAP2 SWAP1 PUSH2 0x18E JUMP JUMPDEST PUSH2 0x132 JUMP JUMPDEST PUSH1 0x40 MLOAD PUSH2 0xF6 SWAP2 SWAP1 PUSH2 0x1DD JUMP JUMPDEST PUSH1 0x40 MLOAD DUP1 SWAP2 SUB SWAP1 RETURN JUMPDEST PUSH1 0x0 DUP2 DUP4 PUSH2 0x10D SWAP2 SWAP1 PUSH2 0x254 JUMP JUMPDEST SWAP1 POP SWAP3 SWAP2 POP POP JUMP JUMPDEST PUSH1 0x0 SLOAD DUP2 JUMP JUMPDEST PUSH1 0x0 DUP2 PUSH1 0x0 SLOAD PUSH2 0x12B SWAP2 SWAP1 PUSH2 0x254 JUMP JUMPDEST SWAP1 POP SWAP2 SWAP1 POP JUMP JUMPDEST PUSH1 0x0 TIMESTAMP DUP3 DUP5 PUSH2 0x141 SWAP2 SWAP1 PUSH2 0x254 JUMP JUMPDEST PUSH2 0x14B SWAP2 SWAP1 PUSH2 0x254 JUMP JUMPDEST SWAP1 POP SWAP3 SWAP2 POP POP JUMP JUMPDEST PUSH1 0x0 DUP1 REVERT JUMPDEST PUSH1 0x0 DUP2 SWAP1 POP SWAP2 SWAP1 POP JUMP JUMPDEST PUSH2 0x16B DUP2 PUSH2 0x158 JUMP JUMPDEST DUP2 EQ PUSH2 0x176 JUMPI PUSH1 0x0 DUP1 REVERT JUMPDEST POP JUMP JUMPDEST PUSH1 0x0 DUP2 CALLDATALOAD SWAP1 POP PUSH2 0x188 DUP2 PUSH2 0x162 JUMP JUMPDEST SWAP3 SWAP2 POP POP JUMP JUMPDEST PUSH1 0x0 DUP1 PUSH1 0x40 DUP4 DUP6 SUB SLT ISZERO PUSH2 0x1A5 JUMPI PUSH2 0x1A4 PUSH2 0x153 JUMP JUMPDEST JUMPDEST PUSH1 0x0 PUSH2 0x1B3 DUP6 DUP3 DUP7 ADD PUSH2 0x179 JUMP JUMPDEST SWAP3 POP POP PUSH1 0x20 PUSH2 0x1C4 DUP6 DUP3 DUP7 ADD PUSH2 0x179 JUMP JUMPDEST SWAP2 POP POP SWAP3 POP SWAP3 SWAP1 POP JUMP JUMPDEST PUSH2 0x1D7 DUP2 PUSH2 0x158 JUMP JUMPDEST DUP3 MSTORE POP POP JUMP JUMPDEST PUSH1 0x0 PUSH1 0x20 DUP3 ADD SWAP1 POP PUSH2 0x1F2 PUSH1 0x0 DUP4 ADD DUP5 PUSH2 0x1CE JUMP JUMPDEST SWAP3 SWAP2 POP POP JUMP JUMPDEST PUSH1 0x0 PUSH1 0x20 DUP3 DUP5 SUB SLT ISZERO PUSH2 0x20E JUMPI PUSH2 0x20D PUSH2 0x153 JUMP JUMPDEST JUMPDEST PUSH1 0x0 PUSH2 0x21C DUP5 DUP3 DUP6 ADD PUSH2 0x179 JUMP JUMPDEST SWAP2 POP POP SWAP3 SWAP2 POP POP JUMP JUMPDEST PUSH32 0x4E487B7100000000000000000000000000000000000000000000000000000000 PUSH1 0x0 MSTORE PUSH1 0x11 PUSH1 0x4 MSTORE PUSH1 0x24 PUSH1 0x0 REVERT JUMPDEST PUSH1 0x0 PUSH2 0x25F DUP3 PUSH2 0x158 JUMP JUMPDEST SWAP2 POP PUSH2 0x26A DUP4 PUSH2 0x158 JUMP JUMPDEST SWAP3 POP DUP3 DUP3 ADD SWAP1 POP DUP1 DUP3 GT ISZERO PUSH2 0x282 JUMPI PUSH2 0x281 PUSH2 0x225 JUMP JUMPDEST JUMPDEST SWAP3 SWAP2 POP POP JUMP INVALID LOG2 PUSH5 0x6970667358 0x22 SLT KECCAK256 0x4E JUMPI EXTCODESIZE 0x29 0xD9 LOG2 PUSH32 0xEA2FBC2B221B3F37215B476609C6976F072DEB9364B0A4915A64736F6C634300 ADDMOD SGT STOP CALLER "
				},
				"gasEstimates": {
					"creation": {
						"codeDepositCost": "140400",
						"executionCost": "22289",
						"totalCost": "162689"
					},
					"external": {
						"degisim(uint256)": "infinite",
						"sayiTopla(uint256,uint256)": "infinite",
						"topla2(uint256,uint256)": "infinite",
						"x()": "2429"
					}
				},
				"methodIdentifiers": {
					"degisim(uint256)": "1fcf9212",
					"sayiTopla(uint256,uint256)": "c8492b98",
					"topla2(uint256,uint256)": "076f81f0",
					"x()": "0c55699c"
				}
			},
			"storageLayout": {
				"storage": [
					{
						"astId": 4,
						"contract": "contracts/3.video.sol:func",
						"label": "x",
						"offset": 0,
						"slot": "0",
						"type": "t_uint256"
					}
				],
				"types": {
					"t_uint256": {
						"encoding": "inplace",
						"label": "uint256",
						"numberOfBytes": "32"
					}
				}
			},
			"userdoc": {
				"kind": "user",
				"methods": {},
				"version": 1
			}
		}
	}
}